:020000040800F2
:10000000780D002089010008CB2400087521000824
:10001000C9240008CD040008A7290008000000003A
:100020000000000000000000000000005F25000844
:10003000DF050008000000005D25000861250008BC
:10004000A3010008A3010008A3010008A301000800
:10005000A3010008A3010008A3010008A3010008F0
:10006000A3010008A3010008A3010008A9050008D6
:10007000A3010008A3010008A3010008A3010008D0
:10008000A3010008A3010008B1020008A3010008B1
:10009000A3010008A3010008A3010008A3010008B0
:1000A000A3010008A3010008A3010008A3010008A0
:1000B000E1250008A3010008A3010008A30100082E
:1000C000A3010008A3010008A3010008A301000880
:1000D000A3010008A3010008A3010008A301000870
:1000E000A3010008A3010008A301000800F002F822
:1000F00000F03AF80AA090E8000C82448344AAF188
:100100000107DA4501D100F02FF8AFF2090EBAE885
:100110000F0013F0010F18BFFB1A43F0010318473B
:100120008C350000AC350000103A24BF78C878C187
:10013000FAD8520724BF30C830C144BF04680C60ED
:10014000704700000023002400250026103A28BF35
:1001500078C1FBD8520728BF30C148BF0B60704739
:100160001FB51FBD10B510BD00F06CF81146FFF7AC
:10017000F7FF02F0FDFC00F08AF803B4FFF7F2FF8E
:1001800003BC00F08DF8000009488047094800478B
:10019000FEE7FEE7FEE7FEE7FEE7FEE7FEE7FEE737
:1001A000FEE7FEE704480549054A064B7047000094
:1001B000DD250008ED00000878070020780D0020FC
:1001C00078090020780900204FF0000200B513469E
:1001D00094469646203922BFA0E80C50A0E80C5067
:1001E000B1F12001BFF4F7AF090728BFA0E80C5018
:1001F00048BF0CC05DF804EB890028BF40F8042B11
:1002000008BF704748BF20F8022B11F0804F18BF7D
:1002100000F8012B704770477047704710B500F029
:1002200009F8006810BD10B5044600F003F804603A
:1002300010BD0000004870471807002000487047B4
:10024000180700207546FFF7F9FFAE46050069461E
:10025000534620F00700854618B020B5FFF7A2FFEF
:10026000BDE820404FF000064FF000074FF00008B7
:100270004FF0000B21F00701AC46ACE8C009ACE838
:10028000C009ACE8C009ACE8C0098D46704710B59C
:100290000446AFF300802046BDE81040FFF76DBF75
:1002A00001491820ABBEFEE726000200704700009F
:1002B00010B5044800F045FBBDE81040024800F0CE
:1002C00040BB00009C050020CC05002070B5044612
:1002D00000688168C943C90717D1816821F001010D
:1002E000816000F09FFF05460AE000BF00F09AFF22
:1002F000401B022804D920688068C043C00706D08C
:1003000020688068C043C007F0D0002070BDA06A9C
:1003100040F01000A062E06A40F00100E0620120BD
:1003200070BD10B50146406A826A12F0500F05D0C8
:10033000006A026BBDE8104008461047816A41F42C
:100340000071816201688968C1F3424107290CD1BB
:10035000017B51B9816A21F480718162816AC9048B
:1003600003D4816A41F00101816200F0AFFA10BD4F
:1003700010B5406A816A41F040018162C16A41F072
:100380000401C16200F0D9FA10BD10B5406A00F056
:10039000D3FA10BDF8B500260446009600688168BF
:1003A000C943C9072DD0816841F001018160164819
:1003B00016490068B0FBF1F000E0401E00900028F4
:1003C000FBD100F02FFF054616E000BF00F02AFF2A
:1003D000401B022810D920688068C043C0070BD09A
:1003E000A06A40F01000A062E06A40F00100E06204
:1003F00084F824600120F8BD20688068C043C007ED
:10040000E4D10020F8BD00005400002040420F005D
:1004100010B590F80021D0F8043130F812401B1BC1
:10042000C0F8043120F81210D0F804215318C0F895
:10043000043190F80011491CC9B280F8001190F8FD
:100440000921914202D3002180F8001190F808118F
:10045000914202D2491C80F80811C8B2B3FBF0F0F7
:1004600080B210BD70B590F800520E46044650F8A8
:100470002510D0F8040202F0F5FFC4F8040244F895
:100480002560D4F80402314604F5007402F07EFCC5
:10049000054660602078401CC0B22070617AA4F5E7
:1004A0000074884202D3002084F8000294F8080205
:1004B000884202D2401C84F80802C0B202F004FE56
:1004C00001462846BDE8704002F0D4BCFEE70000BB
:1004D00070B52A4D2E88304602F0F6FD284902F00C
:1004E0003BFE6FF00B0103F064F8264902F034FE86
:1004F000A5F140046061D4E90C01E6FB0601C4E902
:100500000C01A288521C92B2A280642A09D3A06373
:10051000E163207840F0010020700020C4E90C0065
:10052000A08069881848FFF773FF2081A9881748C1
:10053000FFF76EFF6081E9881548FFF769FFA0812A
:10054000144E6069314602F095FC0546314620693B
:1005500002F090FC01462A460F4801F0BFFF0F4908
:1005600002F0FAFD02F048FD0D4980B26080096892
:100570004863BDE870400B4800F0D6BB4000002047
:100580003333534048E1BE4058000020640100204E
:10059000700200200000A0418805002000003445C2
:1005A00040060020CC050020014800F023BC0000DC
:1005B000FC05002030B590F840500124AC40C56BDC
:1005C0006C60046863604368102B036803D0996013
:1005D0000068C26030BD9A600068C16030BD70477D
:1005E00072B6FEE7802900D9802180F80912002226
:1005F00080F80022C0F8042280F808224FEA0201A5
:1006000040F82120491C8029FADB7047802900D955
:10061000802180F80911002280F80021C0F804210F
:1006200080F808214FEA020120F81120491C802996
:10063000FADB704770B502F047FD264D294602F0FF
:100640008BFD6FF00B0102F0B4FF0446A8421EDAE6
:10065000214884421BDD2146284602F003FF05465F
:100660001E49204602F078FD294602F003FC0146AF
:100670004FF07E55284602F0FDFB194902F0F2FECC
:100680000146284602F0F6FBB0F5000F01DA002023
:1006900070BD02F0A5F90446014602F05DFD214659
:1006A00002F05AFD0F4902F057FD06460E4920465A
:1006B00002F052FD0D4902F069FB314602F066FB83
:1006C0000146284602F0D6FBBDE87040084902F01A
:1006D000C9BE000033335340CDCCCC3D00803B45F8
:1006E00017B75139C63FF8338BCA6B398B31853A0E
:1006F00033938843F8B500250446009590F824000C
:1007000001280BD0012084F824002046FFF7DEFDED
:100710002046FFF73FFE060002D050E00220F8BD61
:10072000A06A20F4885040F00200A062022000F08D
:1007300017FE25490968B1FBF0F0400000E0401EBB
:1007400000900028FBD12068816841F00801816099
:1007500000F068FD074608E000F064FDC01B0A28B1
:1007600003D920688068000715D4206880680007D6
:10077000F2D42068816841F00401816000F052FDEC
:10078000074612E000F04EFDC01B0A280DD9206874
:100790008068400709D5A06A20F0020040F01000F0
:1007A000A06284F824500120F8BD206880684007CA
:1007B000E8D4A06A20F0020040F00100A06284F8B2
:1007C00024503046F8BD000054000020704700005F
:1007D000F8B50024009490F824202546012A12D070
:1007E000012280F824204A681F23072A0DD20668B8
:1007F000776B521E02EB820293409F430B6893403B
:100800001F43776319E00220F8BD06680D2A0AD25B
:10081000376BD21F02EB820293409F430B689340D9
:100820001F43376309E0F76A0D3A02EB82029340F7
:100830009F430B6893401F43F7620A6807230668CB
:100840000A2A0AD3F7680A3A02EB420293409F430E
:100850008B6893401F43F76008E0376902EB420260
:1008600093409F438B6893401F4337610A68102A67
:1008700001D0112A20D1124B02689A4217D19368F5
:100880001B0219D4936843F400039360096810298C
:1008900012D10C490C4A0968B1FBF2F101EB81015C
:1008A000490000E0491E00910029FBD104E0816A63
:1008B00041F020018162012480F824502046F8BDD7
:1008C000002401405400002040420F0010B5006891
:1008D0001549884227D1154800F030F8144CE080C3
:1008E000E08802F0F1FB134902F036FC6FF00B01D7
:1008F00002F05FFE4FF07F5102F0B4FD014602F0BE
:100900002BFCA16A02F042FAA062E189491C89B27B
:10091000E181642907D3E061207840F00200207073
:100920000020A062E08110BD00280140CC0500201D
:100930000000002033335340704770470068C06C9C
:10094000704770B50446006806684568A90625D555
:10095000B10723D5A16AC90603D4A16A41F4007185
:10096000A1628168C1F34241072910D1217B71B98D
:10097000416821F020014160A06A20F48070A062EB
:10098000A06AC00403D4A06A40F00100A06220461F
:10099000FFF79CFF21686FF01200086028062ED533
:1009A00070072CD5A06AC00603D4A06A40F400509A
:1009B000A06220688168C1F30231072909D041682B
:1009C000490515D48168C1F34241072910D1217B23
:1009D00071B9416821F080014160A06A20F4805023
:1009E000A062A06AC00503D4A06A40F00100A06222
:1009F0002046FFF7EBFE21686FF00C0008606806E8
:100A00000CD5F0070AD0A06A40F48030A0622046DE
:100A100000F094F821686FF00100086070BD0000DC
:100A20002DE9F0414FF0000704003D467ED0A06A5A
:100A3000002628B9E66284F82460204600F080F899
:100A40002046FFF743FCA16AC90600D420B1A06A82
:100A500040F01000A06269E0A16A21F4885141F0E1
:100A60000201A1626268E169237B0A4347EA43010C
:100A70000A43A1684FF48077B94209D0012907D011
:100A80005FF0000194F814C0BCF1010F02D00AE03D
:100A90003946F7E7F3B1A36A43F02003A362E36AA0
:100AA00043F00103E3622368D3F804C02CF4694CDB
:100AB0004CEA010CC3F804C021688B68DFF870C0F1
:100AC00003EA0C0313438B60A168B9420BD00129E0
:100AD00009D00CE0DFF85CC0A3690CEB43330B4397
:100AE00043F40061DFE7218A0D05A5F58015216833
:100AF000CB6A23F470032B43CB62216889680E4BC9
:100B00001940914208D1E662A16A21F0020141F048
:100B10000101A162BDE8F081A06A20F0020040F06E
:100B20001000A062E06A40F00100E0620120F1E7FD
:100B3000FDF7E1FF00E0FFFFFE0E1FFF7047000022
:100B400070B586B00026009601960296039605467B
:100B50002C4C02682C4903202C4BA2422ED18A69CE
:100B600042F400728A618A6902F4007204928A690E
:100B700042F004028A61896901F004010491E421D0
:100B8000CDE900106946184600F056FA214C20487D
:100B9000C4E900068020C4E90260400020618000B2
:100BA00060612020A0610002E061204600F0CCF9E5
:100BB00008B1FFF715FD2C62656219E0164CA242E0
:100BC0001ED18A6942F480628A618A6902F4806275
:100BD00004928A6942F004028A61896901F0040181
:100BE00004911021CDE900106946184600F024FA5E
:100BF00000220121122000F081FB122000F070FB86
:100C000006B070BD00240140001002400008014001
:100C100008000240FC050020002801402DE9F047B3
:100C2000894604463B4900683B4F0E1D904688426A
:100C300001D0B84207D1306810F4702F03D00125DD
:100C40002846BDE8F08794F8240001280CD0012044
:100C500084F824002046FFF79DFB05004FF00000BC
:100C600004D084F82400EBE70220EAE7A16A40F60A
:100C70000162914341F48071A1622168B94218D1A7
:100C8000326812F4702F14D0A16A41F48011A1626D
:100C90003168490505D5A16A21F4005141F480511C
:100CA000A162A16AC9040AD5E16A21F00601E162E4
:100CB00006E0A26A22F48012A2624968E9E7E062D3
:100CC00084F82400216A15488862216A1448C862A1
:100CD000216A1448086321686FF0020008602068E8
:100CE000816841F480718160216843464A464C31F5
:100CF000206A00F057F920688168C1F34241072952
:100D0000816803D041F48011816099E741F4A0012A
:100D1000FAE70000002401400028014023030008F6
:100D20008B0300087103000870B5044690F8240096
:100D300001280DD0012084F824002046FFF72AFB6B
:100D400002004FF0000005D084F82400104670BD6A
:100D5000022070BDA16A40F60163994341F480719D
:100D6000A162224D23682249AB4218D10E6816F4C5
:100D7000702F14D0A66A46F48016A6620E68760517
:100D800005D5A66A26F4005646F48056A662A66AE1
:100D9000F6040AD5E66A26F00606E66206E0A66ACA
:100DA00026F48016A6625E68E9E7E06284F8240013
:100DB0006FF0020018602068436843F0200343602E
:100DC00020688368C3F34243072B05D1A84208D1AA
:100DD000096811F4702F04D0816841F4801181609A
:100DE000B4E7816841F4A001F9E700000028014060
:100DF000042401402DE9F05FC16B0C6801680B68A9
:100E0000D0F840C0042202FA0CF2494DDFF824A1C8
:100E1000494E4A4FDFF828B1DFF828E122422CD0B2
:100E20005A072AD50A68920603D40A6822F00402F7
:100E30000A600168A94201D1042219E0514501D19B
:100E4000402215E0B14202D14FF4806210E0B94275
:100E500002D14FF480420BE0594502D14FF4802279
:100E600006E0714502D14FF4800201E04FF080624C
:100E70002F4908394A60C16A3BE04FF0020808FA7E
:100E80000CF818EA040F4FF000094FF0010235D0BA
:100E90005FEA837832D50B689B0605D40B6823F094
:100EA0000A030B6080F821200168A94201D10222C7
:100EB00019E0514501D1202215E0B14202D14FF491
:100EC000007210E0B94202D14FF400520BE05945D4
:100ED00002D14FF4003206E0714502D14FF4001206
:100EE00001E04FF00072124908394A6080F8209002
:100EF000816A00291AD0BDE8F05F0847082505FA85
:100F00000CF5254212D01B0710D50B6823F00E03F9
:100F10000B6090F84010C36B02FA01F159608263D4
:100F200080F8212080F82090016BE2E7BDE8F09F77
:100F3000080002401C000240300002404400024011
:100F4000580002406C00024030B528B308C813496D
:100F500014221944B1FBF2F18900C1631049816385
:100F6000022141771A6843F6F0718A43D0E90014F0
:100F70002143D0E902452C432143046921434469BC
:100F800021438469214311431960002141630122F7
:100F900042770177084630BD012030BDF8FFFDBF24
:100FA0000000024070B5044690F82000002501289A
:100FB0000CD0012084F8200094F821600020012E3C
:100FC00006D084F820000225284670BD022070BD9E
:100FD000022684F82160A0632068066826F00106D6
:100FE00006602046FFF7E6FAE06A002820680168FC
:100FF00002D041F00E0106E021F0040101602068FA
:10100000016841F00A0101602068016841F00101B6
:101010000160D9E770B5044600F004F90546601C8C
:1010200002D004480078044400F0FCF8401BA042C1
:10103000FAD370BD480000202DE9F84FDFF8B891D1
:101040000024A9F1040B23460F2709F1040AABF190
:10105000040EC9E00125A5402A40AA427DD1674E71
:10106000D1F804C0ACEB0608B44532D014DCBCF1B6
:10107000030F3AD009DCBCF1000F2AD0BCF1010FFC
:101080001CD0BCF1020F31D11DE0BCF1110F17D003
:10109000BCF1120F2AD119E0B8F5881F19D006DC6F
:1010A000B8F5803F15D0B8F5801F1FD111E0B8F515
:1010B000001F0ED0B8F5041F18D10AE0CB6815E068
:1010C000CB681B1D12E0CB6808330FE0CB680C33F4
:1010D0000CE08B682BB1012B4FF0080303D0456166
:1010E00004E0042302E0056100E00023FF2A01D8A8
:1010F000064601E000F104064FEA840501D9A5F196
:101100002005D6F8008007FA05FC28EA0C0803FA47
:1011100005F548EA0508C6F800804D68ED0062D57F
:10112000374DAE6946F00106AE61AD6924F00306A5
:1011300005F001050095334D06EB050CDCF8085071
:10114000A607360F07FA06F825EA0805DFF8B88083
:10115000404503D14FF0000817E044E0DFF8AC80D1
:10116000404502D14FF001080FE0DFF8A480404570
:1011700002D14FF0020808E0DFF89880404502D124
:101180004FF0030801E04FF0040808FA06F848EAB7
:101190000508CCF808804D68D9F80060ED024D468E
:1011A00001D5164300E096432E604D68DAF80060E2
:1011B000AD02554601D5164300E096432E604D68BA
:1011C000DBF80060AD035D4601D5164300E09643B1
:1011D0002E604D68DEF80060ED03754601D51643BC
:1011E00000E096432E60641C0D682A46E5407FF4BB
:1011F00031AFBDE8F88F0000080401400000111075
:10120000001002400000014000080140000C0140B5
:1012100000100140001401400AB101617047090447
:10122000FBE700000148806870470000480000208C
:1012300002488168027811448160704748000020AC
:10124000074810B5016841F010010160032000F06B
:1012500075F80F2000F006F800F024F8002010BD0B
:101260000020024070B50D4D04464FF47A71287885
:10127000B1FBF0F00A490968B1FBF0F000F0A4FB03
:1012800048B9102C07D200222146501E00F036F833
:1012900000206C6070BD012070BD0000480000207F
:1012A000540000200C4808B5816941F001018161BA
:1012B000816901F001010091C16941F08051C16172
:1012C000C06900F0805000900448416821F0E0615E
:1012D00041F00071416008BD001002400000014073
:1012E000002809DB00F01F02012191404009800025
:1012F00000F1E020C0F8001170470000F0B40E4B80
:101300001B680C46C3F30223C3F10705042D00D963
:101310000425191D072901D2002300E0DB1E012648
:1013200006FA05F1491E214099409E40761E16405E
:101330003143F0BC01F038BB0CED00E0064900F091
:10134000070208684FF6FF03184040EA0220034AEC
:1013500010430860704700000CED00E00000FA0543
:1013600010B501460020234C012922D0022939D092
:1013700010291DD161682268D20119D51E48C1F318
:101380008342C903805C0AD561681B4AC1F34041AE
:10139000921E515C194AB2FBF1F1484301E0184931
:1013A00048436168490203D440000321B0FBF1F0D7
:1013B00010BD226AC2F30121012903D1920701D590
:1013C000C80310BD022905D1626A920702D549F609
:1013D000404010BD0329FCD121688903F9D54FF2A3
:1013E000244010BD00F02AF96168C1F38131491C25
:1013F0004900DBE7001002404236000800127A0084
:1014000000093D002DE9F84305460078354CC0073A
:1014100054D0E0690026C00008D4E06940F0805054
:10142000E061E069012600F0805000902E480168DC
:10143000C90512D40168804641F480710160FFF74C
:10144000F1FE074605E000BFFFF7ECFEC01B642875
:1014500023D8D8F80000C005F6D5206A10F44070F3
:1014600021D0A98801F4407181421CD0206A1F4913
:10147000012220F440700A6000220A602062C00746
:1014800011D0FFF7CFFE074641F2883808E000BFD1
:10149000FFF7C8FEC11B414502D90320BDE8F88310
:1014A000206A8007F4D5206A696820F440700843F8
:1014B00020621EB1E06920F08050E061287880074A
:1014C00005D56068A96820F440400843606028782A
:1014D000C00605D56068E96820F4800008436060B4
:1014E0000020DBE700100240007000404004424250
:1014F0002DE9F0470F46050061D0434E306800F0FB
:101500000700B84209D2306820F007003843306045
:10151000306800F00700B84251D128683B4C810781
:1015200012D5400703D5606840F4E0606060287819
:10153000000703D5606840F4605060606068A96887
:1015400020F0F000084360602878C00728D0686861
:10155000012810D02168022810D0890700292EDA2E
:10156000616821F0030101436160FFF75BFE804683
:1015700041F288390DE021688903EFE78901EDE741
:10158000FFF750FEA0EB0801494502D90320BDE852
:10159000F0876068696800F00C00B0EB810FEFD154
:1015A000306800F00700B8420BD9306820F007001F
:1015B00038433060306800F00700B84201D00120A5
:1015C000E5E72878400705D56068E96820F4E06021
:1015D000084360602878000706D56068296920F410
:1015E000605040EAC100606000F038F86168084A65
:1015F000C1F30311515CC840064908600648006801
:10160000FFF730FE0020C2E7002002400010024039
:1016100052360008540000204C00002004480549C0
:1016200000684968044AC1F30221515CC840704710
:1016300054000020001002406236000804480549AA
:1016400000684968044AC1F3C221515CC840704730
:101650005400002000100240623600080E4A516813
:101660000E4801F00C03042B11D0082B0FD10C48AD
:10167000C1F38343C903C05C0AD55168084AC1F36A
:101680004041921E515C054A5043B0FBF1F0704757
:1016900004494843704700000010024000127A00DD
:1016A0003036000800093D002DE9F84F040070D0E5
:1016B0002078C04DC00749D06868C0F38100012878
:1016C00007D06868C0F38100022809D16868C003A8
:1016D00006D52868800339D560680028E7D035E052
:1016E0006068B0F5803F0BD010B1B0F5A02F11D0DD
:1016F000286820F480302860286820F4802002E0E8
:10170000286840F480302860606890B1FFF78AFD57
:1017100006460AE0286840F480202860F0E700BF11
:10172000FFF780FD801B642873D828688003F7D5F5
:101730000CE0FFF777FD064605E000BFFFF772FDFE
:10174000801B6428F0D828688003F7D420789A4E4C
:1017500080074FF001094FF0000839D5686810F094
:101760000C0F07D06868C0F38100022809D16868AF
:10177000C00306D42868800714D52069012808D141
:1017800010E02069B0B1C6F80090FFF74BFD0746A6
:1017900005E00AE1FFF746FDC01B0228C4D828680F
:1017A0008007F7D52868616920F0F80040EAC10099
:1017B00028600DE0C6F80080FFF734FD074604E01E
:1017C000FFF730FDC01B022823D828688007F7D414
:1017D000207800072CD57948A169D9B1C0F80090CC
:1017E000FFF720FD074604E0FFF71CFDC01B0228A1
:1017F0000FD8686A8007F7D571484FF4FA5100682E
:10180000B0FBF1F0009000BF0098411E0091FAD2A9
:101810000EE080E0C0F80080FFF704FD074604E01A
:10182000FFF700FDC01B022875D8686A8007F7D44F
:101830002078400760D5E8690027C00008D4E8692F
:1018400040F08050E861E869012700F08050009086
:101850005C480168C90513D40168834641F480716E
:101860000160FFF7DFFC824606E000BFFFF7DAFC0D
:10187000A0EB0A0064284ED8DBF80000C005F5D5BF
:10188000E06801280AD008B1052813D0286A20F0A2
:1018900001002862286A20F0040002E0286A40F073
:1018A00001002862E06841F2883B98B1FFF7BAFC7A
:1018B00082460BE0286A40F004002862EEE700BF91
:1018C000FFF7B0FCA0EB0A0159455AD8286A8007F7
:1018D000F6D50CE0FFF7A6FC824605E0FFF7A2FC78
:1018E000A0EB0A0159454CD8286A8007F6D41FB1ED
:1018F000E86920F08050E861E06988B36968C1F365
:101900008101022944D00228C6F8608004D0FFF784
:1019100089FC044638E034E0FFF784FC074604E025
:10192000FFF780FCC01B02282BD828688001F7D461
:10193000206AB0F5803F05D16868A16820F40030C6
:1019400008436860D4E908010843696821F4741108
:1019500008436860C6F86090FFF764FC044606E040
:1019600025E000BFFFF75EFC001B022809D82868AD
:101970008001F7D51BE000BFFFF754FC001B0228D5
:1019800002D90320BDE8F88F28688001F4D40EE066
:101990000128F7D06868226A00F48031914204D1AE
:1019A000616A00F47010884201D00120EAE700204B
:1019B000E8E700000010024000004242800442427A
:1019C000540000200070004010B5401EB0F1807F30
:1019D00001D3012010BD4FF0E02460610F2160179A
:1019E00000F0E2FF0020A06107202061002010BD70
:1019F0007047704710B590F83C20012A22D0012290
:101A000080F83C20CA688C6822F4407222434C68FB
:101A100022F4806222430C6822F4006222430C69A3
:101A200022F4805222434C6922F400522243C969B5
:101A3000002322F480420A4301684A6480F83C3063
:101A4000002010BD022010BD70B590F83C20012A86
:101A500026D0012480F83C40022280F83D20036813
:101A60005A689D6822F070060A6832435A600D4B2E
:101A700002689A4208D0B2F1804F05D00A4B9A42D0
:101A800002D00A4B9A4204D1496825F080031943D9
:101A9000916080F83D40002180F83C10084670BD00
:101AA000022070BD002C01400004004000080040EE
:101AB00010B5040003D094F83D0010B107E00120F8
:101AC00010BD002084F83C00204600F01FF80220E2
:101AD00084F83D00211D206800F088FD012084F875
:101AE000460084F83E0084F83F0084F8400084F803
:101AF000410084F8420084F8430084F8440084F8EC
:101B0000450084F83D00002010BD000008B5114AD2
:101B100001681148914208D1816941F400618161F5
:101B2000806900F40060009008BDB1F1804FFBD1E6
:101B3000C16941F00101C161C069002200F00100EA
:101B4000009011461C20FFF7D9FBBDE808401C207F
:101B5000FFF7C6BB002C01400010024090F83D107A
:101B6000012901D001207047022180F83D10016851
:101B7000CA6842F00102CA6000680B49884208D076
:101B8000B0F1804F05D00949884202D00849884207
:101B900004D1816801F00701062903D0016841F0F2
:101BA0000101016000207047002C0140000400404A
:101BB0000008004070B5044690F83C00002501285C
:101BC00017D0012684F83C60022084F83D0020688C
:101BD000826822F0770222F47F42826008685028EF
:101BE00038D00DDC20284FD005DC90B3102811D15F
:101BF0004AE0022070BD302846D040280AD13BE0A0
:101C000060282FD070280DD0B0F5805F03D0B0F5DC
:101C1000005F12D0012584F83D60002084F83C006C
:101C2000284670BDCB68D1E90121206800F027FD6E
:101C30002068816841F0770109E0CB68D1E9012192
:101C4000206800F01CFD2068816841F480418160BB
:101C5000E1E719E0CA684968206800F0C5FD502135
:101C6000206806E0CA684968206800F0CEFD60215F
:101C7000206800F00EFDCEE7CA684968206800F0D1
:101C8000B3FD40212068F4E7226801461046F0E7E2
:101C900070472DE9F04104460068C66805694FF0B9
:101CA0000007A90713D5B10711D5F91E016101205D
:101CB0002077206880698007204602D0FFF7E8FF80
:101CC00004E000F0B1F8204600F043F927776807F8
:101CD00016D5700714D521686FF004000861022042
:101CE00020772068806910F4407F204602D0FFF7FB
:101CF000CFFF04E000F098F8204600F02AF927779B
:101D0000280715D5300713D521686FF00800086142
:101D1000042020772068C0698007204602D0FFF7A2
:101D2000B7FF04E000F080F8204600F012F92777B2
:101D3000E80616D5F00614D521686FF0100008618A
:101D4000082020772068C06910F4407F204602D028
:101D5000FFF79EFF04E000F067F8204600F0F9F876
:101D60002777E80708D0F00706D021686FF0010058
:101D70000861204600F03CF9280608D5300606D553
:101D800021686FF0800008612046FFF731FE680689
:101D900008D5700606D521686FF04000086120461E
:101DA00000F02DF9A8060AD5B00608D521686FF015
:101DB000200008612046BDE8F041FFF71ABEBDE8EB
:101DC000F081000010B586B00021009101910291D0
:101DD0000391124C0368124902221248A34209D10E
:101DE0008B6943F004038B61896901F0040104915C
:101DF00081150BE0B3F1804F0ED18B6943F00403E2
:101E00008B61896901F0040104910121CDE900127F
:101E100069460392FFF710F906B010BD002C01408F
:101E20000010024000080140704770B5044690F869
:101E30003C0000260D4601280FD0012084F83C000C
:101E40006AB1042A1DD0082A2FD00C2A3FD00126BF
:101E5000002084F83C00304670BD022070BD206830
:101E600000F020FC2068816941F008018161206850
:101E7000816921F004018161206881692A69114327
:101E800011E0206800F036FC2068816941F40061AF
:101E900081612068816921F48061816120688169A4
:101EA0002A6941EA02218161D2E7206800F04EFCF4
:101EB0002068C16941F00801C1612068C16921F051
:101EC0000401C1612068C1692A69114311E02068D9
:101ED00000F068FC2068C16941F40061C1612068BC
:101EE000C16921F48061C1612068C1692A6941EA40
:101EF0000221C161ACE710B5040003D094F83D00A5
:101F000010B107E0012010BD002084F83C002046FD
:101F100000F01EF8022084F83D00211D206800F02A
:101F200065FB012084F8460084F83E0084F83F00F9
:101F300084F8400084F8410084F8420084F84300AB
:101F400084F8440084F8450084F83D00002010BD6A
:101F50007047704710B50446022249B104290ED0DB
:101F6000082913D094F84100012816D0012010BD93
:101F700094F83E000128F9D184F83E200FE094F84F
:101F80003F000128F2D184F83F2008E094F8400097
:101F90000128EBD184F8402001E084F8412001229F
:101FA000206800F05FFB0F492068884203D1426C33
:101FB00042F4004242642068884208D0B0F1804F69
:101FC00005D00949884202D00849884204D1816875
:101FD00001F00701062903D0016841F00101016009
:101FE000002010BD002C014000040040000800400B
:101FF0000068B0F1804F01D1FEF76ABA70477047B0
:1020000070B5040004D094F84100002510B106E03A
:10201000012070BD84F84050204600F023F82420B1
:1020200084F841002068C16821F40051C160204655
:1020300000F024FC2068016921F4904101612068CE
:10204000416921F02A0141612068C16841F40051D1
:10205000C1606564202084F8410084F84200656313
:10206000002070BD30B585B0002400940194029426
:10207000039400681449884224D11448C16941F48A
:102080008021C161C16901F480210491816941F01D
:102090000801816180690E4D00F0080004904FF442
:1020A000806000900220019003200390694628463A
:1020B000FEF7C2FFE814CDE9000469462846029401
:1020C000FEF7BAFF05B030BD0048004000100240E6
:1020D000000C01402DE9F843044690F84100984671
:1020E00016460D46202802D00220BDE8F88385B1AF
:1020F0007EB100206064212084F84100FFF792F84F
:10210000A6848146E684A0682027B0F5805F02D0CF
:1021100003E00120E9E7206910B12E4600250EE01A
:1021200000260CE08021204600F004FCA8B9C6B1CE
:1021300016F8010B21684860E08C401EE084E08CBA
:102140004B464FF00002CDF800800028EAD14FF056
:102150004001204600F0EEFB40B184F841700320BE
:10216000C3E735F8020BC0F30800E3E784F84170D9
:102170000020BAE7FEE70000FEB5002121480091EB
:1021800001911F4A0291026092158260012404733A
:10219000017504254FF460220561C2614160FEF7BC
:1021A0003FFC08B1FEF71CFA0226CDE900640524C5
:1021B000694614480294FEF70BFB08B1FEF710FACB
:1021C000CDE9004669460F48FEF702FB08B1FEF76D
:1021D00007FA062000900320019069460948FEF79F
:1021E000F7FA08B1FEF7FCF90720CDE900056946CA
:1021F0000448FEF7EDFA002801D0FEF7F1F9FEBD24
:10220000002401409C0500203EB5002111480091AA
:1022100001910F4A029102608160017301750124EE
:102220004FF460220461C2614160FEF7F9FB08B11E
:10223000FEF7D6F90420CDE9000405200290694696
:102240000448FEF7C5FA002801D0FEF7C9F93EBDE3
:1022500000280140CC050020094808B5416941F03B
:10226000010141614069002200F001000090114627
:102270000B20FFF743F8BDE808400B20FFF730B80C
:10228000001002402DE9F04186B00024254800945A
:10229000019402940394816941F010018161816984
:1022A00001F010010491816941F02001816181698F
:1022B00001F020010491816941F00401816181698B
:1022C00001F004010491816941F008018161806994
:1022D000154F00F008004FF40055049000222946E5
:1022E0003846FEF799FFDFF844804FF4407601222C
:1022F00031464046FEF790FF0220CDE902400095AE
:102300000125694601953846FEF796FE0320CDE982
:102310000240CDE9006569464046FEF78DFE06B0F5
:10232000BDE8F0810010024000100140000C0140A7
:1023300010B596B000240F94109411941294139435
:102340001C2108A81494FDF73FFF20216846FDF7E3
:102350003BFF28482649C0E9001440F63F31C0E958
:102360000241046144618461FFF7A2FB08B1FEF7FA
:1023700037F94FF480500F900FA91E48FFF71AFC51
:1023800008B1FEF72DF91B48FFF7B5FD08B1FEF7C0
:1023900027F9139413A917481494FFF755FB08B1B4
:1023A000FEF71EF96020CDE908040A940B940C9402
:1023B0000D94002208A90F480E94FFF736FD08B1CE
:1023C000FEF70EF900944FF40050CDE9044002945A
:1023D00001940394694607480794FFF70BFB08B183
:1023E000FEF7FEF80348FFF7EDFC16B010BD000045
:1023F000002C01404006002010B58EB00024079448
:10240000089409940A940B941C2168460C94FDF7D7
:10241000DBFE1E484FF0804101604721C0E90114F6
:1024200040F2F311C0E903148461FFF741FB08B1E6
:10243000FEF7D6F84FF48050079007A91348FFF72E
:10244000B9FB08B1FEF7CCF81048FFF754FD08B10E
:10245000FEF7C6F80B940BA90C480C94FFF7F4FA9E
:1024600008B1FEF7BDF86020CDE900040294002217
:10247000694606480494FFF7D8FC08B1FEF7B0F8A7
:102480000248FFF79FFC0EB010BD00008806002038
:102490000C4810B50A4901604FF4E1314160002158
:1024A00081600C22C160C0E904128161C161FFF743
:1024B000A7FD002803D0BDE81040FEF791B810BD7D
:1024C00000480040D0060020FEE7FEE710B5029C61
:1024D000E0E80212002180E81A0010BD2DE9F04169
:1024E0000B4604461146184600F0BCFF0646D4E9E8
:1024F000010100F031FE05463146206800F02CFE57
:10250000294600F043FC07460546E16800F0F0FE6E
:1025100001D2E56805E02846216900F0E9FD00D216
:102520002569B6F5000F04DB3846E16800F0E0FDF0
:1025300007D316F1FF4F0CD33846216900F0D8FEBF
:1025400007D20549304600F007FEA16800F01EFCE6
:10255000A0602846BDE8F0816F12033A70477047CB
:10256000FEF766BE30B593B028216846FDF72CFE15
:1025700014210AA8FDF728FE002501200F951095CB
:102580001195010412958DE8230004904FF4E0109A
:10259000CDE90810022407946846FFF785F808B1D2
:1025A00072B6FEE70AA90F2081E831004FF480607F
:1025B000CDE90D0502210AA8FEF79AFF08B172B60F
:1025C000FEE74FF4004011900F940FA8FEF71AFF9A
:1025D000002801D072B6FEE713B030BD704700008E
:1025E0000148FFF756BB000088060020F0B50268DE
:1025F000194B1A4C1A4D4FF08047984205D0B842FB
:1026000003D0A04201D0A84203D122F070064A684C
:102610003243984205D0B84203D0A04201D0A8422C
:1026200003D122F44074CA6822434C6922F080022C
:10263000224302608A68C2620A688262984201D1BB
:1026400009690163012141610169C90703D0016979
:1026500021F001010161F0BD002C014000040040A7
:102660000008004010B501F01F030121046A9940E1
:102670008C430462016A9A401143016210BD10B597
:10268000846842EA032224F47F440A43224382609E
:1026900010BD826822F070020A4342F00701816097
:1026A0007047000030B5036A026A22F0010202623C
:1026B0004268846924F073050C682C4323F00205FA
:1026C0008B682B430A4DA8420BD123F00805CB6839
:1026D00022F440722B434D6923F0040315438A69A9
:1026E0002A434260846149684163036230BD00004F
:1026F000002C014030B5026A036A23F01003036224
:10270000436884690D6824F4E64444EA05248D682E
:1027100022F0200242EA05120B4DA8420ED1CD68EC
:1027200022F0800242EA05124D6923F4406343EA35
:1027300085038D6922F0400243EA8503436084618A
:1027400049688163026230BD002C014030B5036AE4
:10275000026A22F4807202624268C46923F4007340
:1027600024F073050C682C438D6843EA05230C4D57
:10277000A8420ED1CD6823F4006343EA05234D69D6
:1027800022F4405242EA05128D6923F4806342EA42
:1027900005124260C4614968C163036230BD000034
:1027A000002C014030B5046A026A22F480520262B1
:1027B0004268C3690D6823F4E64343EA05238D6844
:1027C00024F4005444EA0534064DA84204D14D696E
:1027D00022F4804242EA85124260C3614968016482
:1027E000046230BD002C014010B5036A046A24F075
:1027F00001040462846924F0F00444EA021423F022
:102800000A020A438461026210BD10B5036A046AB9
:1028100024F010040462846923F0A00324F47044BB
:1028200044EA023243EA01118261016210BD01688B
:102830000C3151E8002F22F4907241E80023002B64
:10284000F5D10168143151E8002F22F0010241E86E
:102850000023002BF5D1016B012909D101680C314E
:1028600051E8002F22F0100241E80023002BF5D19F
:10287000202180F8421000210163704770B50446A2
:1028800000680169E26821F4405111430161216946
:10289000A0680843616908432168CA6841F20C6373
:1028A0009A430243CA6020684169A26921F44071D9
:1028B000114341611E492068884202D1FEF7BEFEE5
:1028C00001E0FEF7ABFE00EBC00101EB0012606817
:1028D00064218000B2FBF0F3B3FBF1F36FF0180654
:1028E0007343B2FBF0F5B2FBF0F605EB8305322340
:1028F00003EB0515B5FBF1F5B6FBF1F605F0F005B8
:1029000005EB0615B2FBF0F6B2FBF0F0B0FBF1F010
:102910006FF01802504306EB800003EB0010B0FB91
:10292000F1F0216800F00F002844886070BD0000BD
:10293000003801402DE9F843984617460D460446F5
:10294000089E24E0701C22D0FEF76CFCA0EB08006F
:10295000B0421AD8CEB12068C168490717D5802D7A
:1029600015D0402D13D00168C94309070FD4016861
:102970000025406800902046FFF759FF082060645A
:1029800084F840500120BDE8F8830320FBE720686D
:10299000006835EA000004D00020B842D2D0002000
:1029A000F1E70120F9E7FEE70907090E002804DB3B
:1029B00000F1E02080F80014704700F00F0000F1F3
:1029C000E02080F8141D704700214FF07E5000F089
:1029D00051BA012100F0EDBD0021084600F04ABACD
:1029E0002DE9F0410026A0F50001B1F1FE4F7DD2A6
:1029F00000F500226FF07E0101EBE251C2F30254B8
:102A000077184FF07E52A0EBC15602EB045557EAFF
:102A1000040047D02946304600F0B8F980462946E0
:102A2000304600F01FFD414600F024FA05460146FD
:102A300000F092FB8046454900F08EFB444900F0CF
:102A4000A5F906464146284600F086FB314600F0CF
:102A500083FB0646384600F0EFFA07463D4900F092
:102A60007BFB3D49794451F8241000F08FF9314641
:102A700000F08CF906460121284600F09AFD314607
:102A800000F084F905463846344900F065FB3449C6
:102A9000794451F8241000F079F92946BDE8F04155
:102AA00000F074B94FF07E51304600F0DBFC054673
:102AB0002C4900F051FB2C4900F068F9294600F040
:102AC0004BFB2A4900F062F9294600F045FB6FF004
:102AD000824100F05BF904462946084600F03CFBC1
:102AE000214600F039FB0146284600E003E0BDE83E
:102AF000F04100F04BB94FF07F42B2EB400F03D2F0
:102B0000BDE8F041FFF765BFB0F1FF4F08BFBDE87A
:102B1000F081B0F1004F06D90120FDF784FBBDE83C
:102B2000F041FFF759BF30F0004105D06FF01606B5
:102B3000172100F03EFD5BE70220FDF774FBFFF775
:102B400043FF80F00040BDE8F081000066F1CC3E1C
:102B5000AAAA2A3FF4FD0538240C00000070313F7A
:102B6000D80B000021ED423E0A1180BEC1ABAA3E47
:102B700086B0FEF765FBFFF7F5FCFFF783FBFFF779
:102B80006BFBFFF7D5FBFFF7F7FAFFF735FCFFF715
:102B90003BFBFFF77DFC00244FF07E510B465D4A66
:102BA0005D480094FFF792FC00215C48FFF7D2F9E2
:102BB00000215B48FFF7CEF959494FF4FA700968D4
:102BC00048635848FDF796FD042257495548FEF7DB
:102BD00025F85A215548FDF719FD5A215448FDF7AB
:102BE00015FD50215348FDF711FD04215248FDF712
:102BF000F9FC4B48FEF7B2FFA2464B4CDFF83C9184
:102C00006FF00B08EB46403C2078C00716D0A06B55
:102C1000E16B00F029FA4A4900F02CF900F0A0F825
:102C2000494600F099FA414600F0C3FC454900F0DE
:102C300093FAA061207820F00100207020788007AE
:102C40000FD53F49E06900F015F900F089F860629E
:102C5000616A3948FDF706FC2062207820F0020006
:102C600020702089FDF7E6FC374900F0FBFB0746A2
:102C7000608900F029FA4D46494600F06DFA414658
:102C800000F097FC234900F067FA0646A08900F09F
:102C90001BFA294600F060FA414600F08AFC2B49F5
:102CA00000F0E8F82A490546884200DA0025AA2003
:102CB0008DF8000055208DF80100A069CDF80200C4
:102CC0002449206A00F048FACDF80600CDF80A70D1
:102CD000CDF80E602049284600F0CCF8CDF812005F
:102CE0008DF816A00BF102015FF000009DF8162090
:102CF0000B5C401C1A448DF816201428F6DB0A23BE
:102D0000172269461548FFF7E5F93220FEF782F9E8
:102D10007AE70000000040418805002040060020BE
:102D2000880600209C05002040000020580000205C
:102D300064010020700200207C03002033335340E4
:102D40000000C84248E1BE4000008E425C8F823ED7
:102D5000CDCCCC3D0000CA4300003041D00600205D
:102D600070B5054600F0F6FA044620F00040C0F1C8
:102D7000FF40C00F08D025F00040C0F1FF40C00F59
:102D800004BF0120FDF74FFA204670BD90EA010F05
:102D900048BF81F0004100F16C83421A3CBF801AA9
:102DA00089184FEAD0524FF07F4C1CEA410FA2EB3A
:102DB000D15318BF9CEA026F00F03B804FF0004CEB
:102DC0004CEA00204CEA012121FA03FC10EB0C0C28
:102DD0001ED202F1FF325FEA1C2040EBC25038BF26
:102DE00070471CF07F0F4FEA400C18BFBCF17F4FBB
:102DF00038BF7047C3F12003994008BF20F001009D
:102E0000BCF17F4F38BF7047A0F1C04000F06BBAF3
:102E10004FEA3C00000A40EBC25028BF1CF0FF0FF5
:102E20004FEA400CE6D018BFBCF17F4F38BF704767
:102E3000EAE79CEA026F05D010EA5C0F08BF00F0D9
:102E40000040704710B500F008FA00BF64FBBE3EBA
:102E5000014800F07CBB00BF0000C07F401058BF9D
:102E6000C0F14040491058BFC1F140418142EFF3E9
:102E7000008070474FF47F0C1CEAD0121EBF1CEA82
:102E8000D11392EA0C0F93EA0C0F00F0858090EAC0
:102E9000010F48BF42F4807240F4000C41F400007E
:102EA0002CF07F4120F07F4000B58142A2EB03026D
:102EB0000FF2081CACEB504EC0F100009EF800E091
:102EC0004FEA4E0E00FB0EFC38BF49004FEA2C1CA7
:102ED00002F5FA020CFB0EF34FEACE1E4FEA112C5C
:102EE0004FEAC1210EEB635E42EB22420EFB0CFC6B
:102EF0004FEA1C5300FB03114FEA112C4FEA01313A
:102F00000EFB0CFC4FEADC4C00FB0C11C14228BF4D
:102F100009184CEB03335DF804EB10EB410143EB74
:102F2000C250B2F57C0F38BF704729D512F0F00FB0
:102F30001CBF00F1C04000F0004070470081828358
:102F40008485868788898B8C8D8E8F9192939596B8
:102F500097999A9C9D9FA0A2A3A5A7A8AAACAEB042
:102F6000B2B3B5B7B9BCBEC0C2C5C7C9CCCED1D447
:102F7000D7D9DCDFE2E6E9ECF0F3F7FAFE00000077
:102F80004FEA400C0CF1807CBCF17E4F28BF7047AB
:102F9000B0F1C04000F0A7B990EA010F0CEAD113DC
:102FA00048BF42F48072624538BF634507D213F4CC
:102FB0007F0F16D080EA010000F00040704710B586
:102FC00000F04BF9097EFC3E00F005B880EA0100F4
:102FD00000F00040704780EA010000F0004000F07F
:102FE00082B912F47F0F04BF0248704780EA0100E3
:102FF00000F079B90000C07FC10DD1F19E0206DB5F
:103000004FEA002343F0004323FA02F070470042E6
:1030100007D54FEA4001B1F1FE4F02D24FF0000058
:10302000704710B500F019F94992248000207047CC
:103030006FEA20007047000010F0004148BF404296
:10304000B0FA80F310FA03F2C3F19D030BD051EAFA
:10305000C35101EB1220530638BF704700F1010045
:1030600008BF20F0010070474FF07E5209E011F0D8
:10307000004204D54042C1F1000138BF491E42F070
:103080007E520B0002F1706212BF20235FEA000142
:103090007047B1FA81FCA3EB0C0301FA0CF120FAA2
:1030A00003FC02EBC352C3F1200341EA0C0110FA06
:1030B00003FC5CEA416C42EB112018BF5FF0806CAE
:1030C00028BF20F001007047B0FA80F310FA03F235
:1030D000C3F19D030AD0D90501EB1220530638BF76
:1030E000704700F1010008BF20F0010070470000A8
:1030F00050EA010C00F113801CF5000F58BFBCF51D
:10310000000F01D48842704707D710F5000F58BF51
:1031100011F5000F15D488427047894270471CF59D
:10312000000F04D5BCF5000FF7D5814270474FF072
:10313000807C1CEB400F38BF1CEB410F01D2814259
:10314000704710B500F089F8922449004FF0005004
:103150004FF08051FFF782BE4FF47F0C1CEAD01273
:103160001EBF1CEAD11392EA0C0F93EA0C0F00F079
:10317000478090EA010F48BF42F480724FF0004C44
:103180004CEA00204CEA012102EB0302A0FB0113F0
:10319000A2F50002002918BF43F001035B0028BF1D
:1031A0004FEA330342EB22425FEA132C4CEBC2504E
:1031B0002EBFBCEB436FB2F57C0F70474FEA036C38
:1031C000BCF1004F08BF20F00100B2F57C0F38BF02
:1031D00070470BD582F0FF0212F5803FC8BF7047E1
:1031E00000F1C040D8BF00F00040704700F5000C6F
:1031F0005FEA4C0C48BF7047B0F1C04000F073B8B4
:1032000090EA010F0CEAD11348BF42F48072624584
:1032100038BF634504D280EA010000F000407047E7
:1032200010B500F01AF800BF8900013E00F007B8A1
:1032300000F009B85FEA410C5FEA1C6C08D080EA34
:10324000010000F050B85FEA400C5FEA1C6CF6D158
:103250004FF00040A0F5800070470EF1020E2EF0F6
:10326000030E5EF8044B244204D44FEA4102B2F14B
:103270007F4F11D84FEA4003B3F17F4F0CD80ED1E6
:103280004FEAD07CB2F17F4F0CEB4C0C0CF1020CEE
:1032900008BF4CEBD17C04E04FF0080C01E04FEA92
:1032A000D17C0CEB4C0324FA03F404F00704B4F1D2
:1032B000040C06D20EEB840CBDE810404CF0010C5F
:1032C0006047DFE80CF0070802024FF00040A0F56D
:1032D000800010BD0846420018BFD2F1807288BF3E
:1032E00000F0004010BDFF2141EAD050C0057047FA
:1032F00051EA000C00F113801CF5000F58BFBCF51B
:10330000000F01D48142704707D711F5000F58BF55
:1033100010F5000F15D481427047894270471CF5A3
:10332000000F04D5BCF5000FF7D5884270474FF069
:10333000807C1CEB410F38BF1CEB400F01D2884250
:10334000704780EA010081EA000180EA0100FFF78E
:10335000F8BE00004FEAD051002988BFD1F1FF022A
:1033600040F2758001F17D014FEA002070B54908F7
:1033700040F0004038BF40080EA2430E040CD25C5F
:1033800002FB02F304FB03F3C3F14043A3FB02542B
:10339000ED0D45EA442202FB02F3A0FB03546D420B
:1033A000C4F1404438BF641EA2FB05350023E2FB94
:1033B0000453EA0B42EA4342A0FB023212F14004FA
:1033C000A2F12103E40903F07F031F2B32D904EBA0
:1033D000C15070BDFEFAF7F3F0ECE9E6E4E1DEDCA3
:1033E000D9D7D4D2D0CECCCAC8C6C4C2C1BFBDBC46
:1033F000BAB9B7B6B4B3B2B0AFAEACABAAA9A8A7CE
:10340000A6A4A3A2A1A09F9E9E9D9C9B9A999897DB
:10341000979695949393929190908F8E8E8D8C8C9D
:103420008B8A8A8989888787868685848483838234
:103430008281818004FB04F6B6EB004603D5E642A8
:1034400048BF641CC3E7A64258BF641CBFE711F025
:10345000FF0F02D100F00040704710B5FFF7FDFEEE
:103460007FDBFFBE90EA010F48BF81F000413FF5CE
:1034700094AC421A04D882F00042A0EB020011443E
:103480004FEAD0524FF07F4C1CEA410FA2EBD153D0
:1034900018BF9CEA026F4AD04FF0004C4CEA002063
:1034A0004CEA012121FA03FCB0EB0C0C0FD412F012
:1034B000FE0F36D05FEA4C001DD5001240EBC25023
:1034C00038BF70471CF03F0F18BF70470BE0A2F1E8
:1034D00001025FEA1C2040EBC25038BF70471CF06D
:1034E0007F0F18BF7047C3F12003994014BF401EDF
:1034F00020F00100704780084FEA122308BF704790
:10350000B0FA80FCA2EB0C02CCF1280C60FA0CF0B3
:1035100093EA122F04BF00EBC25070474FEAC3700A
:103520007047130A5FEADC1008BF7047F6E79CEAB1
:10353000026F04D010EA5C0F08BF0020704710B57E
:10354000FFF78BFE40DFF63E81F0004070470CF045
:103550000F03092B08BF082000F051800A2B0BD065
:10356000082B18BF704708BF1CF0400F0AD04FF05F
:1035700000004FF0000170471CF0400F18BF4FF0E3
:10358000004070471CF0100F08D020F0704300F08E
:103590007F4242EAD3014FEA4370704700F0604037
:1035A00021F07F4242EA000201F07F4040EA72705F
:1035B00070474FF0FF0212EAD0521CBF92F0FF0397
:1035C0008B42C2BFD14200EBC1507047002A0AD0E3
:1035D000002B0BD0002900F00040A4BF40F0FE40BB
:1035E00040F40000704700F00040704743024FF085
:1035F0000B0C18BF4CF0806C7FF42AAC70471CF4A5
:10360000801F11D01CF4E02F03D06FEACC314900A9
:1036100070474FF04050EFF3008222F0704242EAD0
:10362000000282F3008870474FF0000070470102EB
:1036300002030405060708090A0B0C0D0E0F1010F3
:10364000010202030405060708090A0B0C0D0E0F00
:103650001010000000000000000001020304060733
:10366000080900000000010203040000000000003F
:103670000030F13D0070643E0000A33E0090CF3E5C
:103680000090F83E00400F3F00E0203F00000000A7
:1036900015B78337CDE37B380EE1C53860F6913836
:1036A000AF5F0F38E1BC3E3823F44739CC36000811
:1036B00000000020580000002801000824370008FE
:1036C00058000020200D0000440100080000000008
:1036D0000000000000000000000000000000404169
:1036E00000000000000000000000000000000000DA
:1036F00000000000000000000000000000000000CA
:1037000000000000000000000000000000000000B9
:103710000000000001000000100000000000000098
:0437200000127A0019
:04000005080000ED02
:00000001FF
