:020000040800F2
:100000005807002089010008C71A0008D7180008FF
:10001000C51A0008A10300082B1E000800000000FC
:100020000000000000000000000000005B1B000852
:10003000E103000800000000591B00085D1B0008D8
:10004000A3010008A3010008A3010008A301000800
:10005000A3010008A3010008A3010008A3010008F0
:10006000A3010008A3010008A3010008A3010008E0
:10007000A3010008A3010008A3010008A3010008D0
:10008000A3010008A301000891020008A3010008D1
:10009000A3010008A3010008A3010008A3010008B0
:1000A000A3010008A3010008A3010008A3010008A0
:1000B000DD1B0008A3010008A3010008A30100083C
:1000C000A3010008A3010008A3010008A301000880
:1000D000A3010008A3010008A3010008A301000870
:1000E000A3010008A3010008A301000800F002F822
:1000F00000F03AF80AA090E8000C82448344AAF188
:100100000107DA4501D100F02FF8AFF2090EBAE885
:100110000F0013F0010F18BFFB1A43F0010318473B
:100120004423000064230000103A24BF78C878C13B
:10013000FAD8520724BF30C830C144BF04680C60ED
:10014000704700000023002400250026103A28BF35
:1001500078C1FBD8520728BF30C148BF0B60704739
:100160001FB51FBD10B510BD00F058F81146FFF7C0
:10017000F7FF01F06BFE00F076F803B4FFF7F2FF33
:1001800003BC00F07DF8000009488047094800479B
:10019000FEE7FEE7FEE7FEE7FEE7FEE7FEE7FEE737
:1001A000FEE7FEE704480549054A064B7047000094
:1001B000D91B0008ED000008580100205807002056
:1001C00058030020580300204FF0000200B51346EA
:1001D00094469646203922BFA0E80C50A0E80C5067
:1001E000B1F12001BFF4F7AF090728BFA0E80C5018
:1001F00048BF0CC05DF804EB890028BF40F8042B11
:1002000008BF704748BF20F8022B11F0804F18BF7D
:1002100000F8012B7047704770477047754600F033
:100220002BF8AE4605006946534620F00700854688
:1002300018B020B5FFF7B6FFBDE820404FF000062C
:100240004FF000074FF000084FF0000B21F00701BE
:10025000AC46ACE8C009ACE8C009ACE8C009ACE801
:10026000C0098D46704710B50446AFF300802046A4
:10027000BDE81040FFF781BF00487047F400002040
:1002800001491820ABBEFEE72600020070470000BF
:10029000014800F0ACB900003400002070B50446FD
:1002A00000688168C943C90717D1816821F001013D
:1002B000816000F033FC05460AE000BF00F02EFC30
:1002C000401B022804D920688068C043C00706D0BC
:1002D00020688068C043C007F0D0002070BDA06ACD
:1002E00040F01000A062E06A40F00100E0620120EE
:1002F00070BD0000F8B500260446009600688168CD
:10030000C943C9072DD0816841F0010181601648B9
:1003100016490068B0FBF1F000E0401E0090002894
:10032000FBD100F0FBFB054616E000BF00F0F6FB3A
:10033000401B022810D920688068C043C0070BD03A
:10034000A06A40F01000A062E06A40F00100E062A4
:1003500084F824600120F8BD20688068C043C0078D
:10036000E4D10020F8BD00001C00002040420F0036
:10037000084810B5808801F02BFE074901F070FE97
:100380006FF00B0102F011F8BDE81040034901F0D5
:1003900067BE000000000020333353403D0ABF40D9
:1003A000FEE7000010B5FFF7E3FF094C0246E060EE
:1003B0000848A16801F090FB01F0EAFD064980B20F
:1003C000608009684863BDE81040044800F042BA04
:1003D00000000020200000206400002034000020E5
:1003E000704772B6FEE70000F8B500250446009598
:1003F00090F8240001280BD0012084F82400204626
:10040000FFF74CFF2046FFF775FF060002D050E0D3
:100410000220F8BDA06A20F4885040F00200A062DB
:10042000022000F019FC25490968B1FBF0F04000FA
:1004300000E0401E00900028FBD12068816841F058
:100440000801816000F06AFB074608E000F066FBE7
:10045000C01B0A2803D920688068000715D42068CB
:1004600080680007F2D42068816841F0040181604F
:1004700000F054FB074612E000F050FBC01B0A28B6
:100480000DD920688068400709D5A06A20F00200D5
:1004900040F01000A06284F824500120F8BD2068CC
:1004A00080684007E8D4A06A20F0020040F0010014
:1004B000A06284F824503046F8BD00001C000020E3
:1004C00070470000F8B50024009490F824202546D9
:1004D000012A12D0012280F824204A681F23072A0B
:1004E0000DD20668776B521E02EB820293409F4347
:1004F0000B6893401F43776319E00220F8BD06683C
:100500000D2A0AD2376BD21F02EB820293409F431F
:100510000B6893401F43376309E0F76A0D3A02EB1B
:10052000820293409F430B6893401F43F7620A681F
:10053000072306680A2A0AD3F7680A3A02EB42023E
:1005400093409F438B6893401F43F76008E03769EF
:1005500002EB420293409F438B6893401F433761F5
:100560000A68102A01D0112A20D1124B02689A423F
:1005700017D193681B0219D4936843F40003936066
:100580000968102912D10C490C4A0968B1FBF2F133
:1005900001EB8101490000E0491E00910029FBD1D7
:1005A00004E0816A41F020018162012480F8245036
:1005B0002046F8BD002401401C00002040420F00EE
:1005C00010B500680549884206D1054800F00CF8CE
:1005D000044988800120087010BD000000240140FB
:1005E00034000020000000200068C06C704770B527
:1005F0000446006806684568A90625D5B10723D5D5
:10060000A16AC90603D4A16A41F40071A16281689C
:10061000C1F34241072910D1217B71B9416821F012
:1006200020014160A06A20F48070A062A06AC0042A
:1006300003D4A06A40F00100A0622046FFF7C0FF8B
:1006400021686FF01200086028062ED570072CD59F
:10065000A06AC00603D4A06A40F40050A0622068DB
:100660008168C1F30231072909D04168490515D4D1
:100670008168C1F34241072910D1217B71B94168DA
:1006800021F080014160A06A20F48050A062A06A3D
:10069000C00503D4A06A40F00100A0622046FFF725
:1006A0000FFF21686FF00C00086068060CD5F0079A
:1006B0000AD0A06A40F48030A062204600F094F88E
:1006C00021686FF00100086070BD00002DE9F04165
:1006D0004FF0000704003D467ED0A06A002628B9EE
:1006E000E66284F82460204600F080F82046FFF798
:1006F000D5FDA16AC90600D420B1A06A40F010005F
:10070000A06269E0A16A21F4885141F00201A1626E
:100710006268E169237B0A4347EA43010A43A1680F
:100720004FF48077B94209D0012907D05FF000016A
:1007300094F814C0BCF1010F02D00AE03946F7E783
:10074000F3B1A36A43F02003A362E36A43F0010319
:10075000E3622368D3F804C02CF4694C4CEA010C22
:10076000C3F804C021688B68DFF870C003EA0C038B
:1007700013438B60A168B9420BD0012909D00CE06A
:10078000DFF85CC0A3690CEB43330B4343F4006117
:10079000DFE7218A0D05A5F580152168CB6A23F4D2
:1007A00070032B43CB62216889680E4B194091423C
:1007B00008D1E662A16A21F0020141F00101A162C3
:1007C000BDE8F081A06A20F0020040F01000A062B5
:1007D000E06A40F00100E0620120F1E7FDF7E1FF8F
:1007E00000E0FFFFFE0E1FFF7047000000B585B060
:1007F0000021009101910291039100681249884201
:1008000020D11248816941F400718161816901F44C
:1008100000710491816941F0040181618069694638
:1008200000F0040004900420009003200190084888
:1008300000F076F800220121122000F0DBF91220EE
:1008400000F0CAF905B000BD0024014000100240CC
:100850000008014070B5044690F8240001280DD02E
:10086000012084F824002046FFF744FD02004FF0E9
:10087000000005D084F82400104670BD022070BD31
:10088000A16A40F60163994341F48071A162224D4F
:1008900023682249AB4218D10E6816F4702F14D089
:1008A000A66A46F48016A6620E68760505D5A66A85
:1008B00026F4005646F48056A662A66AF6040AD5C7
:1008C000E66A26F00606E66206E0A66A26F48016C8
:1008D000A6625E68E9E7E06284F824006FF0020037
:1008E00018602068436843F02003436020688368F1
:1008F000C3F34243072B05D1A84208D1096811F47C
:10090000702F04D0816841F480118160B4E7816860
:1009100041F4A001F9E7000000280140042401404F
:100920002DE9F84FDFF8B8910024A9F1040B234614
:100930000F2709F1040AABF1040EC9E00125A54017
:100940002A40AA427DD1674ED1F804C0ACEB06081C
:10095000B44532D014DCBCF1030F3AD009DCBCF151
:10096000000F2AD0BCF1010F1CD0BCF1020F31D115
:100970001DE0BCF1110F17D0BCF1120F2AD119E004
:10098000B8F5881F19D006DCB8F5803F15D0B8F54A
:10099000801F1FD111E0B8F5001F0ED0B8F5041F5D
:1009A00018D10AE0CB6815E0CB681B1D12E0CB68BC
:1009B00008330FE0CB680C330CE08B682BB1012BB4
:1009C0004FF0080303D0456104E0042302E0056111
:1009D00000E00023FF2A01D8064601E000F10406EA
:1009E0004FEA840501D9A5F12005D6F8008007FA61
:1009F00005FC28EA0C0803FA05F548EA0508C6F8DC
:100A000000804D68ED0062D5374DAE6946F00106B5
:100A1000AE61AD6924F0030605F001050095334D84
:100A200006EB050CDCF80850A607360F07FA06F8A7
:100A300025EA0805DFF8B880404503D14FF00008EB
:100A400017E044E0DFF8AC80404502D14FF00108E8
:100A50000FE0DFF8A480404502D14FF0020808E023
:100A6000DFF89880404502D14FF0030801E04FF0D5
:100A7000040808FA06F848EA0508CCF808804D682A
:100A8000D9F80060ED024D4601D5164300E09643CB
:100A90002E604D68DAF80060AD02554601D5164368
:100AA00000E096432E604D68DBF80060AD035D46C4
:100AB00001D5164300E096432E604D68DEF80060D5
:100AC000ED03754601D5164300E096432E60641C85
:100AD0000D682A46E5407FF431AFBDE8F88F00008D
:100AE0000804014000001110001002400000014005
:100AF00000080140000C01400010014000140140BA
:100B0000C26821EA02030A4043EA024101617047D8
:100B10000AB1016170470904FBE7000001488068E1
:100B200070470000100000200248816802781144DC
:100B30008160704710000020074810B5016841F03F
:100B400010010160032000F075F80F2000F006F896
:100B500000F024F8002010BD0020024070B50D4DBB
:100B600004464FF47A712878B1FBF0F00A4909681D
:100B7000B1FBF0F000F094FB48B9102C07D2002232
:100B80002146501E00F036F800206C6070BD012038
:100B900070BD0000100000201C0000200C4808B5AB
:100BA000816941F001018161816901F001010091D8
:100BB000C16941F08051C161C06900F0805000906E
:100BC0000448416821F0E06141F00071416008BDD6
:100BD0000010024000000140002809DB00F01F0265
:100BE000012191404009800000F1E020C0F800118F
:100BF00070470000F0B40E4B1B680C46C3F3022391
:100C0000C3F10705042D00D90425191D072901D2B8
:100C1000002300E0DB1E012606FA05F1491E2140F3
:100C200099409E40761E16403143F0BC01F0FEB85C
:100C30000CED00E0064900F0070208684FF6FF03DC
:100C4000184040EA0220034A104308607047000041
:100C50000CED00E00000FA0510B501460020234C21
:100C6000012922D0022939D010291DD161682268BA
:100C7000D20119D51E48C1F38342C903805C0AD54D
:100C800061681B4AC1F34041921E515C194AB2FB94
:100C9000F1F1484301E0184948436168490203D42F
:100CA00040000321B0FBF1F010BD226AC2F3012124
:100CB000012903D1920701D5C80310BD022905D12E
:100CC000626A920702D549F6404010BD0329FCD163
:100CD00021688903F9D54FF2244010BD00F01AF9BC
:100CE0006168C1F38131491C4900DBE70010024013
:100CF0003A24000800127A0000093D002DE9F8436B
:100D000005460078354CC00754D0E0690026C00085
:100D100008D4E06940F08050E061E069012600F00D
:100D2000805000902E480168C90512D401688046A1
:100D300041F480710160FFF7F1FE074605E000BF56
:100D4000FFF7ECFEC01B642823D8D8F80000C005CC
:100D5000F6D5206A10F4407021D0A98801F44071C2
:100D600081421CD0206A1F49012220F440700A6091
:100D700000220A602062C00711D0FFF7CFFE0746AD
:100D800041F2883808E000BFFFF7C8FEC11B4145AB
:100D900002D90320BDE8F883206A8007F4D5206AD1
:100DA000696820F44070084320621EB1E06920F0B9
:100DB0008050E0612878800705D56068A96820F434
:100DC0004040084360602878C00605D56068E9683F
:100DD00020F48000084360600020DBE70010024040
:100DE00000700040400442422DE9F0470F460500E4
:100DF00061D0434E306800F00700B84209D2306835
:100E000020F0070038433060306800F00700B84237
:100E100051D128683B4C810712D5400703D5606843
:100E200040F4E06060602878000703D5606840F413
:100E3000605060606068A96820F0F000084360605E
:100E40002878C00728D06868012810D021680228B7
:100E500010D0890700292EDA616821F003010143CF
:100E60006160FFF75BFE804641F288390DE0216842
:100E70008903EFE78901EDE7FFF750FEA0EB0801DA
:100E8000494502D90320BDE8F0876068696800F031
:100E90000C00B0EB810FEFD1306800F00700B842D2
:100EA0000BD9306820F0070038433060306800F01C
:100EB0000700B84201D00120E5E72878400705D5B2
:100EC0006068E96820F4E060084360602878000703
:100ED00006D56068296920F4605040EAC10060606E
:100EE00000F028F86168084AC1F30311515CC8405A
:100EF0000649086006480068FFF730FE0020C2E798
:100F000000200240001002404A2400081C0000207B
:100F1000140000200448054900684968044AC1F3E8
:100F2000C221515CC84070471C00002000100240E4
:100F30005A2400080E4A51680E4801F00C03042B95
:100F400011D0082B0FD10C48C1F38343C903C05CF7
:100F50000AD55168084AC1F34041921E515C054AC6
:100F60005043B0FBF1F0704704494843704700001C
:100F70000010024000127A002824000800093D00F9
:100F80002DE9F84F040070D02078C04DC00749D03B
:100F90006868C0F38100012807D06868C0F3810049
:100FA000022809D16868C00306D52868800339D5AE
:100FB00060680028E7D035E06068B0F5803F0BD06E
:100FC00010B1B0F5A02F11D0286820F4803028602F
:100FD000286820F4802002E0286840F480302860EF
:100FE000606890B1FFF79AFD06460AE0286840F471
:100FF00080202860F0E700BFFFF790FD801B642889
:1010000073D828688003F7D50CE0FFF787FD064604
:1010100005E000BFFFF782FD801B6428F0D8286838
:101020008003F7D420789A4E80074FF001094FF0E3
:10103000000839D5686810F00C0F07D06868C0F355
:101040008100022809D16868C00306D42868800797
:1010500014D52069012808D110E02069B0B1C6F884
:101060000090FFF75BFD074605E00AE1FFF756FD3C
:10107000C01B0228C4D828688007F7D52868616992
:1010800020F0F80040EAC10028600DE0C6F80080BA
:10109000FFF744FD074604E0FFF740FDC01B0228B0
:1010A00023D828688007F7D4207800072CD5794802
:1010B000A169D9B1C0F80090FFF730FD074604E000
:1010C000FFF72CFDC01B02280FD8686A8007F7D5F0
:1010D00071484FF4FA510068B0FBF1F0009000BF86
:1010E0000098411E0091FAD20EE080E0C0F8008026
:1010F000FFF714FD074604E0FFF710FDC01B0228B0
:1011000075D8686A8007F7D42078400760D5E86909
:101110000027C00008D4E86940F08050E861E86921
:10112000012700F0805000905C480168C90513D485
:101130000168834641F480710160FFF7EFFC82464D
:1011400006E000BFFFF7EAFCA0EB0A0064284ED8D7
:10115000DBF80000C005F5D5E06801280AD008B129
:10116000052813D0286A20F001002862286A20F0A0
:10117000040002E0286A40F001002862E06841F2C1
:10118000883B98B1FFF7CAFC82460BE0286A40F022
:1011900004002862EEE700BFFFF7C0FCA0EB0A01E5
:1011A00059455AD8286A8007F6D50CE0FFF7B6FCF7
:1011B000824605E0FFF7B2FCA0EB0A0159454CD886
:1011C000286A8007F6D41FB1E86920F08050E861F2
:1011D000E06988B36968C1F38101022944D002281B
:1011E000C6F8608004D0FFF799FC044638E034E08C
:1011F000FFF794FC074604E0FFF790FCC01B0228B1
:101200002BD828688001F7D4206AB0F5803F05D13B
:101210006868A16820F4003008436860D4E90801D8
:101220000843696821F4741108436860C6F8609047
:10123000FFF774FC044606E025E000BFFFF76EFCF4
:10124000001B022809D828688001F7D51BE000BFE1
:10125000FFF764FC001B022802D90320BDE8F88FC9
:1012600028688001F4D40EE00128F7D06868226A6B
:1012700000F48031914204D1616A00F47010884218
:1012800001D00120EAE70020E8E70000001002405A
:1012900000004242800442421C00002000700040D6
:1012A00010B5401EB0F1807F01D3012010BD4FF07A
:1012B000E02460610F21601700F0B8FD0020A061FC
:1012C00007202061002010BD7047704710B590F8CE
:1012D0003C20012A22D0012280F83C20CA688C6878
:1012E00022F4407222434C6822F4806222430C684C
:1012F00022F4006222430C6922F4805222434C699A
:1013000022F400522243C969002322F480420A4396
:1013100001684A6480F83C30002010BD022010BDF6
:1013200070B590F83C20012A26D0012480F83C407A
:10133000022280F83D2003685A689D6822F07006FA
:101340000A6832435A600D4B02689A4208D0B2F1E3
:10135000804F05D00A4B9A4202D00A4B9A4204D1E0
:10136000496825F080031943916080F83D400021D1
:1013700080F83C10084670BD022070BD002C014072
:10138000000400400008004010B5040003D094F8A9
:101390003D0010B107E0012010BD002084F83C00A2
:1013A000204600F01FF8022084F83D00211D20682F
:1013B00000F01AFC012084F8460084F83E0084F80E
:1013C0003F0084F8400084F8410084F8420084F82B
:1013D000430084F8440084F8450084F83D00002070
:1013E00010BD000008B5114A01681148914208D1AA
:1013F000816941F400618161806900F400600090BE
:1014000008BDB1F1804FFBD1C16941F00101C1615B
:10141000C069002200F00100009011461C20FFF777
:10142000E9FBBDE808401C20FFF7D6BB002C0140BB
:101430000010024090F83D10012901D001207047B2
:10144000022180F83D100168CA6842F00102CA60BA
:1014500000680B49884208D0B0F1804F05D0094997
:10146000884202D00849884204D1816801F007010E
:10147000062903D0016841F0010101600020704796
:10148000002C0140000400400008004070B50446F4
:1014900090F83C000025012817D0012684F83C6014
:1014A000022084F83D002068826822F0770222F44E
:1014B0007F4282600868502838D00DDC20284FD049
:1014C00005DC90B3102811D14AE0022070BD30280D
:1014D00046D040280AD13BE060282FD070280DD09C
:1014E000B0F5805F03D0B0F5005F12D0012584F81D
:1014F0003D60002084F83C00284670BDCB68D1E9EF
:101500000121206800F0B9FB2068816841F0770173
:1015100009E0CB68D1E90121206800F0AEFB20682A
:10152000816841F480418160E1E719E0CA68496857
:10153000206800F057FC5021206806E0CA6849681E
:10154000206800F060FC6021206800F0A0FBCEE77E
:10155000CA684968206800F045FC40212068F4E72B
:10156000226801461046F0E770472DE9F041044635
:101570000068C66805694FF00007A90713D5B107D1
:1015800011D5F91E0161012020772068806980074C
:10159000204602D0FFF7E8FF04E000F0A5F820465F
:1015A00000F037F92777680716D5700714D521683A
:1015B0006FF004000861022020772068806910F431
:1015C000407F204602D0FFF7CFFF04E000F08CF808
:1015D000204600F01EF92777280715D5300713D5C8
:1015E00021686FF008000861042020772068C06936
:1015F0008007204602D0FFF7B7FF04E000F074F840
:10160000204600F006F92777E80616D5F00614D52F
:1016100021686FF010000861082020772068C069F9
:1016200010F4407F204602D0FFF79EFF04E000F058
:101630005BF8204600F0EDF82777E80708D0F007C0
:1016400006D021686FF001000861204600F030F9F3
:10165000280608D5300606D521686FF0800008619D
:101660002046FFF731FE680608D5700606D52168CA
:101670006FF040000861204600F02CF9A8060AD55A
:10168000B00608D521686FF0200008612046BDE84B
:10169000F041FFF71ABEBDE8F081000000B585B04B
:1016A0000021009101910291039100680B49884249
:1016B00012D10B48816941F004018161806969465A
:1016C00000F0040004904FF480700090022001901C
:1016D00003900448FFF724F905B000BD002C014039
:1016E0000010024000080140704770B5044690F8B1
:1016F0003C0000260D4601280FD0012084F83C0054
:101700006AB1042A1DD0082A2FD00C2A3FD0012606
:10171000002084F83C00304670BD022070BD206877
:1017200000F0BEFA2068816941F0080181612068FB
:10173000816921F004018161206881692A6911436E
:1017400011E0206800F0D4FA2068816941F400615A
:1017500081612068816921F48061816120688169EB
:101760002A6941EA02218161D2E7206800F0ECFA9F
:101770002068C16941F00801C1612068C16921F098
:101780000401C1612068C1692A69114311E0206820
:1017900000F006FB2068C16941F40061C161206866
:1017A000C16921F48061C1612068C1692A6941EA87
:1017B0000221C161ACE710B5040003D094F83D00EC
:1017C00010B107E0012010BD002084F83C00204645
:1017D00000F01EF8022084F83D00211D206800F072
:1017E00003FA012084F8460084F83E0084F83F00A4
:1017F00084F8400084F8410084F8420084F84300F3
:1018000084F8440084F8450084F83D00002010BDB1
:101810007047704710B50446022249B104290ED022
:10182000082913D094F84100012816D0012010BDDA
:1018300094F83E000128F9D184F83E200FE094F896
:101840003F000128F2D184F83F2008E094F84000DE
:101850000128EBD184F8402001E084F841200122E6
:10186000206800F0FDF90F492068884203D1426CDE
:1018700042F4004242642068884208D0B0F1804FB0
:1018800005D00949884202D00849884204D18168BC
:1018900001F00701062903D0016841F00101016050
:1018A000002010BD002C0140000400400008004052
:1018B00010B50068B0F1804F08D1FEF773FDBDE8A8
:1018C00010404FF400510248FFF71AB910BD000054
:1018D000001001407047FEE73EB50021114800911D
:1018E00001910F4A02910260816001730175012428
:1018F0004FF460220461C2614160FEF7E7FE08B167
:10190000FEF76FFD0220CDE9000405200290694634
:101910000448FEF7D7FD002801D0FEF762FD3EBD6A
:10192000002401403400002070B586B0002418481F
:101930000094019402940394816941F01001816143
:10194000816901F010010491816941F020018161F8
:10195000816901F020010491816941F004018161F4
:1019600080690C4E00F004004FF4005504900022F2
:1019700029463046FFF7CCF801200095CDE9010457
:101980000220039069463046FEF7CAFF06B070BDDC
:10199000001002400010014010B596B000240F94D2
:1019A00010941194129413941C2108A81494FEF717
:1019B0000BFC20216846FEF707FC28482649C0E9B1
:1019C000001440F63F31C0E9024104614461846182
:1019D000FFF7DAFC08B1FEF704FD4FF480500F90DA
:1019E0000FA91E48FFF752FD08B1FEF7FAFC1B488D
:1019F000FFF7E1FE08B1FEF7F4FC139413A91748B2
:101A00001494FFF78DFC08B1FEF7EBFC6020CDE9E4
:101A100008040A940B940C940D94002208A90F4812
:101A20000E94FFF762FE08B1FEF7DBFC00944FF462
:101A30000050CDE90440029401940394694607489C
:101A40000794FFF743FC08B1FEF7CBFC0348FFF710
:101A500025FE16B010BD0000002C014064000020DF
:101A600010B586B0002416480094019402940394A3
:101A700004944FF08041059401604721C0E90114AE
:101A800040F2F311C0E903148461FFF77DFC08B153
:101A9000FEF7A7FC4FF48050009069460848FFF716
:101AA000F5FC08B1FEF79DFC049404A904480594D4
:101AB000FFF736FC002801D0FEF793FC06B010BDFE
:101AC000AC000020FEE7FEE710B5029CE0E8021241
:101AD000002180E81A0010BD2DE9F0410B460446B4
:101AE0001146184600F0BAFB0646D4E9010100F0A1
:101AF000B7FA05463146206800F0B2FA294600F0F0
:101B0000D3F907460546E16800F076FB01D2E568A7
:101B100005E02846216900F06FFA00D22569B6F584
:101B2000000F04DB3846E16800F066FA07D316F1CF
:101B3000FF4F0CD33846216900F05EFB07D2054900
:101B4000304600F08DFAA16800F0AEF9A06028469A
:101B5000BDE8F0816F12033A70477047FEF7E4BFAB
:101B600030B593B028216846FEF72EFB14210AA851
:101B7000FEF72AFB002501200F9510951195010411
:101B800012958DE8230004904FF4E010CDE9081081
:101B9000022407946846FFF7F3F908B172B6FEE72E
:101BA0000AA90F2081E831004FF48060CDE90D05CE
:101BB00002210AA8FFF718F908B172B6FEE74FF440
:101BC000004011900F940FA8FFF798F8002801D05B
:101BD00072B6FEE713B030BD704700000148FFF752
:101BE000C4BC0000AC000020F0B50268194B1A4CD0
:101BF0001A4D4FF08047984205D0B84203D0A0421A
:101C000001D0A84203D122F070064A6832439842BC
:101C100005D0B84203D0A04201D0A84203D122F49B
:101C20004074CA6822434C6922F080022243026059
:101C30008A68C2620A688262984201D109690163B6
:101C4000012141610169C90703D0016921F0010146
:101C50000161F0BD002C014000040040000800407C
:101C600010B501F01F030121046A99408C430462FE
:101C7000016A9A401143016210BD10B5846842EABE
:101C8000032224F47F440A432243826010BD826809
:101C900022F070020A4342F00701816070470000A1
:101CA00030B5036A026A22F0010202624268846966
:101CB00024F073050C682C4323F002058B682B433A
:101CC0000A4DA8420BD123F00805CB6822F44072DC
:101CD0002B434D6923F0040315438A692A4342606C
:101CE000846149684163036230BD0000002C0140FB
:101CF00030B5026A036A23F0100303624368846903
:101D00000D6824F4E64444EA05248D6822F020029C
:101D100042EA05120B4DA8420ED1CD6822F0800296
:101D200042EA05124D6923F4406343EA85038D6955
:101D300022F0400243EA850343608461496881637D
:101D4000026230BD002C014030B5036A026A22F401
:101D5000807202624268C46923F4007324F0730540
:101D60000C682C438D6843EA05230C4DA8420ED124
:101D7000CD6823F4006343EA05234D6922F4405201
:101D800042EA05128D6923F4806342EA051242603B
:101D9000C4614968C163036230BD0000002C01408A
:101DA00030B5046A026A22F4805202624268C36952
:101DB0000D6823F4E64343EA05238D6824F40054B8
:101DC00044EA0534064DA84204D14D6922F480420C
:101DD00042EA85124260C36149680164046230BD11
:101DE000002C014010B5036A046A24F00104046267
:101DF000846924F0F00444EA021423F00A020A433E
:101E00008461026210BD10B5036A046A24F01004F4
:101E10000462846923F0A00324F4704444EA02328B
:101E200043EA01118261016210BDFEE70907090E54
:101E3000002804DB00F1E02080F80014704700F077
:101E40000F0000F1E02080F8141D704708B5FEF780
:101E500073FEFFF785FEFFF767FDFFF79DFDFFF7B8
:101E60003BFDFFF7FDFD00200090084B084A0949A3
:101E70000948FFF729FE00210848FFF7CBFC084876
:101E8000FEF7B2FA0748FFF7D5FAFEE7000034453F
:101E900000001644000020422000002064000020C2
:101EA00034000020AC00002090EA010F48BF81F010
:101EB000004100F1DA81421A3CBF801A89184FEACA
:101EC000D0524FF07F4C1CEA410FA2EBD15318BF08
:101ED0009CEA026F00F03B804FF0004C4CEA00207F
:101EE0004CEA012121FA03FC10EB0C0C1ED202F18A
:101EF000FF325FEA1C2040EBC25038BF70471CF035
:101F00007F0F4FEA400C18BFBCF17F4F38BF7047BE
:101F1000C3F12003994008BF20F00100BCF17F4FBE
:101F200038BF7047A0F1C04000F061B94FEA3C00F3
:101F3000000A40EBC25028BF1CF0FF0F4FEA400CD4
:101F4000E6D018BFBCF17F4F38BF7047EAE79CEA84
:101F5000026F05D010EA5C0F08BF00F00040704728
:101F600010B500F0FEF800BF64FBBE3E014800F073
:101F7000EAB900BF0000C07F401058BFC0F1404028
:101F8000491058BFC1F140418142EFF300807047D2
:101F9000C10DD1F19E0206DB4FEA002343F000435E
:101FA00023FA02F07047004207D54FEA4001B1F131
:101FB000FE4F02D24FF00000704710B500F0D1F88C
:101FC00049922480002070476FEA2000704700008B
:101FD000B0FA80F310FA03F2C3F19D030AD0D905D9
:101FE00001EB1220530638BF704700F1010008BF13
:101FF00020F001007047000050EA010C00F113804E
:102000001CF5000F58BFBCF5000F01D48842704783
:1020100007D710F5000F58BF11F5000F15D48842EF
:102020007047894270471CF5000F04D5BCF5000FBE
:10203000F7D5814270474FF0807C1CEB400F38BFD2
:102040001CEB410F01D28142704710B500F089F8B6
:10205000922449004FF000504FF08051FFF78CBFA1
:102060004FF47F0C1CEAD0121EBF1CEAD11392EA77
:102070000C0F93EA0C0F00F0478090EA010F48BF65
:1020800042F480724FF0004C4CEA00204CEA0121EF
:1020900002EB0302A0FB0113A2F50002002918BF06
:1020A00043F001035B0028BF4FEA330342EB2242B7
:1020B0005FEA132C4CEBC2502EBFBCEB436FB2F562
:1020C0007C0F70474FEA036CBCF1004F08BF20F053
:1020D0000100B2F57C0F38BF70470BD582F0FF02CC
:1020E00012F5803FC8BF704700F1C040D8BF00F074
:1020F0000040704700F5000C5FEA4C0C48BF704789
:10210000B0F1C04000F073B890EA010F0CEAD113AF
:1021100048BF42F48072624538BF634504D280EA0A
:10212000010000F00040704710B500F01AF800BF41
:102130008900013E00F007B800F009B85FEA410CE1
:102140005FEA1C6C08D080EA010000F050B85FEA3A
:10215000400C5FEA1C6CF6D14FF00040A0F5800007
:1021600070470EF1020E2EF0030E5EF8044B24426F
:1021700004D44FEA4102B2F17F4F11D84FEA400335
:10218000B3F17F4F0CD80ED14FEAD07CB2F17F4F24
:102190000CEB4C0C0CF1020C08BF4CEBD17C04E0B6
:1021A0004FF0080C01E04FEAD17C0CEB4C0324FA11
:1021B00003F404F00704B4F1040C06D20EEB840C13
:1021C000BDE810404CF0010C6047DFE80CF0070858
:1021D00002024FF00040A0F5800010BD084642000A
:1021E00018BFD2F1807288BF00F0004010BDFF21FF
:1021F00041EAD050C005704751EA000C00F113804D
:102200001CF5000F58BFBCF5000F01D48142704788
:1022100007D711F5000F58BF10F5000F15D48142F4
:102220007047894270471CF5000F04D5BCF5000FBC
:10223000F7D5884270474FF0807C1CEB410F38BFC8
:102240001CEB400F01D28842704780EA010081EA0E
:10225000000180EA0100FFF7F8BE000090EA010FDC
:1022600048BF81F000413FF526AE421A04D882F003
:102270000042A0EB020011444FEAD0524FF07F4CD5
:102280001CEA410FA2EBD15318BF9CEA026F4AD05F
:102290004FF0004C4CEA00204CEA012121FA03FCEB
:1022A000B0EB0C0C0FD412F0FE0F36D05FEA4C00EE
:1022B0001DD5001240EBC25038BF70471CF03F0FD5
:1022C00018BF70470BE0A2F101025FEA1C2040EB4F
:1022D000C25038BF70471CF07F0F18BF7047C3F162
:1022E0002003994014BF401E20F001007047800871
:1022F0004FEA122308BF7047B0FA80FCA2EB0C0231
:10230000CCF1280C60FA0CF093EA122F04BF00EB1A
:10231000C25070474FEAC3707047130A5FEADC107F
:1023200008BF7047F6E79CEA026F04D010EA5C0F22
:1023300008BF0020704710B5FFF713FF40DFF63EDF
:1023400081F0004070470CF00F03092B08BF0820F4
:1023500000F051800A2B0BD0082B18BF704708BF24
:102360001CF0400F0AD04FF000004FF00001704702
:102370001CF0400F18BF4FF0004070471CF0100FCA
:1023800008D020F0704300F07F4242EAD3014FEAC8
:102390004370704700F0604021F07F4242EA000243
:1023A00001F07F4040EA727070474FF0FF0212EA7E
:1023B000D0521CBF92F0FF038B42C2BFD14200EB50
:1023C000C1507047002A0AD0002B0BD0002900F022
:1023D0000040A4BF40F0FE4040F40000704700F011
:1023E0000040704743024FF00B0C18BF4CF0806C5C
:1023F0007FF4BCAD70471CF4801F11D01CF4E02F9B
:1024000003D06FEACC31490070474FF04050EFF3F2
:10241000008222F0704242EA000282F30088704794
:102420004FF0000070470102020304050607080987
:102430000A0B0C0D0E0F1010010202030405060713
:1024400008090A0B0C0D0E0F101000000000000010
:102450000000010203040607080900000000010251
:102460000304000084240008000000202000000075
:1024700028010008A42400082000002038070000DC
:10248000440100080000000000000000000040417E
:10249000000000000100000010000000000000002B
:0424A00000127A00AC
:04000005080000ED02
:00000001FF
