:020000040800F2
:1000000098070020A1010008572D0008372A000892
:10001000552D0008151400087B330008000000006F
:10002000000000000000000000000000AB300008ED
:100030007514000800000000A9300008AD30000869
:10004000BB010008BB010008BB010008BB010008A0
:10005000BB010008BB010008BB010008BB01000890
:10006000BB010008BB010008BB010008BB01000880
:10007000BB010008BB010008BB010008BB01000870
:10008000BB010008BB010008F5120008BB01000815
:10009000BB010008BB010008BB010008BB01000850
:1000A000BB010008BB010008BB010008BB01000840
:1000B0002D310008BB010008BB010008BB0100088E
:1000C000BB010008BB010008BB010008BB01000820
:1000D000BB010008BB010008BB010008BB01000810
:1000E000BB010008BB010008BB01000800F002F8DA
:1000F00000F047F80AA090E8000C82448344AAF17B
:100100000107DA4501D100F03CF8AFF2090EBAE878
:100110000F0013F0010F18BFFB1A43F0010318473B
:100120004C4B00006C4B0000103A24BF78C878C1DB
:10013000FAD8520724BF30C830C144BF04680C60ED
:10014000704700000023002400250026103A28BF35
:1001500078C1FBD8520728BF30C148BF0B60704739
:10016000662903F0D485002070471FB500F080FB9E
:1001700004000020002103F0B9F9E0601FBD10B5B4
:1001800010BD00F079FC1146FFF7EFFF03F04CF9CA
:1001900000F097FC03B4FFF7F2FF03BC00F0DAFCB9
:1001A0000948804709480047FEE7FEE7FEE7FEE70B
:1001B000FEE7FEE7FEE7FEE7FEE7FEE70448054947
:1001C000054A064B7047000029310008ED00000881
:1001D0009801002098070020980300209803002031
:1001E0000FB41CB50C0007AA009001D02044401E9B
:1001F000074B7B4469460190069800F018FB002CE1
:1002000003D06946002000F025FB1CBC5DF814FB00
:100210006906000070B5044685690068C10601D50D
:10022000302600E02026C00707D070BDD4E90121A8
:1002300030469047206A401C20626D1EF6D570BD86
:1002400070B5044685690078C00707D170BDD4E950
:10025000012120209047206A401C20626D1EF6D5A7
:1002600070BD00002DE9F05F894604464FF0000A9A
:10027000DFF824B1FB44C0F820A02046E16888479D
:1002800000287DD0252806D0D4E901219047206A96
:10029000401C2062F1E700255F462046E168884760
:1002A0002028064607DB312E05D2B81910F8200C9D
:1002B00008B10543F1E7A80701D525F00405C4F806
:1002C0001CA00027C4F818A02A2E09D0304603F03D
:1002D000A3F838B304EB8708303EC8F8186019E07B
:1002E00059F8041B204604EB87029161E1688847B6
:1002F000012F064618D1E069002820DA25F02005F4
:100300001DE0D8F8180000EB800006EB4000303804
:10031000C8F818002046E1688847064603F07CF8D4
:100320000028EED1012F0AD02E2E08D12046E168F8
:1003300088477F1C0646022F45F02005C4DBA069D4
:10034000002803DA404245F00105A061E80701D02A
:1003500025F01005A6B1A6F14100192802D82036D3
:1003600045F400654A463146204625604D46FFF774
:10037000F7FE60B1012807D0ED1D25F0070000E071
:1003800007E000F1080978E705F1040975E7304650
:100390007AE7206ABDE8F09F4E4900004FF0000266
:1003A00000B5134694469646203922BFA0E80C506B
:1003B000A0E80C50B1F12001BFF4F7AF090728BF46
:1003C000A0E80C5048BF0CC05DF804EB890028BFC2
:1003D00040F8042B08BF704748BF20F8022B11F0EB
:1003E000804F18BF00F8012B704770477047704767
:1003F00010B500F041FA006810BD10B5044600F0D9
:100400003BFA046010BD70472DE9FF4F0C461E46B5
:100410004FF0FF378BB0D2E90001DDF860800A9021
:100420008A46C1F30A5505B93D46002108464FF0FA
:100430000000BAF1000F00F4400005DA00EB800084
:100440004FF4400101EA50004FEA9059B9F1010F11
:1004500000DDB9460A9850EA4A000ED044F6105022
:10046000A5F2FF3545432F14B8F1000F1ED0754299
:10047000291E1EDDC9F100021CE0B8F1010F4FF08A
:10048000000001D0302103E0F24305E02154401C7C
:10049000B042FBDB30460022002121540B99C1F809
:1004A0000880C1E900200FB0BDE8F08FBD1B6D1CB6
:1004B000DEE74A4600DA694206A800F067FA06ABB2
:1004C00093E8070003AB83E8070050460A9900F061
:1004D00048FB8DE80700A0F500501F3800900398F6
:1004E000002D0ADD42F21F014A460844002303A9F9
:1004F0000390684600F0B1FD09E0A0F500504A46BF
:100500001F38002303A90390684600F0BBFD8DE867
:1005100007000004000C03D04FF0FF30410800E05A
:100520001046B8F1000F03D00022009215461EE0DD
:10053000751E05D400F0A4F9303262556D1EF9D550
:10054000B3460122084302D000227F1C04E0207839
:10055000302801D100227F1E002A099784D01DE097
:10056000112D07DA00F08CF9303262556D1C50EA1B
:100570000102F5D1084302D00098C8B10EE0002175
:10058000681E05E0235C625C63542254401E491CD3
:100590008142F7DBAB46A81B401E0990002004F8FF
:1005A0000B000B98099AC0F80880C0E9002B7AE785
:1005B00011264FF0000857E72DE9F04F8846044612
:1005C000D21D22F0070191B0D1E90001CDE90A0165
:1005D00002F0FEFE02460B98C00F01D02D2007E06E
:1005E0002068810701D52B2002E0202101EAC0000C
:1005F000032A099001D0072A05DB0346414620461D
:1006000000F084F90BE12078800601D5E06900E074
:100610000620B8F1650F814606D0B8F1660F18D0F4
:10062000B8F1670F70D131E00020B9F1110F0090DF
:1006300001DB112301E009F101030AAA01A90CA8B9
:10064000FFF7E2FEDDE90C70002609F101058346A3
:1006500047E001204B4600904FF000470AAA01A94D
:100660000CA8FFF7D1FEDDE90DB00C995D46002620
:1006700010B909F101000D18B9EB050003D4C0F160
:10068000FF3609F10105A5EB09002BE0B9F1010FD7
:1006900001DA4FF001090020B9F1110F009048462E
:1006A00001DD112300E003460AAA01A90CA8FFF707
:1006B000ABFEDDE90C704D4600268346207800072E
:1006C0000AD4AB4500DA5D4601A8012D04DD4119CD
:1006D00011F8011C302907D04F4502DA17F1040F39
:1006E00004DA012082460FE06D1EEEE7002F02DCE7
:1006F000ED1B3E4403E0781CA84200DD7D1CB81BC6
:1007000000F1010A4FF000472078000703D4AA4502
:1007100001DB4FF0FF3A0021B7F1004F0DF1430824
:100720008DF8431024D002202B23002F01DA7F42C2
:100730002D230A21021EA0F1010000DC5FB197FB0E
:10074000F1FC97FBF1F201FB1C7C17460CF1300C1D
:1007500008F801CDEEE7A8F1010003702188090532
:1007600001D5452100E06521A0F1010800F8011C38
:1007700009980FA9A1EB0807FF1D00B1012041193D
:1007800001EBEA70A1693844081A401EA061207884
:10079000C00602D42046FFF73DFD099828B1D4E9F0
:1007A00001219047206A401C20622078C00622D593
:1007B0002046FFF72FFD1EE0002E04DBB34502DDCF
:1007C00001A8805D00E03020D4E901219047206A33
:1007D000401C2062761CAAF101005FEA000A0AD1DF
:1007E00000F046F8C0680168405CD4E901219047F8
:1007F000206A401C2062281EA5F10105DCDC07E010
:10080000D4E9012118F8010B9047206A401C2062AE
:10081000381EA7F10107F3DC2046FFF711FD032086
:1008200011B041E601694A1C02610878704700B5C1
:100830008FB0CDE901310021059105497944CDE919
:10084000031011466846FFF70DFD0FB000BD000014
:10085000E5FFFFFF0A6802F8010B0A607047D1E963
:1008600000239A4202D2531C0B60107070470000A4
:1008700000487047540100200048704734010020B0
:1008800030B5B0F10A024FEA900E71F100034EEA62
:10089000817EB0EB0E0061EB91014FEA101E4EEA33
:1008A000017E10EB0E0041EB11114FEA102E4EEAC3
:1008B000016E10EB0E0041EB11214FEA104E4EEA93
:1008C000014E10EB0E0041EB1141401841F10001C7
:1008D0004FEAD00040EA41704FEAD10110EB8005A9
:1008E0004FEA810444EA907444EB01046D1944EB2F
:1008F0000404521BA3414FF0000348BF0A3200D545
:1009000030BD401C41F1000130BD00002DE9F04137
:100910001F46044603260168072A01F4006004DB31
:1009200008B116A505E016A503E008B115A500E07D
:1009300015A521F010002060A069C01EA0610FB1B4
:10094000401EA0612046FFF765FC4FB1D4E90121AC
:1009500038469047206A401C2062C01C206206E096
:10096000206AFAE7D4E9012115F8010B9047761EB9
:10097000F8D22046FFF764FCBDE8F0814E414E00FE
:100980006E616E00494E4600696E66002DE9F047C3
:10099000814616468AB0354878440DC88DE80D006A
:1009A00032487844801C03AC0DC884E80D0041F641
:1009B0009B300844372190FBF1F290FBF1F5A5F153
:1009C000800501FB12041B3C02D56442012000E0BB
:1009D0000020DFF898A080460027FA44AAF1BE0A5A
:1009E0000EE0E0070AD03246684607EB47010123D4
:1009F0000AEB810100F046FB8DE8070064107F1CC4
:100A0000002CEED1194F7F44AE3F19E0E80715D016
:100A100007EB04100DF1180A90E80E008AE80E00AA
:100A2000C068F04201D1981908903246012306A906
:100A300003A800F027FB03AB83E807006D10641CDC
:100A4000002DE3D14FF0010332466946B8F1000FA3
:100A500003A802D000F001FB01E000F013FBC9E99C
:100A60000001C9F808200AB0BDE8F087B8420000CC
:100A700000487047340100207546FFF7F9FFAE4685
:100A800005006946534620F00700854618B020B59A
:100A9000FFF794FBBDE820404FF000064FF0000741
:100AA0004FF000084FF0000B21F00701AC46ACE816
:100AB000C009ACE8C009ACE8C009ACE8C0098D4683
:100AC000704710B50446AFF300802046BDE81040E3
:100AD000FFF760BB4FF0013C50F8042B51F8043B8A
:100AE0009A4221D1A2EB0C03934313EACC1317D102
:100AF00050F8042B51F8043B9A4215D1A2EB0C0399
:100B0000934313EACC130BD150F8042B51F8043B58
:100B10009A4209D1A2EB0C03934313EACC13DBD026
:100B20004FF00000704700BFD01A01BAB1FA81F14E
:100B300001F0180122FA01F0CB40C1F12001DBB233
:100B4000C0B2C01A2CFA01F3D11A914311EAC311B1
:100B5000E6D1704701491820ABBEFEE7260002002F
:100B600070475FEA400C08BF91F0000F4FEA8C23FA
:100B70004FEAC12243EA51514FEA1C5018BF00F519
:100B8000F0404FEA300018BF41F000415FEA6C5C72
:100B900000F02980BCF1FF3F08BF40F08040704763
:100BA000130C06BF12044FF0100C4FF0000C130E84
:100BB00004BF12020CF1080C130F04BF12010CF158
:100BC000040C930F04BF92000CF1020CD30F04BF6E
:100BD00052000CF1010C11464FF00002A0F11F0071
:100BE000A0EB0C00704711F0004F08BF704731F0C8
:100BF00000413FF4D5AF0B0C06BF09044FF0100CB9
:100C00004FF0000C0B0E04BF09020CF1080C0B0F87
:100C100004BF09010CF1040C8B0F04BF89000CF117
:100C2000020CCB0F04BF49000CF1010CCCF12003E6
:100C3000A0EB0C0022FA03F302FA0CF241EA0301E2
:100C400000F10100704720F07F4C80EA030023F0A0
:100C50007F47ACEB070303F57C5300F0004003F142
:100C6000FF032DE980494FEA154B09B44FEA1443BD
:100C700025EA0B4E24EA03480FF2042606EB13275D
:100C800049083E785FEA320203FB0667C7F50007B2
:100C900007FB06F64FEA54374FEAD64606F102063E
:100CA00007FB066CCCF1005C4FEA1C472CEA074CB2
:100CB00007FB06F40CFB06F504EB15464FEA961607
:100CC00034BF00204FF000404FEAD13706FB07FC4D
:100CD0004FEA1C4C0CFB0BF7D21B03FB0CF761EB30
:100CE00007010CFB0EF7B0EB074072EB17420CFB51
:100CF00008F734BFA2EB0742B2EB074261EB1741A2
:100D00004FEA0C444FEA910706FB07FC4FEA1C4CE4
:100D10000CFB0BF7B0EBC74072EB573203FB0CF741
:100D200034BFA2EBC742B2EBC74261EB57310CFBB9
:100D30000EF7B0EBC70072EB57720CFB08F734BF2D
:100D4000A2EBC702B2EBC70261EB5771039F4FEAF8
:100D5000816141EA921104EBCC044FEAD1374FEAAA
:100D6000826206FB07FC42EA90124FEA80604FEA7B
:100D70001C4C0CFB0BF7D21B03FB0CF761EB0701C0
:100D80000CFB0EF7B0EB074072EB17420CFB08F7B9
:100D900034BFA2EB0742B2EB074261EB17414FEAC7
:100DA0008C554FEA910704EB9C2406FB07FC4FEAA5
:100DB0001C4C0CFB0BF7B0EBC74072EB573203FB3C
:100DC0000CF734BFA2EBC742B2EBC74261EB57311D
:100DD0000CFB0EF7B0EBC70072EB57720CFB08F779
:100DE00034BFA2EBC702B2EBC70261EB577115EB40
:100DF0004C254FEA816141EA92114FEA82624FEA43
:100E0000D13742EA901206FB07FC44F100044FEA96
:100E100080604FEA1C4C0CFB0BF7D21B03FB0CF75A
:100E200061EB07010CFB0EF7B0EB074072EB1742CA
:100E30000CFB08F734BFA2EB0742B2EB074261EBB1
:100E4000174115EB1C154FEA813141EA92414FEAF7
:100E5000823242EA90424FEA80304FEA0C7644F107
:100E6000000448EA03434EEA0B484FF0000EB2EB91
:100E7000080C71EB030724BF624639464EEB0E0E99
:100E80004FF0000B0018524149414BEB0B0BB2EBFA
:100E9000080C71EB03077BF1000B24BF6246394657
:100EA0004EEB0E0E4FF0000B0018524149414BEB38
:100EB0000B0BB2EB080C71EB03077BF1000B24BFAB
:100EC000624639464EEB0E0E51EA020718BF46F055
:100ED000010616EB0E7655F1000254F1000103D520
:100EE000BDE88901BDE80088BDE88901BDE800488A
:100EF000B619524141EB0101A3F101037047808013
:100F00007F7E7D7C7B7A7978777676757473727163
:100F100071706F6E6E6D6C6C6B6A6A69686867661B
:100F200066656464636362616160605F5F5E5E5DAD
:100F30005D5C5C5B5B5A5A59595858575756565521
:100F400055555454535352525251515050504F4F83
:100F50004F4E4E4D4D4D4C4C4C4B4B4B4A4A4A49D3
:100F60004949484848474747474646464545454416
:100F70004444444343434342424242414141002BA3
:100F80009C4630D477002BD01CB54FEA370703B40A
:100F90004FF010004FF01001BAF1000F06D0BCF175
:100FA000000FDCBF40F0080040F008014FF00000E7
:100FB0000FBCBDE810400BF1010BBBF1010F08BFE6
:100FC0005FEA170722BF12F1010211F101014FF090
:100FD000004143F1000300F0004043EA0000704785
:100FE000F9D35708D0E746EA064613F1400F4FEA17
:100FF00016461FDD13F1200FDFBF16430A460021FE
:1010000020335B42BED0C3F1200746EA064602FA0F
:1010100007F74FEA164646EA0706C3F1200722FA09
:1010200003F201FA07F721FA03F14FF0000342EA55
:101030000702A7E746EA020646EA06464FEA1646D0
:1010400046EA0106BCBF46EA0646360C4FF00003EE
:101050004FF000024FF0000194E72DE9804C9A46D2
:10106000934670B491E8380007C831EA400C48BF95
:1010700034EA430C03D5FFF7E6FDFFF780FFF0BC31
:10108000BDE8008C2DE9804C9A46934670B491E8F7
:10109000380007C810F0804F08BF13F0804F03D10D
:1010A00000F005F8FFF76BFFF0BCBDE8008C20F006
:1010B0007F4780EA030023F07F4C07EB0C03A3F586
:1010C0007C5300F00040A3F1FE0392F0000F00F00B
:1010D000B38095F0000F00F077802DE901494FEAC9
:1010E00011404FEA144621EA004800FB06FC24EABE
:1010F000064708FB06F607FB08F800FB07F718EBA6
:1011000006484CEB164C4FEA124B18EB07484FEAD7
:1011100015464CEB174022EA0B4E0BFB06FC25EA6A
:1011200006470EFB06F607FB0EFE0BFB07F71EEB52
:10113000064E4CEB164C4FF000061EEB074E4CEBE8
:10114000174B18EB0B0840F1000018EB0E0B58EB97
:10115000000840F100008F1A4FF000013CBFC94366
:10116000661B14BFB5EB040C00213CBFC943F61B42
:101170004FEA17444EEA8E0E27EA04454FEA1C4711
:1011800004FB07622CEA074C05FB07F70CFB05F68E
:1011900004FB0CFC16EB074642EB174216EB0C4621
:1011A00042EB1C421BEB060658EB0202414146EAA9
:1011B0009E0601D5BDE80189B619524141EB0101F6
:1011C000A3F10103BDE801894FEA14454FEA114735
:1011D00024EA054621EA074C05FB07F406FB07F75E
:1011E0000CFB06F105FB0CFC11EB074144EB17442B
:1011F0004FEA124711EB0C4144EB1C4422EA074C26
:1012000005FB07F206FB07F70CFB06F605FB0CFCDB
:1012100016EB074642EB174216EB0C4642EB1C4519
:101220006A1854F1000148BF7047B619524141EBAA
:101230000101A3F10103704795F0000F37D04FEA89
:1012400011424FEA144721EA024624EA074C02FB06
:1012500007F106FB07F70CFB06F402FB0CFC14EB92
:10126000074441EB17414FEA154714EB0C4441EB9F
:101270001C4125EA074C02FB07F506FB07F70CFBB0
:1012800006F602FB0CFC16EB074645EB174516EB82
:101290000C4645EB1C42121951F1000148BF704742
:1012A000B619524141EB0101A3F1010370474FEA26
:1012B00014454FEA114724EA054621EA074C05FB8D
:1012C00007F106FB07F70CFB06F24FF0000605FBE3
:1012D0000CFC12EB074241EB174112EB0C4251EBB5
:1012E0001C4148BF7047921841EB0101A3F1010373
:1012F0007047000010B5044800F0F3F9BDE8104055
:10130000024800F0EEB90000440000207400002004
:1013100070B5044600688168C943C90717D1816860
:1013200021F00101816000F0A9FC05460AE000BF40
:1013300000F0A4FC401B022804D920688068C04348
:10134000C00706D020688068C043C007F0D00020E6
:1013500070BDA06A40F01000A062E06A40F0010099
:10136000E062012070BD0000F8B50026044600963A
:1013700000688168C943C9072DD0816841F0010127
:101380008160164816490068B0FBF1F000E0401E8D
:1013900000900028FBD100F071FC054616E000BF6C
:1013A00000F06CFC401B022810D920688068C04304
:1013B000C0070BD0A06A40F01000A062E06A40F0C5
:1013C0000100E06284F824600120F8BD2068806894
:1013D000C043C007E4D10020F8BD00002C0000206D
:1013E00040420F00084810B5808802F04DFA0749C6
:1013F00002F092FA6FF00B0102F0BDFCBDE8104064
:10140000034902F089BA0000000000203333534042
:1014100048E1BE40FEE7000070B5FFF7E3FF0F4C68
:101420000F4E3146E06002F01DF905463146A068D6
:1014300002F018F901462A460A4801F0F5FD0A496A
:1014400002F06AFA02F0D0F9084980B260800968B7
:101450004863BDE87040064800F09ABA00000020DA
:101460000000A0413000002000003445A40000200E
:1014700044000020704772B6FEE70000F8B5002572
:101480000446009590F8240001280BD0012084F830
:1014900024002046FFF73CFF2046FFF765FF0600CB
:1014A00002D050E00220F8BDA06A20F4885040F03D
:1014B0000200A062022000F07FFC25490968B1FB10
:1014C000F0F0400000E0401E00900028FBD12068B2
:1014D000816841F00801816000F0D0FB074608E018
:1014E00000F0CCFBC01B0A2803D9206880680007E5
:1014F00015D4206880680007F2D42068816841F024
:101500000401816000F0BAFB074612E000F0B6FB70
:10151000C01B0A280DD920688068400709D5A06A39
:1015200020F0020040F01000A06284F82450012056
:10153000F8BD206880684007E8D4A06A20F0020067
:1015400040F00100A06284F824503046F8BD00004D
:101550002C00002070470000F8B50024009490F89B
:1015600024202546012A12D0012280F824204A682E
:101570001F23072A0DD20668776B521E02EB8202E8
:1015800093409F430B6893401F43776319E0022009
:10159000F8BD06680D2A0AD2376BD21F02EB820211
:1015A00093409F430B6893401F43376309E0F76AFA
:1015B0000D3A02EB820293409F430B6893401F4316
:1015C000F7620A68072306680A2A0AD3F7680A3A04
:1015D00002EB420293409F438B6893401F43F760A6
:1015E00008E0376902EB420293409F438B689340C7
:1015F0001F4337610A68102A01D0112A20D1124BEB
:1016000002689A4217D193681B0219D4936843F475
:10161000000393600968102912D10C490C4A09682B
:10162000B1FBF2F101EB8101490000E0491E00919C
:101630000029FBD104E0816A41F02001816201248C
:1016400080F824502046F8BD002401402C000020E2
:1016500040420F002DE9F04100681B49884231D11A
:101660001A4800F03BF81A4CA08001202070A08896
:10167000A188A0FB0116D4E906020D185641C4E961
:101680000656E088401C80B2E08064281AD302F03D
:10169000FBF807462846314602F0C5F8394601F006
:1016A000E1FF01F00DFF0B4902F036F96FF00B017D
:1016B00002F061FB084902F02FF920610020C4E923
:1016C0000600E080BDE8F0810024014044000020D5
:1016D000000000203333534048E1BE400068C06C36
:1016E000704770B50446006806684568A90625D5A8
:1016F000B10723D5A16AC90603D4A16A41F40071D8
:10170000A1628168C1F34241072910D1217B71B9DF
:10171000416821F020014160A06A20F48070A0623D
:10172000A06AC00403D4A06A40F00100A062204671
:10173000FFF790FF21686FF01200086028062ED591
:1017400070072CD5A06AC00603D4A06A40F40050EC
:10175000A06220688168C1F30231072909D041687D
:10176000490515D48168C1F34241072910D1217B75
:1017700071B9416821F080014160A06A20F4805075
:10178000A062A06AC00503D4A06A40F00100A06274
:101790002046FFF7DFFE21686FF00C000860680646
:1017A0000CD5F0070AD0A06A40F48030A062204631
:1017B00000F094F821686FF00100086070BD00002F
:1017C0002DE9F0414FF0000704003D467ED0A06AAD
:1017D000002628B9E66284F82460204600F080F8EC
:1017E0002046FFF795FDA16AC90600D420B1A06A82
:1017F00040F01000A06269E0A16A21F4885141F034
:101800000201A1626268E169237B0A4347EA43015E
:101810000A43A1684FF48077B94209D0012907D063
:101820005FF0000194F814C0BCF1010F02D00AE08F
:101830003946F7E7F3B1A36A43F02003A362E36AF2
:1018400043F00103E3622368D3F804C02CF4694C2D
:101850004CEA010CC3F804C021688B68DFF870C043
:1018600003EA0C0313438B60A168B9420BD0012932
:1018700009D00CE0DFF85CC0A3690CEB43330B43E9
:1018800043F40061DFE7218A0D05A5F58015216885
:10189000CB6A23F470032B43CB62216889680E4B1B
:1018A0001940914208D1E662A16A21F0020141F09B
:1018B0000101A162BDE8F081A06A20F0020040F0C1
:1018C0001000A062E06A40F00100E0620120F1E750
:1018D000FDF7E1FF00E0FFFFFE0E1FFF7047000075
:1018E00010B586B000210091019102910391244C22
:1018F0000368244903222448A3421ED18B6943F480
:1019000000738B618B6903F4007304938B6943F05C
:1019100004038B61896901F0040104910421CDE97C
:101920000012694600F0ACF800220121122000F0FC
:1019300011FA122000F000FA18E0144CA3421DD155
:101940008B6943F480638B618B6903F48063049338
:101950008B6943F004038B61896901F004010491F0
:101960008021CDE90012694600F08AF800220121A9
:10197000122000F0EFF9122000F0DEF906B010BDE1
:1019800000240140001002400008014000280140EE
:1019900070B5044690F8240001280DD0012084F889
:1019A00024002046FFF7E0FC02004FF0000005D0C5
:1019B00084F82400104670BD022070BDA16A40F674
:1019C0000163994341F48071A162224D2368224949
:1019D000AB4218D10E6816F4702F14D0A66A46F4E4
:1019E0008016A6620E68760505D5A66A26F400560E
:1019F00046F48056A662A66AF6040AD5E66A26F080
:101A00000606E66206E0A66A26F48016A6625E680E
:101A1000E9E7E06284F824006FF0020018602068B3
:101A2000436843F02003436020688368C3F3424364
:101A3000072B05D1A84208D1096811F4702F04D0F2
:101A4000816841F480118160B4E7816841F4A001AC
:101A5000F9E70000002801400424014070B5044665
:101A600000F00CF90546601C02D0044800780444DC
:101A700000F004F9401BA042FAD370BD2000002002
:101A80002DE9F84FDFF8B8910024A9F1040B2346A3
:101A90000F2709F1040AABF1040EC9E00125A540A6
:101AA0002A40AA427DD1674ED1F804C0ACEB0608AB
:101AB000B44532D014DCBCF1030F3AD009DCBCF1E0
:101AC000000F2AD0BCF1010F1CD0BCF1020F31D1A4
:101AD0001DE0BCF1110F17D0BCF1120F2AD119E093
:101AE000B8F5881F19D006DCB8F5803F15D0B8F5D9
:101AF000801F1FD111E0B8F5001F0ED0B8F5041FEC
:101B000018D10AE0CB6815E0CB681B1D12E0CB684A
:101B100008330FE0CB680C330CE08B682BB1012B42
:101B20004FF0080303D0456104E0042302E005619F
:101B300000E00023FF2A01D8064601E000F1040678
:101B40004FEA840501D9A5F12005D6F8008007FAEF
:101B500005FC28EA0C0803FA05F548EA0508C6F86A
:101B600000804D68ED0062D5374DAE6946F0010644
:101B7000AE61AD6924F0030605F001050095334D13
:101B800006EB050CDCF80850A607360F07FA06F836
:101B900025EA0805DFF8B880404503D14FF000087A
:101BA00017E044E0DFF8AC80404502D14FF0010877
:101BB0000FE0DFF8A480404502D14FF0020808E0B2
:101BC000DFF89880404502D14FF0030801E04FF064
:101BD000040808FA06F848EA0508CCF808804D68B9
:101BE000D9F80060ED024D4601D5164300E096435A
:101BF0002E604D68DAF80060AD02554601D51643F7
:101C000000E096432E604D68DBF80060AD035D4652
:101C100001D5164300E096432E604D68DEF8006063
:101C2000ED03754601D5164300E096432E60641C13
:101C30000D682A46E5407FF431AFBDE8F88F00001B
:101C40000804014000001110001002400000014093
:101C500000080140000C0140001001400014014048
:101C6000C26821EA02030A4043EA02410161704767
:101C70000AB1016170470904FBE700000148806870
:101C8000704700002000002002488168027811445B
:101C90008160704720000020074810B5016841F0BE
:101CA00010010160032000F075F80F2000F006F825
:101CB00000F024F8002010BD0020024070B50D4D4A
:101CC00004464FF47A712878B1FBF0F00A490968AC
:101CD000B1FBF0F000F094FB48B9102C07D20022C1
:101CE0002146501E00F036F800206C6070BD0120C7
:101CF00070BD0000200000202C0000200C4808B51A
:101D0000816941F001018161816901F00101009166
:101D1000C16941F08051C161C06900F080500090FC
:101D20000448416821F0E06141F00071416008BD64
:101D30000010024000000140002809DB00F01F02F3
:101D4000012191404009800000F1E020C0F800111D
:101D500070470000F0B40E4B1B680C46C3F302231F
:101D6000C3F10705042D00D90425191D072901D247
:101D7000002300E0DB1E012606FA05F1491E214082
:101D800099409E40761E16403143F0BC01F034BBB2
:101D90000CED00E0064900F0070208684FF6FF036B
:101DA000184040EA0220034A1043086070470000D0
:101DB0000CED00E00000FA0510B501460020234CB0
:101DC000012922D0022939D010291DD16168226849
:101DD000D20119D51E48C1F38342C903805C0AD5DC
:101DE00061681B4AC1F34041921E515C194AB2FB23
:101DF000F1F1484301E0184948436168490203D4BE
:101E000040000321B0FBF1F010BD226AC2F30121B2
:101E1000012903D1920701D5C80310BD022905D1BC
:101E2000626A920702D549F6404010BD0329FCD1F1
:101E300021688903F9D54FF2244010BD00F01AF94A
:101E40006168C1F38131491C4900DBE700100240A1
:101E50009E4B000800127A0000093D002DE9F8436E
:101E600005460078354CC00754D0E0690026C00014
:101E700008D4E06940F08050E061E069012600F09C
:101E8000805000902E480168C90512D40168804630
:101E900041F480710160FFF7F1FE074605E000BFE5
:101EA000FFF7ECFEC01B642823D8D8F80000C0055B
:101EB000F6D5206A10F4407021D0A98801F4407151
:101EC00081421CD0206A1F49012220F440700A6020
:101ED00000220A602062C00711D0FFF7CFFE07463C
:101EE00041F2883808E000BFFFF7C8FEC11B41453A
:101EF00002D90320BDE8F883206A8007F4D5206A60
:101F0000696820F44070084320621EB1E06920F047
:101F10008050E0612878800705D56068A96820F4C2
:101F20004040084360602878C00605D56068E968CD
:101F300020F48000084360600020DBE700100240CE
:101F400000700040400442422DE9F0470F46050072
:101F500061D0434E306800F00700B84209D23068C3
:101F600020F0070038433060306800F00700B842C6
:101F700051D128683B4C810712D5400703D56068D2
:101F800040F4E06060602878000703D5606840F4A2
:101F9000605060606068A96820F0F00008436060ED
:101FA0002878C00728D06868012810D02168022846
:101FB00010D0890700292EDA616821F0030101435E
:101FC0006160FFF75BFE804641F288390DE02168D1
:101FD0008903EFE78901EDE7FFF750FEA0EB080169
:101FE000494502D90320BDE8F0876068696800F0C0
:101FF0000C00B0EB810FEFD1306800F00700B84261
:102000000BD9306820F0070038433060306800F0AA
:102010000700B84201D00120E5E72878400705D540
:102020006068E96820F4E060084360602878000791
:1020300006D56068296920F4605040EAC1006060FC
:1020400000F028F86168084AC1F30311515CC840E8
:102050000649086006480068FFF730FE0020C2E726
:102060000020024000100240AE4B00082C0000206F
:10207000240000200448054900684968044AC1F367
:10208000C221515CC84070472C0000200010024063
:10209000BE4B00080E4A51680E4801F00C03042B99
:1020A00011D0082B0FD10C48C1F38343C903C05C86
:1020B0000AD55168084AC1F34041921E515C054A55
:1020C0005043B0FBF1F070470449484370470000AB
:1020D0000010024000127A008C4B000800093D00FD
:1020E0002DE9F84F040070D02078C04DC00749D0CA
:1020F0006868C0F38100012807D06868C0F38100D8
:10210000022809D16868C00306D52868800339D53C
:1021100060680028E7D035E06068B0F5803F0BD0FC
:1021200010B1B0F5A02F11D0286820F480302860BD
:10213000286820F4802002E0286840F4803028607D
:10214000606890B1FFF79AFD06460AE0286840F4FF
:1021500080202860F0E700BFFFF790FD801B642817
:1021600073D828688003F7D50CE0FFF787FD064693
:1021700005E000BFFFF782FD801B6428F0D82868C7
:102180008003F7D420789A4E80074FF001094FF072
:10219000000839D5686810F00C0F07D06868C0F3E4
:1021A0008100022809D16868C00306D42868800726
:1021B00014D52069012808D110E02069B0B1C6F813
:1021C0000090FFF75BFD074605E00AE1FFF756FDCB
:1021D000C01B0228C4D828688007F7D52868616921
:1021E00020F0F80040EAC10028600DE0C6F8008049
:1021F000FFF744FD074604E0FFF740FDC01B02283F
:1022000023D828688007F7D4207800072CD5794890
:10221000A169D9B1C0F80090FFF730FD074604E08E
:10222000FFF72CFDC01B02280FD8686A8007F7D57E
:1022300071484FF4FA510068B0FBF1F0009000BF14
:102240000098411E0091FAD20EE080E0C0F80080B4
:10225000FFF714FD074604E0FFF710FDC01B02283E
:1022600075D8686A8007F7D42078400760D5E86998
:102270000027C00008D4E86940F08050E861E869B0
:10228000012700F0805000905C480168C90513D414
:102290000168834641F480710160FFF7EFFC8246DC
:1022A00006E000BFFFF7EAFCA0EB0A0064284ED866
:1022B000DBF80000C005F5D5E06801280AD008B1B8
:1022C000052813D0286A20F001002862286A20F02F
:1022D000040002E0286A40F001002862E06841F250
:1022E000883B98B1FFF7CAFC82460BE0286A40F0B1
:1022F00004002862EEE700BFFFF7C0FCA0EB0A0174
:1023000059455AD8286A8007F6D50CE0FFF7B6FC85
:10231000824605E0FFF7B2FCA0EB0A0159454CD814
:10232000286A8007F6D41FB1E86920F08050E86180
:10233000E06988B36968C1F38101022944D00228A9
:10234000C6F8608004D0FFF799FC044638E034E01A
:10235000FFF794FC074604E0FFF790FCC01B02283F
:102360002BD828688001F7D4206AB0F5803F05D1CA
:102370006868A16820F4003008436860D4E9080167
:102380000843696821F4741108436860C6F86090D6
:10239000FFF774FC044606E025E000BFFFF76EFC83
:1023A000001B022809D828688001F7D51BE000BF70
:1023B000FFF764FC001B022802D90320BDE8F88F58
:1023C00028688001F4D40EE00128F7D06868226AFA
:1023D00000F48031914204D1616A00F470108842A7
:1023E00001D00120EAE70020E8E7000000100240E9
:1023F00000004242800442422C0000200070004055
:1024000010B5401EB0F1807F01D3012010BD4FF008
:10241000E02460610F21601700F0EEFF0020A06152
:1024200007202061002010BD7047704710B590F85C
:102430003C20012A22D0012280F83C20CA688C6806
:1024400022F4407222434C6822F4806222430C68DA
:1024500022F4006222430C6922F4805222434C6928
:1024600022F400522243C969002322F480420A4325
:1024700001684A6480F83C30002010BD022010BD85
:1024800070B590F83C20012A26D0012480F83C4009
:10249000022280F83D2003685A689D6822F0700689
:1024A0000A6832435A600D4B02689A4208D0B2F172
:1024B000804F05D00A4B9A4202D00A4B9A4204D16F
:1024C000496825F080031943916080F83D40002160
:1024D00080F83C10084670BD022070BD002C014001
:1024E000000400400008004010B5040003D094F838
:1024F0003D0010B107E0012010BD002084F83C0031
:10250000204600F01FF8022084F83D00211D2068BD
:1025100000F012FE012084F8460084F83E0084F8A2
:102520003F0084F8400084F8410084F8420084F8B9
:10253000430084F8440084F8450084F83D000020FE
:1025400010BD000008B5114A01681148914208D138
:10255000816941F400618161806900F4006000904C
:1025600008BDB1F1804FFBD1C16941F00101C161EA
:10257000C069002200F00100009011461C20FFF706
:10258000E9FBBDE808401C20FFF7D6BB002C01404A
:102590000010024090F83D10012901D00120704741
:1025A000022180F83D100168CA6842F00102CA6049
:1025B00000680B49884208D0B0F1804F05D0094926
:1025C000884202D00849884204D1816801F007019D
:1025D000062903D0016841F0010101600020704725
:1025E000002C0140000400400008004070B5044683
:1025F00090F83C000025012817D0012684F83C60A3
:10260000022084F83D002068826822F0770222F4DC
:102610007F4282600868502838D00DDC20284FD0D7
:1026200005DC90B3102811D14AE0022070BD30289B
:1026300046D040280AD13BE060282FD070280DD02A
:10264000B0F5805F03D0B0F5005F12D0012584F8AB
:102650003D60002084F83C00284670BDCB68D1E97D
:102660000121206800F0B1FD2068816841F0770108
:1026700009E0CB68D1E90121206800F0A6FD2068BF
:10268000816841F480418160E1E719E0CA684968E6
:10269000206800F04FFE5021206806E0CA684968B3
:1026A000206800F058FE6021206800F098FDCEE719
:1026B000CA684968206800F03DFE40212068F4E7C0
:1026C000226801461046F0E770472DE9F0410446C4
:1026D0000068C66805694FF00007A90713D5B10760
:1026E00011D5F91E016101202077206880698007DB
:1026F000204602D0FFF7E8FF04E000F0A5F82046EE
:1027000000F037F92777680716D5700714D52168C8
:102710006FF004000861022020772068806910F4BF
:10272000407F204602D0FFF7CFFF04E000F08CF896
:10273000204600F01EF92777280715D5300713D556
:1027400021686FF008000861042020772068C069C4
:102750008007204602D0FFF7B7FF04E000F074F8CE
:10276000204600F006F92777E80616D5F00614D5BE
:1027700021686FF010000861082020772068C06988
:1027800010F4407F204602D0FFF79EFF04E000F0E7
:102790005BF8204600F0EDF82777E80708D0F0074F
:1027A00006D021686FF001000861204600F030F982
:1027B000280608D5300606D521686FF0800008612C
:1027C0002046FFF731FE680608D5700606D5216859
:1027D0006FF040000861204600F02CF9A8060AD5E9
:1027E000B00608D521686FF0200008612046BDE8DA
:1027F000F041FFF71ABEBDE8F081000000B585B0DA
:102800000021009101910291039100680B498842D7
:1028100012D10B48816941F00401816180696946E8
:1028200000F0040004904FF48070009002200190AA
:1028300003900448FFF724F905B000BD002C0140C7
:102840000010024000080140704770B5044690F83F
:102850003C0000260D4601280FD0012084F83C00E2
:102860006AB1042A1DD0082A2FD00C2A3FD0012695
:10287000002084F83C00304670BD022070BD206806
:1028800000F0B6FC2068816941F008018161206890
:10289000816921F004018161206881692A691143FD
:1028A00011E0206800F0CCFC2068816941F40061EF
:1028B00081612068816921F480618161206881697A
:1028C0002A6941EA02218161D2E7206800F0E4FC34
:1028D0002068C16941F00801C1612068C16921F027
:1028E0000401C1612068C1692A69114311E02068AF
:1028F00000F0FEFC2068C16941F40061C1612068FC
:10290000C16921F48061C1612068C1692A6941EA15
:102910000221C161ACE710B5040003D094F83D007A
:1029200010B107E0012010BD002084F83C002046D3
:1029300000F01EF8022084F83D00211D206800F000
:10294000FBFB012084F8460084F83E0084F83F0039
:1029500084F8400084F8410084F8420084F8430081
:1029600084F8440084F8450084F83D00002010BD40
:102970007047704710B50446022249B104290ED0B1
:10298000082913D094F84100012816D0012010BD69
:1029900094F83E000128F9D184F83E200FE094F825
:1029A0003F000128F2D184F83F2008E094F840006D
:1029B0000128EBD184F8402001E084F84120012275
:1029C000206800F0F5FB0F492068884203D1426C73
:1029D00042F4004242642068884208D0B0F1804F3F
:1029E00005D00949884202D00849884204D181684B
:1029F00001F00701062903D0016841F001010160DF
:102A0000002010BD002C01400004004000080040E0
:102A100010B50068B0F1804F08D1FEF7FDFCBDE8AD
:102A200010404FF400510248FFF71AB910BD0000E2
:102A3000001001407047FEE770B501220D4D5402B1
:102A400021462846FFF714F901221602314628468E
:102A5000FFF70EF900F0D1FA002221462846FFF7D1
:102A600007F900F0CAFA31462846BDE87040002256
:102A7000FFF7FEB8000C014070B50B4C01221102AB
:102A80002046FFF7F5F800F0B8FA65150022294650
:102A90002046FFF7EDF800F0B0FA29462046BDE8E1
:102AA00070400122FFF7E4B8000C014070B501222C
:102AB000084D140221462846FFF7DAF800F09DFA87
:102AC000002221462846FFF7D3F8BDE8704000F009
:102AD00094BA0000000C01403EB50021114800915D
:102AE00001910F4A02910260816001730175012416
:102AF0004FF460220461C2614160FEF761FE08B1DB
:102B0000FEF7B9FC0220CDE90004052002906946D9
:102B10000448FEF721FD002801D0FEF7ACFC3EBDC5
:102B200000240140440000203EB5002111480091DE
:102B300001910F4A029102608160017301750124C5
:102B40004FF460220461C2614160FEF739FE08B1B2
:102B5000FEF791FC0720CDE90004052002906946AC
:102B60000448FEF7F9FC002801D0FEF784FC3EBDC6
:102B700000280140740000202DE9F04186B00024B7
:102B800026480094019402940394816941F0100155
:102B90008161816901F010010491816941F0200196
:102BA0008161816901F020010491816941F0040192
:102BB0008161816901F004010491816941F008019A
:102BC00081618069164F00F008004FF400550490B1
:102BD000002229463846FFF74BF8DFF848804FF4CB
:102BE0004076012231464046FFF742F80120009529
:102BF000CDE901040220039069463846FEF740FF04
:102C000011200096CDE90104032003906946404657
:102C1000FEF736FF06B0BDE8F0810000001002406C
:102C200000100140000C014010B596B000240F9434
:102C300010941194129413941C2108A81494FDF775
:102C4000ADFB20216846FDF7A9FB28482649C0E9CD
:102C5000001440F63F31C0E90241046144618461DF
:102C6000FFF742FC08B1FEF706FC4FF480500F90CE
:102C70000FA91E48FFF7BAFC08B1FEF7FCFB1B4882
:102C8000FFF749FE08B1FEF7F6FB139413A91748A6
:102C90001494FFF7F5FB08B1FEF7EDFB6020CDE9DA
:102CA00008040A940B940C940D94002208A90F4870
:102CB0000E94FFF7CAFD08B1FEF7DDFB00944FF458
:102CC0000050CDE9044002940194039469460748FA
:102CD0000794FFF7ABFB08B1FEF7CDFB0348FFF706
:102CE0008DFD16B010BD0000002C0140A400002096
:102CF00010B586B000241648009401940294039401
:102D000004944FF08041059401604721C0E901140B
:102D100040F2F311C0E903148461FFF7E5FB08B149
:102D2000FEF7A9FB4FF48050009069460848FFF772
:102D30005DFC08B1FEF79FFB049404A904480594C8
:102D4000FFF79EFB002801D0FEF795FB06B010BDF3
:102D5000EC000020FEE7FEE770B5002404F1B000AF
:102D6000C0B2002100F027F90021084600F023F945
:102D70000021102000F01FF900250121002000F0A3
:102D80001AF96D1CEDB2802DF7D3641CE4B2082C47
:102D9000E4D370BD4B4810B5816986B041F008019D
:102DA00081618069484C00F0080004900020029086
:102DB0004FF4407000900120019003200390694679
:102DC0002046FEF75DFE012211022046FEF750FF6D
:102DD000012251022046FEF74BFF3220FEF73EFE55
:102DE0000021AE2000F0E7F80021084600F0E3F8EB
:102DF0000021102000F0DFF80021402000F0DBF877
:102E00000021B02000F0D7F80021812000F0D3F895
:102E10000021FF2000F0CFF80021A12000F0CBF826
:102E20000021A62000F0C7F80021A82000F0C3F878
:102E300000213F2000F0BFF80021C82000F0BBF8BF
:102E40000021D32000F0B7F80021084600F0B3F8C5
:102E50000021D52000F0AFF80021802000F0ABF871
:102E60000021D82000F0A7F80021052000F0A3F8E9
:102E70000021D92000F09FF80021F12000F09BF8FC
:102E80000021DA2000F097F80021122000F093F8DA
:102E90000021DB2000F08FF80021302000F08BF8BB
:102EA00000218D2000F087F80021142000F083F825
:102EB0000021AF2000F07FF806B0BDE81040FFF71A
:102EC0004BBF000000100240000C014010B504464A
:102ED000B031C8B2002100F06EF8102040EA1410A2
:102EE000002100F068F804F00F00BDE81040002158
:102EF00000F061B82DE9F041203A0D468046D6B287
:102F00007F2803D900208D1C8046EDB2102B294666
:102F100011D0FFF7DBFF184906EB4600002401EB58
:102F200040050121285D00F046F8641CE4B2062C3F
:102F3000F7D3BDE8F081FFF7C9FF104F002400BFB1
:102F400004EB06100121385C00F035F8641CE4B293
:102F5000082CF5D36D1CE9B24046FFF7B7FF0024FB
:102F600004EB061038440121007A00F024F8641CB8
:102F7000E4B2082CF4D3DCE7F23D00081A40000864
:102F80002DE9F041984617460E46044600250DE00F
:102F9000434631462046FFF7ADFF0834E4B2782CB3
:102FA00002D90024B61CF6B26D1CEDB27A5D002A7F
:102FB000EED1BDE8F08110B50129044614D0FFF729
:102FC0003BFD782000F0DAF9FFF770FD002000F0FB
:102FD000D5F9FFF76BFD204600F0D0F9FFF766FD4D
:102FE000BDE81040FFF748BDFFF726FD782000F050
:102FF000C5F9FFF75BFD4020E9E708B50020ADF813
:103000000000BDF80000052804D200BFBDF8000094
:10301000401CF4E708BD10B5029CE0E80212002154
:1030200080E81A0010BD00002DE9F0410B4604466F
:103030001146184600F0F6FD0646D4E9010100F0FD
:103040006BFC05463146206800F066FC294600F01E
:1030500095FA07460546E16800F02AFD01D2E568C9
:1030600005E02846216900F023FC00D22569B6F569
:10307000000F04DB3846E16800F01AFC07D316F1B4
:10308000FF4F0CD33846216900F012FD07D20549E5
:10309000304600F041FCA16800F070FAA0602846BC
:1030A000BDE8F0816F12033A70477047FEF7ECBD40
:1030B00030B593B028216846FDF770F914210AA8AD
:1030C000FDF76CF9002501200F951095119501046D
:1030D00012958DE8230004904FF4E010CDE908101C
:1030E000022407946846FEF7FBFF08B172B6FEE7BC
:1030F0000AA90F2081E831004FF48060CDE90D0569
:1031000002210AA8FEF720FF08B172B6FEE74FF4CD
:10311000004011900F940FA8FEF7A0FE002801D0E8
:1031200072B6FEE713B030BD704700000148FFF7EC
:10313000CCBA0000EC000020F0B50268194B1A4C24
:103140001A4D4FF08047984205D0B84203D0A042B4
:1031500001D0A84203D122F070064A683243984257
:1031600005D0B84203D0A04201D0A84203D122F436
:103170004074CA6822434C6922F0800222430260F4
:103180008A68C2620A688262984201D10969016351
:10319000012141610169C90703D0016921F00101E1
:1031A0000161F0BD002C0140000400400008004017
:1031B00010B501F01F030121046A99408C43046299
:1031C000016A9A401143016210BD10B5846842EA59
:1031D000032224F47F440A432243826010BD8268A4
:1031E00022F070020A4342F007018160704700003C
:1031F00030B5036A026A22F0010202624268846901
:1032000024F073050C682C4323F002058B682B43D4
:103210000A4DA8420BD123F00805CB6822F4407276
:103220002B434D6923F0040315438A692A43426006
:10323000846149684163036230BD0000002C014095
:1032400030B5026A036A23F010030362436884699D
:103250000D6824F4E64444EA05248D6822F0200237
:1032600042EA05120B4DA8420ED1CD6822F0800231
:1032700042EA05124D6923F4406343EA85038D69F0
:1032800022F0400243EA8503436084614968816318
:10329000026230BD002C014030B5036A026A22F49C
:1032A000807202624268C46923F4007324F07305DB
:1032B0000C682C438D6843EA05230C4DA8420ED1BF
:1032C000CD6823F4006343EA05234D6922F440529C
:1032D00042EA05128D6923F4806342EA05124260D6
:1032E000C4614968C163036230BD0000002C014025
:1032F00030B5046A026A22F4805202624268C369ED
:103300000D6823F4E64343EA05238D6824F4005452
:1033100044EA0534064DA84204D14D6922F48042A6
:1033200042EA85124260C36149680164046230BDAB
:10333000002C014010B5036A046A24F00104046201
:10334000846924F0F00444EA021423F00A020A43D8
:103350008461026210BD10B5036A046A24F010048F
:103360000462846923F0A00324F4704444EA023226
:1033700043EA01118261016210BDFEE72DE9F041CF
:10338000124F002405464FF40078BE15280601D5DB
:10339000012200E0002241463846FEF769FC68063B
:1033A000050E012231463846FEF762FCFFF725FE86
:1033B000002231463846FEF75BFCFFF71EFE641C18
:1033C000E4B2082CE2D3BDE8F0810000000C01401B
:1033D000490050EAC12018BF04204A0D18BF40F030
:1033E000010040F2FF72B2EB515F08BF40F00200F3
:1033F000012808BF052070470907090E002804DBD3
:1034000000F1E02080F80014704700F00F0000F198
:10341000E02080F8141D704730380A2801D20120BE
:10342000704700207047000086B0FEF735FCFFF7BC
:103430003FFEFFF7A1FBFFF7F7FBFFF74DFBFFF7A1
:1034400057FCFFF771FBFFF7A5FC00204FF07E5102
:1034500000900B46114A1248FFF7DDFD002111488C
:10346000FFF788FA1048FEF709F81048FFF792F8BE
:103470000F4C206900F056F8CDE900010DA2102193
:1034800002A8FCF7ADFE102302AA01212020FFF7BD
:1034900077FD3220FEF7E2FAEBE700000000404142
:1034A00030000020A400002044000020EC00002098
:1034B00000000020563D252D352E326656000000B6
:1034C00070B5054600F026FB044620F00040C0F130
:1034D000FF40C00F08D025F00040C0F1FF40C00FF2
:1034E00004BF0120FCF789FF204670BD10B50029FC
:1034F0000AD00878002807D005487844FDF7EAFA92
:10350000002801D0002010BD0248784410BD000002
:10351000921700008A1700000808A0F500114FEA72
:103520003101704743004FEAD30C4FEA3C0C434053
:103530001FBF40070CF1605113F0FE4F70471CF0A5
:10354000006F03D100200CF0004170470CF00043E5
:1035500043EA507010B540EACC0000F05EFA00BFBC
:10356000000000924FEA0001FFF7D6BF4FF0004184
:103570004FF00000A1F500217047000090EA010F14
:1035800048BF81F0004100F15483421A3CBF801AC9
:1035900089184FEAD0524FF07F4C1CEA410FA2EB42
:1035A000D15318BF9CEA026F00F03B804FF0004CF3
:1035B0004CEA00204CEA012121FA03FC10EB0C0C30
:1035C0001ED202F1FF325FEA1C2040EBC25038BF2E
:1035D00070471CF07F0F4FEA400C18BFBCF17F4FC3
:1035E00038BF7047C3F12003994008BF20F00100A5
:1035F000BCF17F4F38BF7047A0F1C04000F053BA14
:103600004FEA3C00000A40EBC25028BF1CF0FF0FFD
:103610004FEA400CE6D018BFBCF17F4F38BF70476F
:10362000EAE79CEA026F05D010EA5C0F08BF00F0E1
:103630000040704710B500F0F0F900BF64FBBE3EDB
:10364000014800F066BB00BF0000C07F401058BFBB
:10365000C0F14040491058BFC1F140418142EFF3F1
:10366000008070474FF47F0C1CEAD0121EBF1CEA8A
:10367000D11392EA0C0F93EA0C0F00F0858090EAC8
:10368000010F48BF42F4807240F4000C41F4000086
:103690002CF07F4120F07F4000B58142A2EB030275
:1036A0000FF2081CACEB504EC0F100009EF800E099
:1036B0004FEA4E0E00FB0EFC38BF49004FEA2C1CAF
:1036C00002F5FA020CFB0EF34FEACE1E4FEA112C64
:1036D0004FEAC1210EEB635E42EB22420EFB0CFC73
:1036E0004FEA1C5300FB03114FEA112C4FEA013142
:1036F0000EFB0CFC4FEADC4C00FB0C11C14228BF56
:1037000009184CEB03335DF804EB10EB410143EB7C
:10371000C250B2F57C0F38BF704729D512F0F00FB8
:103720001CBF00F1C04000F0004070470081828360
:103730008485868788898B8C8D8E8F9192939596C0
:1037400097999A9C9D9FA0A2A3A5A7A8AAACAEB04A
:10375000B2B3B5B7B9BCBEC0C2C5C7C9CCCED1D44F
:10376000D7D9DCDFE2E6E9ECF0F3F7FAFE0000007F
:103770004FEA400C0CF1807CBCF17E4F28BF7047B3
:10378000B0F1C04000F08FB990EA010F0CEAD113FC
:1037900048BF42F48072624538BF634507D213F4D4
:1037A0007F0F16D080EA010000F00040704710B58E
:1037B00000F033F9097EFC3E00F005B880EA010014
:1037C00000F00040704780EA010000F0004000F087
:1037D0006AB912F47F0F04BF0248704780EA010003
:1037E00000F061B90000C07FC10DD1F19E0206DB7F
:1037F0004FEA002343F0004323FA02F070470042EF
:1038000007D54FEA4001B1F1FE4F02D24FF0000060
:10381000704710B500F001F94992248000207047EC
:103820006FEA200070474FF07E5209E011F000422D
:1038300004D54042C1F1000138BF491E42F07E521A
:103840000B0002F1706212BF20235FEA0001704793
:10385000B1FA81FCA3EB0C0301FA0CF120FA03FC92
:1038600002EBC352C3F1200341EA0C0110FA03FC3E
:103870005CEA416C42EB112018BF5FF0806C28BFFE
:1038800020F0010070470000B0FA80F310FA03F254
:10389000C3F19D030AD0D90501EB1220530638BFAE
:1038A000704700F1010008BF20F0010070470000E0
:1038B00050EA010C00F113801CF5000F58BFBCF555
:1038C000000F01D48842704707D710F5000F58BF8A
:1038D00011F5000F15D488427047894270471CF5D6
:1038E000000F04D5BCF5000FF7D5814270474FF0AB
:1038F000807C1CEB400F38BF1CEB410F01D2814292
:10390000704710B500F089F8922449004FF000503C
:103910004FF08051FFF79ABE4FF47F0C1CEAD01293
:103920001EBF1CEAD11392EA0C0F93EA0C0F00F0B1
:10393000478090EA010F48BF42F480724FF0004C7C
:103940004CEA00204CEA012102EB0302A0FB011328
:10395000A2F50002002918BF43F001035B0028BF55
:103960004FEA330342EB22425FEA132C4CEBC25086
:103970002EBFBCEB436FB2F57C0F70474FEA036C70
:10398000BCF1004F08BF20F00100B2F57C0F38BF3A
:1039900070470BD582F0FF0212F5803FC8BF704719
:1039A00000F1C040D8BF00F00040704700F5000CA7
:1039B0005FEA4C0C48BF7047B0F1C04000F073B8EC
:1039C00090EA010F0CEAD11348BF42F480726245BD
:1039D00038BF634504D280EA010000F00040704720
:1039E00010B500F01AF800BF8900013E00F007B8DA
:1039F00000F009B85FEA410C5FEA1C6C08D080EA6D
:103A0000010000F050B85FEA400C5FEA1C6CF6D190
:103A10004FF00040A0F5800070470EF1020E2EF02E
:103A2000030E5EF8044B244204D44FEA4102B2F183
:103A30007F4F11D84FEA4003B3F17F4F0CD80ED11E
:103A40004FEAD07CB2F17F4F0CEB4C0C0CF1020C26
:103A500008BF4CEBD17C04E04FF0080C01E04FEACA
:103A6000D17C0CEB4C0324FA03F404F00704B4F10A
:103A7000040C06D20EEB840CBDE810404CF0010C97
:103A80006047DFE80CF0070802024FF00040A0F5A5
:103A9000800010BD0846420018BFD2F1807288BF76
:103AA00000F0004010BDFF2141EAD050C005704732
:103AB00051EA000C00F113801CF5000F58BFBCF553
:103AC000000F01D48142704707D711F5000F58BF8E
:103AD00010F5000F15D481427047894270471CF5DC
:103AE000000F04D5BCF5000FF7D5884270474FF0A2
:103AF000807C1CEB410F38BF1CEB400F01D2884289
:103B0000704780EA010081EA000180EA0100FFF7C6
:103B1000F8BE00004FEAD051002988BFD1F1FF0262
:103B200040F2758001F17D014FEA002070B549082F
:103B300040F0004038BF40080EA2430E040CD25C97
:103B400002FB02F304FB03F3C3F14043A3FB025463
:103B5000ED0D45EA442202FB02F3A0FB03546D4243
:103B6000C4F1404438BF641EA2FB05350023E2FBCC
:103B70000453EA0B42EA4342A0FB023212F1400432
:103B8000A2F12103E40903F07F031F2B32D904EBD8
:103B9000C15070BDFEFAF7F3F0ECE9E6E4E1DEDCDB
:103BA000D9D7D4D2D0CECCCAC8C6C4C2C1BFBDBC7E
:103BB000BAB9B7B6B4B3B2B0AFAEACABAAA9A8A706
:103BC000A6A4A3A2A1A09F9E9E9D9C9B9A99989714
:103BD000979695949393929190908F8E8E8D8C8CD6
:103BE0008B8A8A898988878786868584848383826D
:103BF0008281818004FB04F6B6EB004603D5E642E1
:103C000048BF641CC3E7A64258BF641CBFE711F05D
:103C1000FF0F02D100F00040704710B5FFF7FDFE26
:103C20007FDBFFBE90EA010F48BF81F000413FF506
:103C3000ACAC421A04D882F00042A0EB020011445E
:103C40004FEAD0524FF07F4C1CEA410FA2EBD15308
:103C500018BF9CEA026F4AD04FF0004C4CEA00209B
:103C60004CEA012121FA03FCB0EB0C0C0FD412F04A
:103C7000FE0F36D05FEA4C001DD5001240EBC2505B
:103C800038BF70471CF03F0F18BF70470BE0A2F120
:103C900001025FEA1C2040EBC25038BF70471CF0A5
:103CA0007F0F18BF7047C3F12003994014BF401E17
:103CB00020F00100704780084FEA122308BF7047C8
:103CC000B0FA80FCA2EB0C02CCF1280C60FA0CF0EC
:103CD00093EA122F04BF00EBC25070474FEAC37043
:103CE0007047130A5FEADC1008BF7047F6E79CEAEA
:103CF000026F04D010EA5C0F08BF0020704710B5B7
:103D0000FFF78BFE40DFF63E81F000407047FCF786
:103D100053BC0CF00F03092B08BF082000F05180A2
:103D20000A2B0BD0082B18BF704708BF1CF0400FA0
:103D30000AD04FF000004FF0000170471CF0400F18
:103D400018BF4FF0004070471CF0100F08D020F053
:103D5000704300F07F4242EAD3014FEA437070475C
:103D600000F0604021F07F4242EA000201F07F4013
:103D700040EA727070474FF0FF0212EAD0521CBF47
:103D800092F0FF038B42C2BFD14200EBC15070479B
:103D9000002A0AD0002B0BD0002900F00040A4BF5D
:103DA00040F0FE4040F40000704700F000407047D3
:103DB00043024FF00B0C18BF4CF0806C7FF440AC0A
:103DC00070471CF4801F11D01CF4E02F03D06FEA61
:103DD000CC31490070474FF04050EFF3008222F0A1
:103DE000704242EA000282F3008870474FF0000000
:103DF00070470000000000000000002F00000000DD
:103E00000700070000147F147F1400242A7F2A1261
:103E10000062640813230036495522500000050350
:103E2000000000001C224100000041221C00001480
:103E3000083E08140008083E0808000000A06000C2
:103E40000008080808080000606000000020100852
:103E50000402003E5149453E0000427F40000042BE
:103E600061514946002141454B31001814127F1021
:103E7000002745454539003C4A4949300001710950
:103E8000050300364949493600064949291E000004
:103E900036360000000056360000000814224100AB
:103EA00000141414141400004122140800020151DB
:103EB000090600324959513E007C1211127C007FE4
:103EC00049494936003E41414122007F4141221C7F
:103ED000007F49494941007F09090901003E4149E4
:103EE000497A007F0808087F0000417F41000020D8
:103EF00040413F01007F08142241007F4040404084
:103F0000007F020C027F007F0408107F003E4141C9
:103F1000413E007F09090906003E4151215E007FB4
:103F2000091929460046494949310001017F01012B
:103F3000003F4040403F001F2040201F003F4038CE
:103F4000403F00631408146300070870080700610D
:103F50005149454300007F41410000552A552A55EB
:103F6000000041417F000004020102040040404083
:103F70004040000001020400002054545478007FA7
:103F80004844443800384444442000384444487F7E
:103F900000385454541800087E0901020018A4A4E3
:103FA000A47C007F080404780000447D40000040A9
:103FB00080847D00007F102844000000417F400085
:103FC000007C04180478007C080404780038444419
:103FD000443800FC242424180018242418FC007CF5
:103FE0000804040800485454542000043F4440206E
:103FF000003C4040207C001C2040201C003C403005
:10400000403C004428102844001CA0A0A07C004490
:1040100064544C44141414141414000000000000E0
:1040200000000000000000000000000000F8000098
:104030000000000000333000000000100C06100CDF
:104040000600000000000000000040C07840C0787A
:104050004000043F04043F040400007088FC083062
:104060000000001820FF211E0000F008F000E018FA
:10407000000000211C031E211E0000F008887000B3
:1040800000001E2123241927211010160E00000005
:1040900000000000000000000000000000E0180424
:1040A0000200000000071820400000020418E00091
:1040B00000000040201807000000404080F08040D1
:1040C00040000202010F01020200000000F00000A7
:1040D00000000101011F01010100000000000000BB
:1040E000000080B070000000000000000000000030
:1040F00000000001010101010101000000000000B9
:10410000000000303000000000000000000080606F
:104110001804006018060100000000E010080810F4
:10412000E000000F102020100F00001010F8000019
:1041300000000020203F20200000007008080888B0
:104140007000003028242221300000300888884880
:1041500030000018202020110E000000C02010F8B0
:10416000000000070424243F240000F80888880881
:1041700008000019212020110E0000E01088881886
:104180000000000F112020110E0000380808C83868
:1041900008000000003F0000000000708808088848
:1041A0007000001C222121221C0000E010080810D1
:1041B000E0000000312222110F00000000C0C0000A
:1041C000000000000030300000000000008000000F
:1041D000000000008060000000000000804020100F
:1041E0000800000102040810200040404040404008
:1041F000400004040404040404000008102040806B
:10420000000000201008040201000070480808089F
:10421000F0000000003036010000C030C828E8106F
:10422000E0000718272423140B000000C038E0002A
:104230000000203C23020227382008F88888887074
:104240000000203F202020110E00C0300808080880
:104250003800071820202010080008F80808081067
:10426000E000203F202020100F0008F88888E80890
:104270001000203F20202320180008F88888E80834
:104280001000203F200003000000C030080808385C
:10429000000007182020221E020008F8080000086D
:1042A000F808203F210101213F20000808F80808F4
:1042B00000000020203F2020000000000808F8082F
:1042C0000800C08080807F00000008F888C028189F
:1042D0000800203F20012638200008F808000000D0
:1042E0000000203F20202020300008F8F800F8F8D7
:1042F0000800203F003F003F200008F830C00008C1
:10430000F808203F200007183F00E01008080810B8
:10431000E0000F10202020100F0008F808080808FF
:10432000F000203F210101010000E0100808081002
:10433000E0000F18242438504F0008F88888888837
:104340007000203F2000030C30200070880808080F
:1043500038000038202121221C00180808F808081D
:1043600018000000203F2000000008F808000008A6
:10437000F808001F202020201F000878880000C8AF
:104380003808000007380E010000F80800F800089F
:10439000F800033C0700073C0300081868808068A9
:1043A000180820302C03032C30200838C800C838E7
:1043B00008000000203F2000000010080808C8384E
:1043C00008002038262120201800000000FE0202EC
:1043D00002000000007F40404000000C30C00000A0
:1043E0000000000000010638C00000020202FE00CA
:1043F0000000004040407F00000000000402020274
:1044000004000000000000000000000000000000A8
:104410000000808080808080808000020204000094
:10442000000000000000000000000000808080808C
:1044300000000019242222223F2008F8008080007A
:104440000000003F112020110E000000008080803D
:104450000000000E11202020110000000080808844
:10446000F800000E112020103F2000008080808086
:104470000000001F222222221300008080F0888882
:1044800088180020203F20200000000080808080CD
:104490008000006B94949493600008F80080808002
:1044A0000000203F210000203F200080989800005D
:1044B00000000020203F202000000000008098988D
:1044C000000000C08080807F000008F8000080802D
:1044D0008000203F24022D302000000808F8000052
:1044E00000000020203F202000008080808080800D
:1044F0008000203F20003F20003F8080008080809F
:104500000000203F210000203F20000080808080AC
:104510000000001F202020201F00808000808000DD
:10452000000080FFA12020110E000000008080808C
:104530008000000E112020A0FF80808080008080FD
:10454000800020203F21200001000000808080802A
:1045500080000033242424241900008080E080801F
:1045600000000000001F202000008080000000806C
:104570008000001F202020103F20808080000080CD
:10458000808000010E3008060100808000800080DD
:1045900080800F300C030C300F0000808000808082
:1045A00080000020312E0E312000808080000080AD
:1045B000808080818E70180601000080808080805D
:1045C00080000021302C22213000000000FE020279
:1045D00002000000007F40404000000C30C000009E
:1045E0000000000000010638C00000020202FE00C8
:1045F0000000004040407F00000000000402020272
:1046000004000000000000000000000000000000A6
:104610000000808080808080808000020204000092
:10462000000000000000000000000000808080808A
:1046300000000019242222223F2008F80080800078
:104640000000003F112020110E000000008080803B
:104650000000000E11202020110000000080808842
:10466000F800000E112020103F2000008080808084
:104670000000001F222222221300008080F0888880
:1046800088180020203F20200000000080808080CB
:104690008000006B94949493600008F80080808000
:1046A0000000203F210000203F200080989800005B
:1046B00000000020203F202000000000008098988B
:1046C000000000C08080807F000008F8000080802B
:1046D0008000203F24022D302000000808F8000050
:1046E00000000020203F202000008080808080800B
:1046F0008000203F20003F20003F8080008080809D
:104700000000203F210000203F20000080808080AA
:104710000000001F202020201F00808000808000DB
:10472000000080FFA12020110E000000008080808A
:104730008000000E112020A0FF80808080008080FB
:10474000800020203F212000010000008080808028
:1047500080000033242424241900008080E080801D
:1047600000000000001F202000008080000000806A
:104770008000001F202020103F20808080000080CB
:10478000808000010E3008060100808000800080DB
:1047900080800F300C030C300F0000808000808080
:1047A00080000020312E0E312000808080000080AB
:1047B000808080818E70180601000080808080805B
:1047C00080000021302C2221300000000000807C7D
:1047D000020200000000003F404000000000FF0017
:1047E000000000000000FF0000000002027C8000CA
:1047F00000000040403F00000000000601010202EE
:1048000004040000000000000000000000000000A0
:104810000000808080808080808000020204000090
:104820000000000000000000000000008080808088
:1048300000000019242222223F2008F80080800076
:104840000000003F112020110E0000000080808039
:104850000000000E11202020110000000080808840
:10486000F800000E112020103F2000008080808082
:104870000000001F222222221300008080F088887E
:1048800088180020203F20200000000080808080C9
:104890008000006B94949493600008F800808080FE
:1048A0000000203F210000203F2000809898000059
:1048B00000000020203F2020000000000080989889
:1048C000000000C08080807F000008F80000808029
:1048D0008000203F24022D302000000808F800004E
:1048E00000000020203F2020000080808080808009
:1048F0008000203F20003F20003F8080008080809B
:104900000000203F210000203F20000080808080A8
:104910000000001F202020201F00808000808000D9
:10492000000080FFA12020110E0000000080808088
:104930008000000E112020A0FF80808080008080F9
:10494000800020203F212000010000008080808026
:1049500080000033242424241900008080E080801B
:1049600000000000001F2020000080800000008068
:104970008000001F202020103F20808080000080C9
:10498000808000010E3008060100808000800080D9
:1049900080800F300C030C300F000080800080807E
:1049A00080000020312E0E312000808080000080A9
:1049B000808080818E701806010000808080808059
:1049C00080000021302C2221300000000000807C7B
:1049D000020200000000003F404000000000FF0015
:1049E000000000000000FF0000000002027C8000C8
:1049F00000000040403F00000000000601010202EC
:104A0000040400000000000000000000000000009E
:104A1000000080808080808080800002020400008E
:104A2000000000000000000000000000F8888888F6
:104A300088FF88888888F800000000001F080808A0
:104A4000087F888888889F80F000808282828282A6
:104A500082E2A2928A8682808000000000000040EC
:104A6000807F00000000000000002424A4FEA32298
:104A70000022CC0000FF00000000080601FF00013A
:104A80000404040404FF02020200101010FF10903E
:104A900008888888FF88888808000444827F01800D
:104AA0008040432C1028468180004040484848C838
:104AB000784F484848484840400000000000031232
:104AC000122222528A06000000000010608000FFBF
:104AD000000000FF0000C030000040404043407F25
:104AE0004040407F424140404000101010FF109075
:104AF00008888888FF88888808000444827F0180AD
:104B00008040432C1028468180000010101010D0E7
:104B100030FF30D0121C10100000100804020100F9
:104B200000FF00000102040810000000FE22222203
:104B3000FE00FE828292A29E000080601F024282DE
:104B40007F00FF402F102C438000000090884C57BE
:104B5000A42454548C840000000001018042221AD5
:104B600007024282423E010101000004E4242CB409
:104B7000252624B42C24E40400000000FF02011EBA
:104B80001212121E41827F0000000102020304057E
:104B9000060708090A0B0C0D0E0F10100102020384
:104BA0000405060708090A0B0C0D0E0F1010000073
:104BB00000000000000001020304060708090000CD
:104BC00000000102030404000008000000000000CF
:104BD000000200010000100002400000000000A0E0
:104BE0000000000005400000000000C800000000B8
:104BF0000C4000000000409C000000001940000034
:104C00000020BCBE0000000034400000BFC91B8E65
:104C100000000004B5400000504BCFD06607E2CF43
:104C2000010000006C4100003E8251AADFEEA73473
:104C300001000000D9420000DCB5A0E23A301F9725
:104C4000FFFFFFFFB4450000FD25A0C8E9A3C14F49
:104C5000FFFFFFFFFF3F000000000080000000009A
:104C6000FF3F00000000008000000000A84C00088A
:104C7000000000203000000028010008D84C000887
:104C80003000002068070000440100081C000000FC
:104C900043000000F8FFFFFF0C0000000E000000C2
:104CA0000F0000002E0000000000000000000000C7
:104CB0000000404100000000000000000000000073
:104CC00000000000000000000100000010000000D3
:084CD0000000000000127A0050
:04000005080000ED02
:00000001FF
