:020000040800F2
:10000000780D0020A1010008AF350008B9310008C3
:10001000AD350008111500084B3D00080000000038
:10002000000000000000000000000000033900088C
:1000300023160008000000000139000805390008F7
:10004000BB010008BB010008BB010008BB010008A0
:10005000BB010008BB010008BB010008BB01000890
:10006000BB010008BB010008BB010008ED1500083A
:10007000BB010008BB010008BB010008BB01000870
:10008000BB010008BB010008F5120008BB01000815
:10009000BB010008BB010008BB010008BB01000850
:1000A000BB010008BB010008BB010008BB01000840
:1000B00085390008BB010008BB010008BB0100082E
:1000C000BB010008BB010008BB010008BB01000820
:1000D000BB010008BB010008BB010008BB01000810
:1000E000BB010008BB010008BB01000800F002F8DA
:1000F00000F047F80AA090E8000C82448344AAF17B
:100100000107DA4501D100F03CF8AFF2090EBAE878
:100110000F0013F0010F18BFFB1A43F0010318473B
:100120004459000064590000103A24BF78C878C1CF
:10013000FAD8520724BF30C830C144BF04680C60ED
:10014000704700000023002400250026103A28BF35
:1001500078C1FBD8520728BF30C148BF0B60704739
:10016000662904F0B084002070471FB500F080FBC2
:1001700004000020002104F07DF8E0601FBD10B5F0
:1001800010BD00F079FC1146FFF7EFFF03F008FF08
:1001900000F097FC03B4FFF7F2FF03BC00F0DAFCB9
:1001A0000948804709480047FEE7FEE7FEE7FEE70B
:1001B000FEE7FEE7FEE7FEE7FEE7FEE70448054947
:1001C000054A064B7047000081390008ED00000821
:1001D00078070020780D0020780900207809002099
:1001E0000FB41CB50C0007AA009001D02044401E9B
:1001F000074B7B4469460190069800F018FB002CE1
:1002000003D06946002000F025FB1CBC5DF814FB00
:100210006906000070B5044685690068C10601D50D
:10022000302600E02026C00707D070BDD4E90121A8
:1002300030469047206A401C20626D1EF6D570BD86
:1002400070B5044685690078C00707D170BDD4E950
:10025000012120209047206A401C20626D1EF6D5A7
:1002600070BD00002DE9F05F894604464FF0000A9A
:10027000DFF824B1FB44C0F820A02046E16888479D
:1002800000287DD0252806D0D4E901219047206A96
:10029000401C2062F1E700255F462046E168884760
:1002A0002028064607DB312E05D2B81910F8200C9D
:1002B00008B10543F1E7A80701D525F00405C4F806
:1002C0001CA00027C4F818A02A2E09D0304603F03D
:1002D00097FD38B304EB8708303EC8F8186019E082
:1002E00059F8041B204604EB87029161E1688847B6
:1002F000012F064618D1E069002820DA25F02005F4
:100300001DE0D8F8180000EB800006EB4000303804
:10031000C8F818002046E1688847064603F070FDDB
:100320000028EED1012F0AD02E2E08D12046E168F8
:1003300088477F1C0646022F45F02005C4DBA069D4
:10034000002803DA404245F00105A061E80701D02A
:1003500025F01005A6B1A6F14100192802D82036D3
:1003600045F400654A463146204625604D46FFF774
:10037000F7FE60B1012807D0ED1D25F0070000E071
:1003800007E000F1080978E705F1040975E7304650
:100390007AE7206ABDE8F09F065700004FF00002A0
:1003A00000B5134694469646203922BFA0E80C506B
:1003B000A0E80C50B1F12001BFF4F7AF090728BF46
:1003C000A0E80C5048BF0CC05DF804EB890028BFC2
:1003D00040F8042B08BF704748BF20F8022B11F0EB
:1003E000804F18BF00F8012B704770477047704767
:1003F00010B500F041FA006810BD10B5044600F0D9
:100400003BFA046010BD70472DE9FF4F0C461E46B5
:100410004FF0FF378BB0D2E90001DDF860800A9021
:100420008A46C1F30A5505B93D46002108464FF0FA
:100430000000BAF1000F00F4400005DA00EB800084
:100440004FF4400101EA50004FEA9059B9F1010F11
:1004500000DDB9460A9850EA4A000ED044F6105022
:10046000A5F2FF3545432F14B8F1000F1ED0754299
:10047000291E1EDDC9F100021CE0B8F1010F4FF08A
:10048000000001D0302103E0F24305E02154401C7C
:10049000B042FBDB30460022002121540B99C1F809
:1004A0000880C1E900200FB0BDE8F08FBD1B6D1CB6
:1004B000DEE74A4600DA694206A800F067FA06ABB2
:1004C00093E8070003AB83E8070050460A9900F061
:1004D00048FB8DE80700A0F500501F3800900398F6
:1004E000002D0ADD42F21F014A460844002303A9F9
:1004F0000390684600F0B1FD09E0A0F500504A46BF
:100500001F38002303A90390684600F0BBFD8DE867
:1005100007000004000C03D04FF0FF30410800E05A
:100520001046B8F1000F03D00022009215461EE0DD
:10053000751E05D400F0A4F9303262556D1EF9D550
:10054000B3460122084302D000227F1C04E0207839
:10055000302801D100227F1E002A099784D01DE097
:10056000112D07DA00F08CF9303262556D1C50EA1B
:100570000102F5D1084302D00098C8B10EE0002175
:10058000681E05E0235C625C63542254401E491CD3
:100590008142F7DBAB46A81B401E0990002004F8FF
:1005A0000B000B98099AC0F80880C0E9002B7AE785
:1005B00011264FF0000857E72DE9F04F8846044612
:1005C000D21D22F0070191B0D1E90001CDE90A0165
:1005D00003F0E6FB02460B98C00F01D02D2007E088
:1005E0002068810701D52B2002E0202101EAC0000C
:1005F000032A099001D0072A05DB0346414620461D
:1006000000F084F90BE12078800601D5E06900E074
:100610000620B8F1650F814606D0B8F1660F18D0F4
:10062000B8F1670F70D131E00020B9F1110F0090DF
:1006300001DB112301E009F101030AAA01A90CA8B9
:10064000FFF7E2FEDDE90C70002609F101058346A3
:1006500047E001204B4600904FF000470AAA01A94D
:100660000CA8FFF7D1FEDDE90DB00C995D46002620
:1006700010B909F101000D18B9EB050003D4C0F160
:10068000FF3609F10105A5EB09002BE0B9F1010FD7
:1006900001DA4FF001090020B9F1110F009048462E
:1006A00001DD112300E003460AAA01A90CA8FFF707
:1006B000ABFEDDE90C704D4600268346207800072E
:1006C0000AD4AB4500DA5D4601A8012D04DD4119CD
:1006D00011F8011C302907D04F4502DA17F1040F39
:1006E00004DA012082460FE06D1EEEE7002F02DCE7
:1006F000ED1B3E4403E0781CA84200DD7D1CB81BC6
:1007000000F1010A4FF000472078000703D4AA4502
:1007100001DB4FF0FF3A0021B7F1004F0DF1430824
:100720008DF8431024D002202B23002F01DA7F42C2
:100730002D230A21021EA0F1010000DC5FB197FB0E
:10074000F1FC97FBF1F201FB1C7C17460CF1300C1D
:1007500008F801CDEEE7A8F1010003702188090532
:1007600001D5452100E06521A0F1010800F8011C38
:1007700009980FA9A1EB0807FF1D00B1012041193D
:1007800001EBEA70A1693844081A401EA061207884
:10079000C00602D42046FFF73DFD099828B1D4E9F0
:1007A00001219047206A401C20622078C00622D593
:1007B0002046FFF72FFD1EE0002E04DBB34502DDCF
:1007C00001A8805D00E03020D4E901219047206A33
:1007D000401C2062761CAAF101005FEA000A0AD1DF
:1007E00000F046F8C0680168405CD4E901219047F8
:1007F000206A401C2062281EA5F10105DCDC07E010
:10080000D4E9012118F8010B9047206A401C2062AE
:10081000381EA7F10107F3DC2046FFF711FD032086
:1008200011B041E601694A1C02610878704700B5C1
:100830008FB0CDE901310021059105497944CDE919
:10084000031011466846FFF70DFD0FB000BD000014
:10085000E5FFFFFF0A6802F8010B0A607047D1E963
:1008600000239A4202D2531C0B60107070470000A4
:1008700000487047380700200048704718070020DC
:1008800030B5B0F10A024FEA900E71F100034EEA62
:10089000817EB0EB0E0061EB91014FEA101E4EEA33
:1008A000017E10EB0E0041EB11114FEA102E4EEAC3
:1008B000016E10EB0E0041EB11214FEA104E4EEA93
:1008C000014E10EB0E0041EB1141401841F10001C7
:1008D0004FEAD00040EA41704FEAD10110EB8005A9
:1008E0004FEA810444EA907444EB01046D1944EB2F
:1008F0000404521BA3414FF0000348BF0A3200D545
:1009000030BD401C41F1000130BD00002DE9F04137
:100910001F46044603260168072A01F4006004DB31
:1009200008B116A505E016A503E008B115A500E07D
:1009300015A521F010002060A069C01EA0610FB1B4
:10094000401EA0612046FFF765FC4FB1D4E90121AC
:1009500038469047206A401C2062C01C206206E096
:10096000206AFAE7D4E9012115F8010B9047761EB9
:10097000F8D22046FFF764FCBDE8F0814E414E00FE
:100980006E616E00494E4600696E66002DE9F047C3
:10099000814616468AB0354878440DC88DE80D006A
:1009A00032487844801C03AC0DC884E80D0041F641
:1009B0009B300844372190FBF1F290FBF1F5A5F153
:1009C000800501FB12041B3C02D56442012000E0BB
:1009D0000020DFF898A080460027FA44AAF1BE0A5A
:1009E0000EE0E0070AD03246684607EB47010123D4
:1009F0000AEB810100F046FB8DE8070064107F1CC4
:100A0000002CEED1194F7F44AE3F19E0E80715D016
:100A100007EB04100DF1180A90E80E008AE80E00AA
:100A2000C068F04201D1981908903246012306A906
:100A300003A800F027FB03AB83E807006D10641CDC
:100A4000002DE3D14FF0010332466946B8F1000FA3
:100A500003A802D000F001FB01E000F013FBC9E99C
:100A60000001C9F808200AB0BDE8F087B0500000C6
:100A700000487047180700207546FFF7F9FFAE469B
:100A800005006946534620F00700854618B020B59A
:100A9000FFF794FBBDE820404FF000064FF0000741
:100AA0004FF000084FF0000B21F00701AC46ACE816
:100AB000C009ACE8C009ACE8C009ACE8C0098D4683
:100AC000704710B50446AFF300802046BDE81040E3
:100AD000FFF760BB4FF0013C50F8042B51F8043B8A
:100AE0009A4221D1A2EB0C03934313EACC1317D102
:100AF00050F8042B51F8043B9A4215D1A2EB0C0399
:100B0000934313EACC130BD150F8042B51F8043B58
:100B10009A4209D1A2EB0C03934313EACC13DBD026
:100B20004FF00000704700BFD01A01BAB1FA81F14E
:100B300001F0180122FA01F0CB40C1F12001DBB233
:100B4000C0B2C01A2CFA01F3D11A914311EAC311B1
:100B5000E6D1704701491820ABBEFEE7260002002F
:100B600070475FEA400C08BF91F0000F4FEA8C23FA
:100B70004FEAC12243EA51514FEA1C5018BF00F519
:100B8000F0404FEA300018BF41F000415FEA6C5C72
:100B900000F02980BCF1FF3F08BF40F08040704763
:100BA000130C06BF12044FF0100C4FF0000C130E84
:100BB00004BF12020CF1080C130F04BF12010CF158
:100BC000040C930F04BF92000CF1020CD30F04BF6E
:100BD00052000CF1010C11464FF00002A0F11F0071
:100BE000A0EB0C00704711F0004F08BF704731F0C8
:100BF00000413FF4D5AF0B0C06BF09044FF0100CB9
:100C00004FF0000C0B0E04BF09020CF1080C0B0F87
:100C100004BF09010CF1040C8B0F04BF89000CF117
:100C2000020CCB0F04BF49000CF1010CCCF12003E6
:100C3000A0EB0C0022FA03F302FA0CF241EA0301E2
:100C400000F10100704720F07F4C80EA030023F0A0
:100C50007F47ACEB070303F57C5300F0004003F142
:100C6000FF032DE980494FEA154B09B44FEA1443BD
:100C700025EA0B4E24EA03480FF2042606EB13275D
:100C800049083E785FEA320203FB0667C7F50007B2
:100C900007FB06F64FEA54374FEAD64606F102063E
:100CA00007FB066CCCF1005C4FEA1C472CEA074CB2
:100CB00007FB06F40CFB06F504EB15464FEA961607
:100CC00034BF00204FF000404FEAD13706FB07FC4D
:100CD0004FEA1C4C0CFB0BF7D21B03FB0CF761EB30
:100CE00007010CFB0EF7B0EB074072EB17420CFB51
:100CF00008F734BFA2EB0742B2EB074261EB1741A2
:100D00004FEA0C444FEA910706FB07FC4FEA1C4CE4
:100D10000CFB0BF7B0EBC74072EB573203FB0CF741
:100D200034BFA2EBC742B2EBC74261EB57310CFBB9
:100D30000EF7B0EBC70072EB57720CFB08F734BF2D
:100D4000A2EBC702B2EBC70261EB5771039F4FEAF8
:100D5000816141EA921104EBCC044FEAD1374FEAAA
:100D6000826206FB07FC42EA90124FEA80604FEA7B
:100D70001C4C0CFB0BF7D21B03FB0CF761EB0701C0
:100D80000CFB0EF7B0EB074072EB17420CFB08F7B9
:100D900034BFA2EB0742B2EB074261EB17414FEAC7
:100DA0008C554FEA910704EB9C2406FB07FC4FEAA5
:100DB0001C4C0CFB0BF7B0EBC74072EB573203FB3C
:100DC0000CF734BFA2EBC742B2EBC74261EB57311D
:100DD0000CFB0EF7B0EBC70072EB57720CFB08F779
:100DE00034BFA2EBC702B2EBC70261EB577115EB40
:100DF0004C254FEA816141EA92114FEA82624FEA43
:100E0000D13742EA901206FB07FC44F100044FEA96
:100E100080604FEA1C4C0CFB0BF7D21B03FB0CF75A
:100E200061EB07010CFB0EF7B0EB074072EB1742CA
:100E30000CFB08F734BFA2EB0742B2EB074261EBB1
:100E4000174115EB1C154FEA813141EA92414FEAF7
:100E5000823242EA90424FEA80304FEA0C7644F107
:100E6000000448EA03434EEA0B484FF0000EB2EB91
:100E7000080C71EB030724BF624639464EEB0E0E99
:100E80004FF0000B0018524149414BEB0B0BB2EBFA
:100E9000080C71EB03077BF1000B24BF6246394657
:100EA0004EEB0E0E4FF0000B0018524149414BEB38
:100EB0000B0BB2EB080C71EB03077BF1000B24BFAB
:100EC000624639464EEB0E0E51EA020718BF46F055
:100ED000010616EB0E7655F1000254F1000103D520
:100EE000BDE88901BDE80088BDE88901BDE800488A
:100EF000B619524141EB0101A3F101037047808013
:100F00007F7E7D7C7B7A7978777676757473727163
:100F100071706F6E6E6D6C6C6B6A6A69686867661B
:100F200066656464636362616160605F5F5E5E5DAD
:100F30005D5C5C5B5B5A5A59595858575756565521
:100F400055555454535352525251515050504F4F83
:100F50004F4E4E4D4D4D4C4C4C4B4B4B4A4A4A49D3
:100F60004949484848474747474646464545454416
:100F70004444444343434342424242414141002BA3
:100F80009C4630D477002BD01CB54FEA370703B40A
:100F90004FF010004FF01001BAF1000F06D0BCF175
:100FA000000FDCBF40F0080040F008014FF00000E7
:100FB0000FBCBDE810400BF1010BBBF1010F08BFE6
:100FC0005FEA170722BF12F1010211F101014FF090
:100FD000004143F1000300F0004043EA0000704785
:100FE000F9D35708D0E746EA064613F1400F4FEA17
:100FF00016461FDD13F1200FDFBF16430A460021FE
:1010000020335B42BED0C3F1200746EA064602FA0F
:1010100007F74FEA164646EA0706C3F1200722FA09
:1010200003F201FA07F721FA03F14FF0000342EA55
:101030000702A7E746EA020646EA06464FEA1646D0
:1010400046EA0106BCBF46EA0646360C4FF00003EE
:101050004FF000024FF0000194E72DE9804C9A46D2
:10106000934670B491E8380007C831EA400C48BF95
:1010700034EA430C03D5FFF7E6FDFFF780FFF0BC31
:10108000BDE8008C2DE9804C9A46934670B491E8F7
:10109000380007C810F0804F08BF13F0804F03D10D
:1010A00000F005F8FFF76BFFF0BCBDE8008C20F006
:1010B0007F4780EA030023F07F4C07EB0C03A3F586
:1010C0007C5300F00040A3F1FE0392F0000F00F00B
:1010D000B38095F0000F00F077802DE901494FEAC9
:1010E00011404FEA144621EA004800FB06FC24EABE
:1010F000064708FB06F607FB08F800FB07F718EBA6
:1011000006484CEB164C4FEA124B18EB07484FEAD7
:1011100015464CEB174022EA0B4E0BFB06FC25EA6A
:1011200006470EFB06F607FB0EFE0BFB07F71EEB52
:10113000064E4CEB164C4FF000061EEB074E4CEBE8
:10114000174B18EB0B0840F1000018EB0E0B58EB97
:10115000000840F100008F1A4FF000013CBFC94366
:10116000661B14BFB5EB040C00213CBFC943F61B42
:101170004FEA17444EEA8E0E27EA04454FEA1C4711
:1011800004FB07622CEA074C05FB07F70CFB05F68E
:1011900004FB0CFC16EB074642EB174216EB0C4621
:1011A00042EB1C421BEB060658EB0202414146EAA9
:1011B0009E0601D5BDE80189B619524141EB0101F6
:1011C000A3F10103BDE801894FEA14454FEA114735
:1011D00024EA054621EA074C05FB07F406FB07F75E
:1011E0000CFB06F105FB0CFC11EB074144EB17442B
:1011F0004FEA124711EB0C4144EB1C4422EA074C26
:1012000005FB07F206FB07F70CFB06F605FB0CFCDB
:1012100016EB074642EB174216EB0C4642EB1C4519
:101220006A1854F1000148BF7047B619524141EBAA
:101230000101A3F10103704795F0000F37D04FEA89
:1012400011424FEA144721EA024624EA074C02FB06
:1012500007F106FB07F70CFB06F402FB0CFC14EB92
:10126000074441EB17414FEA154714EB0C4441EB9F
:101270001C4125EA074C02FB07F506FB07F70CFBB0
:1012800006F602FB0CFC16EB074645EB174516EB82
:101290000C4645EB1C42121951F1000148BF704742
:1012A000B619524141EB0101A3F1010370474FEA26
:1012B00014454FEA114724EA054621EA074C05FB8D
:1012C00007F106FB07F70CFB06F24FF0000605FBE3
:1012D0000CFC12EB074241EB174112EB0C4251EBB5
:1012E0001C4148BF7047921841EB0101A3F1010373
:1012F0007047000010B5044800F045FBBDE8104001
:10130000024800F040BB00009C050020CC050020F6
:1013100070B5044600688168C943C90717D1816860
:1013200021F00101816000F09FFF05460AE000BF47
:1013300000F09AFF401B022804D920688068C0434F
:10134000C00706D020688068C043C007F0D00020E6
:1013500070BDA06A40F01000A062E06A40F0010099
:10136000E062012070BD10B50146406A826A12F049
:10137000500F05D0006A026BBDE8104008461047C8
:10138000816A41F40071816201688968C1F3424158
:1013900007290CD1017B51B9816A21F480718162E6
:1013A000816AC90403D4816A41F00101816200F0BD
:1013B000AFFA10BD10B5406A816A41F04001816208
:1013C000C16A41F00401C16200F0D9FA10BD10B544
:1013D000406A00F0D3FA10BDF8B500260446009626
:1013E00000688168C943C9072DD0816841F00101B7
:1013F0008160164816490068B0FBF1F000E0401E1D
:1014000000900028FBD100F02FFF054616E000BF3A
:1014100000F02AFF401B022810D920688068C043D2
:10142000C0070BD0A06A40F01000A062E06A40F054
:101430000100E06284F824600120F8BD2068806823
:10144000C043C007E4D10020F8BD000054000020D4
:1014500040420F0010B590F80021D0F8043130F868
:1014600012401B1BC0F8043120F81210D0F80421E0
:101470005318C0F8043190F80011491CC9B280F823
:10148000001190F80921914202D3002180F8001147
:1014900090F80811914202D2491C80F80811C8B294
:1014A000B3FBF0F080B210BD70B590F800520E465C
:1014B000044650F82510D0F8040203F08FFAC4F85F
:1014C000040244F82560D4F80402314604F500749F
:1014D00002F018FF054660602078401CC0B2207002
:1014E000617AA4F50074884202D3002084F80002D7
:1014F00094F80802884202D2401C84F80802C0B264
:1015000003F09EF801462846BDE8704002F06EBF29
:10151000FEE7000070B52A4D2E88304603F090F8A3
:10152000284903F0D5F86FF00B0103F000FB2649C2
:1015300003F0CEF8A5F140046061D4E90C01E6FBAC
:101540000601C4E90C01A288521C92B2A280642A4E
:1015500009D3A063E163207840F0010020700020EF
:10156000C4E90C00A08069881848FFF773FF208148
:10157000A9881748FFF76EFF6081E9881548FFF7D3
:1015800069FFA081144E6069314602F02FFF0546C5
:101590003146206902F02AFF01462A460F4802F030
:1015A0006FF90F4903F094F802F0E2FF0D4980B2A1
:1015B000608009684863BDE870400B4800F0D6BB06
:1015C000400000203333534048E1BE405800002023
:1015D00064010020700200200000A0418805002066
:1015E0000000344540060020CC050020014800F0F2
:1015F00023BC0000FC05002030B590F840500124C9
:10160000AC40C56B6C60046863604368102B036872
:1016100003D099600068C26030BD9A600068C16004
:1016200030BD704772B6FEE7802900D9802180F86E
:101630000912002280F80022C0F8042280F8082253
:101640004FEA020140F82120491C8029FADB70474B
:10165000802900D9802180F80911002280F800211A
:10166000C0F8042180F808214FEA020120F8112077
:10167000491C8029FADB704770B502F0E1FF264D66
:10168000294603F025F86FF00B0103F050FA0446E9
:10169000A8421EDA214884421BDD2146284603F079
:1016A0009DF905461E49204603F012F8294602F02E
:1016B0009DFE01464FF07E55284602F097FE1949DF
:1016C00003F08CF90146284602F090FEB0F5000FB9
:1016D00001DA002070BD02F09BFB0446014602F0D7
:1016E000F7FF214602F0F4FF0F4902F0F1FF064632
:1016F0000E49204602F0ECFF0D4902F003FE314690
:1017000002F000FE0146284602F070FEBDE870407F
:10171000084903F063B9000033335340CDCCCC3DCE
:1017200000803B4517B75139C63FF8338BCA6B3938
:101730008B31853A33938843F8B5002504460095EC
:1017400090F8240001280BD0012084F824002046C2
:10175000FFF7DEFD2046FFF73FFE060002D050E017
:101760000220F8BDA06A20F4885040F00200A06278
:10177000022000F017FE25490968B1FBF0F0400097
:1017800000E0401E00900028FBD12068816841F0F5
:101790000801816000F068FD074608E000F064FD84
:1017A000C01B0A2803D920688068000715D4206868
:1017B00080680007F2D42068816841F004018160EC
:1017C00000F052FD074612E000F04EFDC01B0A2853
:1017D0000DD920688068400709D5A06A20F0020072
:1017E00040F01000A06284F824500120F8BD206869
:1017F00080684007E8D4A06A20F0020040F00100B1
:10180000A06284F824503046F8BD00005400002047
:1018100070470000F8B50024009490F82420254675
:10182000012A12D0012280F824204A681F23072AA7
:101830000DD20668776B521E02EB820293409F43E3
:101840000B6893401F43776319E00220F8BD0668D8
:101850000D2A0AD2376BD21F02EB820293409F43BC
:101860000B6893401F43376309E0F76A0D3A02EBB8
:10187000820293409F430B6893401F43F7620A68BC
:10188000072306680A2A0AD3F7680A3A02EB4202DB
:1018900093409F438B6893401F43F76008E037698C
:1018A00002EB420293409F438B6893401F43376192
:1018B0000A68102A01D0112A20D1124B02689A42DC
:1018C00017D193681B0219D4936843F40003936003
:1018D0000968102912D10C490C4A0968B1FBF2F1D0
:1018E00001EB8101490000E0491E00910029FBD174
:1018F00004E0816A41F020018162012480F82450D3
:101900002046F8BD002401405400002040420F0052
:1019100010B500681549884227D1154800F030F805
:10192000144CE080E08802F08BFE134902F0D0FEF8
:101930006FF00B0103F0FBF84FF07F5103F04EF80E
:10194000014602F0C5FEA16A02F0DCFCA062E1895A
:10195000491C89B2E181642907D3E061207840F015
:10196000020020700020A062E08110BD002801402C
:10197000CC050020000000203333534070477047EF
:101980000068C06C704770B504460068066845681A
:10199000A90625D5B10723D5A16AC90603D4A16A32
:1019A00041F40071A1628168C1F34241072910D15D
:1019B000217B71B9416821F020014160A06A20F4C7
:1019C0008070A062A06AC00403D4A06A40F0010045
:1019D000A0622046FFF79CFF21686FF012000860AC
:1019E00028062ED570072CD5A06AC00603D4A06A9D
:1019F00040F40050A06220688168C1F302310729D9
:101A000009D04168490515D48168C1F342410729CD
:101A100010D1217B71B9416821F080014160A06A39
:101A200020F48050A062A06AC00503D4A06A40F0F0
:101A30000100A0622046FFF7EBFE21686FF00C006A
:101A4000086068060CD5F0070AD0A06A40F4803020
:101A5000A062204600F094F821686FF00100086051
:101A600070BD00002DE9F0414FF0000704003D4635
:101A70007ED0A06A002628B9E66284F82460204659
:101A800000F080F82046FFF743FCA16AC90600D4A5
:101A900020B1A06A40F01000A06269E0A16A21F4C0
:101AA000885141F00201A1626268E169237B0A4327
:101AB00047EA43010A43A1684FF48077B94209D04D
:101AC000012907D05FF0000194F814C0BCF1010FA8
:101AD00002D00AE03946F7E7F3B1A36A43F02003E6
:101AE000A362E36A43F00103E3622368D3F804C00E
:101AF0002CF4694C4CEA010CC3F804C021688B68D3
:101B0000DFF870C003EA0C0313438B60A168B9428D
:101B10000BD0012909D00CE0DFF85CC0A3690CEB05
:101B200043330B4343F40061DFE7218A0D05A5F53C
:101B300080152168CB6A23F470032B43CB622168A4
:101B400089680E4B1940914208D1E662A16A21F0E2
:101B5000020141F00101A162BDE8F081A06A20F01C
:101B6000020040F01000A062E06A40F00100E06274
:101B70000120F1E7FDF7E1FF00E0FFFFFE0E1FFF90
:101B80007047000070B586B0002600960196029658
:101B9000039605462C4C02682C4903202C4BA2428C
:101BA0002ED18A6942F400728A618A6902F4007255
:101BB00004928A6942F004028A61896901F0040191
:101BC0000491E421CDE900106946184600F056FA68
:101BD000214C2048C4E900068020C4E9026040008E
:101BE0002061800060612020A0610002E061204649
:101BF00000F0CCF908B1FFF715FD2C62656219E021
:101C0000164CA2421ED18A6942F480628A618A69B6
:101C100002F4806204928A6942F004028A6189694E
:101C200001F0040104911021CDE900106946184625
:101C300000F024FA00220121122000F081FB122082
:101C400000F070FB06B070BD00240140001002409F
:101C50000008014008000240FC0500200028014067
:101C60002DE9F047894604463B4900683B4F0E1D6D
:101C70009046884201D0B84207D1306810F4702FE6
:101C800003D001252846BDE8F08794F824000128F8
:101C90000CD0012084F824002046FFF79DFB0500AE
:101CA0004FF0000004D084F82400EBE70220EAE7BC
:101CB000A16A40F60162914341F48071A1622168FA
:101CC000B94218D1326812F4702F14D0A16A41F4CD
:101CD0008011A1623168490505D5A16A21F400513E
:101CE00041F48051A162A16AC9040AD5E16A21F0D8
:101CF0000601E16206E0A26A22F48012A26249684B
:101D0000E9E7E06284F82400216A15488862216AC4
:101D10001448C862216A1448086321686FF0020001
:101D200008602068816841F48071816021684346C1
:101D30004A464C31206A00F057F920688168C1F3A7
:101D400042410729816803D041F48011816099E7FD
:101D500041F4A001FAE700000024014000280140FE
:101D600067130008CF130008B513000870B50446C8
:101D700090F8240001280DD0012084F8240020468A
:101D8000FFF72AFB02004FF0000005D084F8240082
:101D9000104670BD022070BDA16A40F601639943F0
:101DA00041F48071A162224D23682249AB4218D1CF
:101DB0000E6816F4702F14D0A66A46F48016A66238
:101DC0000E68760505D5A66A26F4005646F48056B8
:101DD000A662A66AF6040AD5E66A26F00606E66258
:101DE00006E0A66A26F48016A6625E68E9E7E0626D
:101DF00084F824006FF0020018602068436843F004
:101E00002003436020688368C3F34243072B05D156
:101E1000A84208D1096811F4702F04D0816841F4F8
:101E200080118160B4E7816841F4A001F9E7000006
:101E300000280140042401402DE9F05FC16B0C68CB
:101E400001680B68D0F840C0042202FA0CF2494D38
:101E5000DFF824A1494E4A4FDFF828B1DFF828E126
:101E600022422CD05A072AD50A68920603D40A685F
:101E700022F004020A600168A94201D1042219E09B
:101E8000514501D1402215E0B14202D14FF48062A8
:101E900010E0B94202D14FF480420BE0594502D123
:101EA0004FF4802206E0714502D14FF4800201E038
:101EB0004FF080622F4908394A60C16A3BE04FF019
:101EC000020808FA0CF818EA040F4FF000094FF066
:101ED000010235D05FEA837832D50B689B0605D4C2
:101EE0000B6823F00A030B6080F821200168A942E7
:101EF00001D1022219E0514501D1202215E0B14261
:101F000002D14FF4007210E0B94202D14FF40052F6
:101F10000BE0594502D14FF4003206E0714502D181
:101F20004FF4001201E04FF00072124908394A6084
:101F300080F82090816A00291AD0BDE8F05F084738
:101F4000082505FA0CF5254212D01B0710D50B68A1
:101F500023F00E030B6090F84010C36B02FA01F1FE
:101F60005960826380F8212080F82090016BE2E7BD
:101F7000BDE8F09F080002401C0002403000024013
:101F800044000240580002406C00024030B528B3C3
:101F900008C8134914221944B1FBF2F18900C16346
:101FA00010498163022141771A6843F6F0718A4330
:101FB000D0E900142143D0E902452C4321430469B0
:101FC000214344692143846921431143196000215D
:101FD0004163012242770177084630BD012030BDC0
:101FE000F8FFFDBF0000024070B5044690F82000E5
:101FF000002501280CD0012084F8200094F82160ED
:102000000020012E06D084F820000225284670BD4D
:10201000022070BD022684F82160A0632068066853
:1020200026F0010606602046FFF7E6FAE06A00287F
:102030002068016802D041F00E0106E021F00401A1
:1020400001602068016841F00A01016020680168B0
:1020500041F001010160D9E770B5044600F004F9D0
:102060000546601C02D004480078044400F0FCF8E7
:10207000401BA042FAD370BD480000202DE9F84F64
:10208000DFF8B8910024A9F1040B23460F2709F1CA
:10209000040AABF1040EC9E00125A5402A40AA427A
:1020A0007DD1674ED1F804C0ACEB0608B44532D000
:1020B00014DCBCF1030F3AD009DCBCF1000F2AD0CC
:1020C000BCF1010F1CD0BCF1020F31D11DE0BCF1FD
:1020D000110F17D0BCF1120F2AD119E0B8F5881FE3
:1020E00019D006DCB8F5803F15D0B8F5801F1FD198
:1020F00011E0B8F5001F0ED0B8F5041F18D10AE0A2
:10210000CB6815E0CB681B1D12E0CB6808330FE0ED
:10211000CB680C330CE08B682BB1012B4FF008031C
:1021200003D0456104E0042302E0056100E00023E0
:10213000FF2A01D8064601E000F104064FEA8405B3
:1021400001D9A5F12005D6F8008007FA05FC28EA98
:102150000C0803FA05F548EA0508C6F800804D6842
:10216000ED0062D5374DAE6946F00106AE61AD694E
:1021700024F0030605F001050095334D06EB050C30
:10218000DCF80850A607360F07FA06F825EA080516
:10219000DFF8B880404503D14FF0000817E044E075
:1021A000DFF8AC80404502D14FF001080FE0DFF8C6
:1021B000A480404502D14FF0020808E0DFF8988083
:1021C000404502D14FF0030801E04FF0040808FA3F
:1021D00006F848EA0508CCF808804D68D9F8006090
:1021E000ED024D4601D5164300E096432E604D6842
:1021F000DAF80060AD02554601D5164300E096437B
:102200002E604D68DBF80060AD035D4601D51643D6
:1022100000E096432E604D68DEF80060ED037546E1
:1022200001D5164300E096432E60641C0D682A46D3
:10223000E5407FF431AFBDE8F88F000008040140AD
:102240000000111000100240000001400008014091
:10225000000C014000100140001401400AB101616E
:1022600070470904FBE700000148806870470000E0
:10227000480000200248816802781144816070475C
:1022800048000020074810B5016841F010010160C6
:10229000032000F075F80F2000F006F800F024F895
:1022A000002010BD0020024070B50D4D04464FF4D3
:1022B0007A712878B1FBF0F00A490968B1FBF0F0B7
:1022C00000F0A4FB48B9102C07D200222146501E72
:1022D00000F036F800206C6070BD012070BD000079
:1022E00048000020540000200C4808B5816941F0E6
:1022F00001018161816901F001010091C16941F031
:102300008051C161C06900F080500090044841686C
:1023100021F0E06141F00071416008BD0010024011
:1023200000000140002809DB00F01F02012191405C
:102330004009800000F1E020C0F800117047000063
:10234000F0B40E4B1B680C46C3F30223C3F1070520
:10235000042D00D90425191D072901D2002300E00E
:10236000DB1E012606FA05F1491E214099409E40D8
:10237000761E16403143F0BC01F026BD0CED00E0A6
:10238000064900F0070208684FF6FF03184040EACC
:102390000220034A10430860704700000CED00E083
:1023A0000000FA0510B501460020234C012922D077
:1023B000022939D010291DD161682268D20119D5AE
:1023C0001E48C1F38342C903805C0AD561681B4A79
:1023D000C1F34041921E515C194AB2FBF1F14843EE
:1023E00001E0184948436168490203D440000321D1
:1023F000B0FBF1F010BD226AC2F30121012903D123
:10240000920701D5C80310BD022905D1626A92075F
:1024100002D549F6404010BD0329FCD1216889034B
:10242000F9D54FF2244010BD00F02AF96168C1F3DC
:102430008131491C4900DBE7001002405659000871
:1024400000127A0000093D002DE9F84305460078A6
:10245000354CC00754D0E0690026C00008D4E069BC
:1024600040F08050E061E069012600F0805000906B
:102470002E480168C90512D40168804641F4807174
:102480000160FFF7F1FE074605E000BFFFF7ECFE35
:10249000C01B642823D8D8F80000C005F6D5206AF0
:1024A00010F4407021D0A98801F4407181421CD001
:1024B000206A1F49012220F440700A6000220A604D
:1024C0002062C00711D0FFF7CFFE074641F28838DF
:1024D00008E000BFFFF7C8FEC11B414502D9032039
:1024E000BDE8F883206A8007F4D5206A696820F483
:1024F0004070084320621EB1E06920F08050E06126
:102500002878800705D56068A96820F44040084312
:1025100060602878C00605D56068E96820F480000E
:10252000084360600020DBE70010024000700040BC
:10253000400442422DE9F0470F46050061D0434E6A
:10254000306800F00700B84209D2306820F0070078
:1025500038433060306800F00700B84251D1286835
:102560003B4C810712D5400703D5606840F4E0601A
:1025700060602878000703D5606840F460506060B0
:102580006068A96820F0F000084360602878C00700
:1025900028D06868012810D02168022810D0890747
:1025A00000292EDA616821F0030101436160FFF721
:1025B0005BFE804641F288390DE021688903EFE730
:1025C0008901EDE7FFF750FEA0EB0801494502D96C
:1025D0000320BDE8F0876068696800F00C00B0EB8C
:1025E000810FEFD1306800F00700B8420BD9306896
:1025F00020F0070038433060306800F00700B84230
:1026000001D00120E5E72878400705D56068E96832
:1026100020F4E060084360602878000706D5606811
:10262000296920F4605040EAC100606000F038F889
:102630006168084AC1F30311515CC840064908604B
:1026400006480068FFF730FE0020C2E70020024085
:102650000010024066590008540000204C00002081
:102660000448054900684968044AC1F30221515CE5
:10267000C8407047540000200010024076590008FE
:102680000448054900684968044AC1F3C221515C05
:10269000C8407047540000200010024076590008DE
:1026A0000E4A51680E4801F00C03042B11D0082B80
:1026B0000FD10C48C1F38343C903C05C0AD55168EC
:1026C000084AC1F34041921E515C054A5043B0FB99
:1026D000F1F0704704494843704700000010024081
:1026E00000127A004459000800093D002DE9F84F16
:1026F000040070D02078C04DC00749D06868C0F38E
:102700008100012807D06868C0F38100022809D140
:102710006868C00306D52868800339D5606800283A
:10272000E7D035E06068B0F5803F0BD010B1B0F570
:10273000A02F11D0286820F480302860286820F469
:10274000802002E0286840F480302860606890B102
:10275000FFF78AFD06460AE0286840F480202860DA
:10276000F0E700BFFFF780FD801B642873D828685E
:102770008003F7D50CE0FFF777FD064605E000BFC4
:10278000FFF772FD801B6428F0D828688003F7D417
:1027900020789A4E80074FF001094FF0000839D594
:1027A000686810F00C0F07D06868C0F38100022839
:1027B00009D16868C00306D42868800714D5206949
:1027C000012808D110E02069B0B1C6F80090FFF7E9
:1027D0004BFD074605E00AE1FFF746FDC01B022856
:1027E000C4D828688007F7D52868616920F0F80008
:1027F00040EAC10028600DE0C6F80080FFF734FD14
:10280000074604E0FFF730FDC01B022823D82868E4
:102810008007F7D4207800072CD57948A169D9B171
:10282000C0F80090FFF720FD074604E0FFF71CFD0D
:10283000C01B02280FD8686A8007F7D571484FF48B
:10284000FA510068B0FBF1F0009000BF0098411E03
:102850000091FAD20EE080E0C0F80080FFF704FD9E
:10286000074604E0FFF700FDC01B022875D8686A20
:102870008007F7D42078400760D5E8690027C000BA
:1028800008D4E86940F08050E861E869012700F069
:10289000805000905C480168C90513D401688346E4
:1028A00041F480710160FFF7DFFC824606E000BF63
:1028B000FFF7DAFCA0EB0A0064284ED8DBF8000032
:1028C000C005F5D5E06801280AD008B1052813D065
:1028D000286A20F001002862286A20F0040002E043
:1028E000286A40F001002862E06841F2883B98B114
:1028F000FFF7BAFC82460BE0286A40F00400286229
:10290000EEE700BFFFF7B0FCA0EB0A0159455AD82B
:10291000286A8007F6D50CE0FFF7A6FC824605E0A2
:10292000FFF7A2FCA0EB0A0159454CD8286A8007A2
:10293000F6D41FB1E86920F08050E861E06988B3FF
:102940006968C1F38101022944D00228C6F8608079
:1029500004D0FFF789FC044638E034E0FFF784FC3C
:10296000074604E0FFF780FCC01B02282BD828682C
:102970008001F7D4206AB0F5803F05D16868A1686E
:1029800020F4003008436860D4E90801084369680E
:1029900021F4741108436860C6F86090FFF764FC86
:1029A000044606E025E000BFFFF75EFC001B02289E
:1029B00009D828688001F7D51BE000BFFFF754FC59
:1029C000001B022802D90320BDE8F88F2868800187
:1029D000F4D40EE00128F7D06868226A00F4803150
:1029E000914204D1616A00F47010884201D0012044
:1029F000EAE70020E8E70000001002400000424241
:102A000080044242540000200070004010B5401E77
:102A1000B0F1807F01D3012010BD4FF0E024606150
:102A20000F21601701F0D0F90020A061072020617C
:102A3000002010BD7047704710B590F83C20012A67
:102A400022D0012280F83C20CA688C6822F44072AF
:102A500022434C6822F4806222430C6822F4006214
:102A600022430C6922F4805222434C6922F4005222
:102A70002243C969002322F480420A4301684A6460
:102A800080F83C30002010BD022010BD70B590F8D9
:102A90003C20012A26D0012480F83C40022280F804
:102AA0003D2003685A689D6822F070060A68324328
:102AB0005A600D4B02689A4208D0B2F1804F05D09F
:102AC0000A4B9A4202D00A4B9A4204D1496825F037
:102AD00080031943916080F83D40002180F83C104C
:102AE000084670BD022070BD002C0140000400406B
:102AF0000008004010B5040003D094F83D0010B168
:102B000007E0012010BD002084F83C00204600F0C2
:102B10001FF8022084F83D00211D206800F038FFD6
:102B2000012084F8460084F83E0084F83F0084F8D1
:102B3000400084F8410084F8420084F8430084F89F
:102B4000440084F8450084F83D00002010BD0000DA
:102B500008B5114A01681148914208D1816941F4D0
:102B600000618161806900F40060009008BDB1F1EE
:102B7000804FFBD1C16941F00101C161C0690022F0
:102B800000F00100009011461C20FFF7D9FBBDE8C2
:102B900008401C20FFF7C6BB002C0140001002407B
:102BA00090F83D10012901D001207047022180F8E2
:102BB0003D100168CA6842F00102CA6000680B4912
:102BC000884208D0B0F1804F05D00949884202D030
:102BD0000849884204D1816801F00701062903D021
:102BE000016841F00101016000207047002C0140A4
:102BF000000400400008004070B5044690F83C0016
:102C00000025012817D0012684F83C60022084F8B2
:102C10003D002068826822F0770222F47F428260C1
:102C20000868502838D00DDC20284FD005DC90B340
:102C3000102811D14AE0022070BD302846D040282B
:102C40000AD13BE060282FD070280DD0B0F5805F0E
:102C500003D0B0F5005F12D0012584F83D6000205C
:102C600084F83C00284670BDCB68D1E9012120687A
:102C700000F0D7FE2068816841F0770109E0CB6859
:102C8000D1E90121206800F0CCFE2068816841F480
:102C900080418160E1E719E0CA684968206800F076
:102CA00075FF5021206806E0CA684968206800F076
:102CB0007EFF6021206800F0BEFECEE7CA6849684A
:102CC000206800F063FF40212068F4E72268014695
:102CD0001046F0E770472DE9F04104460068C668E9
:102CE00005694FF00007A90713D5B10711D5F91EE3
:102CF000016101202077206880698007204602D08A
:102D0000FFF7E8FF04E000F0B1F8204600F043F9D7
:102D10002777680716D5700714D521686FF004006F
:102D20000861022020772068806910F4407F2046E7
:102D300002D0FFF7CFFF04E000F098F8204600F043
:102D40002AF92777280715D5300713D521686FF0A2
:102D500008000861042020772068C06980072046A9
:102D600002D0FFF7B7FF04E000F080F8204600F043
:102D700012F92777E80616D5F00614D521686FF00A
:102D800010000861082020772068C06910F4407F97
:102D9000204602D0FFF79EFF04E000F067F82046CF
:102DA00000F0F9F82777E80708D0F00706D0216887
:102DB0006FF001000861204600F03CF9280608D5B4
:102DC000300606D521686FF0800008612046FFF7C5
:102DD00031FE680608D5700606D521686FF0400000
:102DE0000861204600F02DF9A8060AD5B00608D5DE
:102DF00021686FF0200008612046BDE8F041FFF730
:102E00001ABEBDE8F081000010B586B00021009127
:102E1000019102910391124C036812490222124857
:102E2000A34209D18B6943F004038B61896901F0E6
:102E30000401049181150BE0B3F1804F0ED18B6931
:102E400043F004038B61896901F0040104910121BD
:102E5000CDE9001269460392FFF710F906B010BDE4
:102E6000002C01400010024000080140704770B57E
:102E7000044690F83C0000260D4601280FD00120A2
:102E800084F83C006AB1042A1DD0082A2FD00C2AED
:102E90003FD00126002084F83C00304670BD02205F
:102EA00070BD206800F0D0FD2068816941F0080104
:102EB00081612068816921F0040181612068816954
:102EC0002A69114311E0206800F0E6FD206881695D
:102ED00041F4006181612068816921F48061816130
:102EE000206881692A6941EA02218161D2E720686C
:102EF00000F0FEFD2068C16941F00801C161206851
:102F0000C16921F00401C1612068C1692A691143C6
:102F100011E0206800F018FE2068C16941F40061EA
:102F2000C1612068C16921F48061C1612068C16903
:102F30002A6941EA0221C161ACE710B5040003D05F
:102F400094F83D0010B107E0012010BD002084F886
:102F50003C00204600F01EF8022084F83D00211DB0
:102F6000206800F015FD012084F8460084F83E003A
:102F700084F83F0084F8400084F8410084F842005F
:102F800084F8430084F8440084F8450084F83D0048
:102F9000002010BD7047704710B50446022249B1A9
:102FA00004290ED0082913D094F84100012816D026
:102FB000012010BD94F83E000128F9D184F83E208C
:102FC0000FE094F83F000128F2D184F83F2008E098
:102FD00094F840000128EBD184F8402001E084F807
:102FE00041200122206800F00FFD0F49206888422F
:102FF00003D1426C42F4004242642068884208D007
:10300000B0F1804F05D00949884202D00849884272
:1030100004D1816801F00701062903D0016841F05D
:1030200001010160002010BD002C0140000400409F
:10303000000800400068B0F1804F01D1FEF76ABA85
:103040007047704770B5040004D094F84100002523
:1030500010B106E0012070BD84F84050204600F019
:1030600023F8242084F841002068C16821F400512D
:10307000C160204600F0D4FD2068016921F4904130
:1030800001612068416921F02A0141612068C1681D
:1030900041F40051C1606564202084F8410084F847
:1030A00042006563002070BD30B585B000240094F7
:1030B00001940294039400681449884224D114486E
:1030C000C16941F48021C161C16901F48021049189
:1030D000816941F00801816180690E4D00F00800AE
:1030E00004904FF480600090022001900320039030
:1030F00069462846FEF7C2FFE814CDE90004694698
:1031000028460294FEF7BAFF05B030BD00480040E3
:1031100000100240000C01402DE9F843044690F8ED
:103120004100984616460D46202802D00220BDE8F0
:10313000F88385B17EB100206064212084F84100CD
:10314000FFF792F8A6848146E684A0682027B0F5B0
:10315000805F02D003E00120E9E7206910B12E462C
:1031600000250EE000260CE08021204600F0B4FD92
:10317000A8B9C6B116F8010B21684860E08C401E62
:10318000E084E08C4B464FF00002CDF80080002830
:10319000EAD14FF04001204600F09EFD40B184F896
:1031A00041700320C3E735F8020BC0F30800E3E7E2
:1031B00084F841700020BAE7FEE7000070B50122F4
:1031C0000D4D540221462846FFF748F80122160209
:1031D00031462846FFF742F800F03BFB002221462B
:1031E0002846FFF73BF800F034FB31462846BDE89F
:1031F00070400022FFF732B8000C014070B50B4C54
:10320000012211022046FFF729F800F022FB651584
:10321000002229462046FFF721F800F01AFB294634
:103220002046BDE870400122FFF718B8000C0140AD
:1032300070B50122084D140221462846FFF70EF80A
:1032400000F007FB002221462846FFF707F8BDE8FB
:10325000704000F0FEBA0000000C0140FEB50021F5
:103260002148009101911F4A0291026092158260EB
:1032700001240473017504254FF460220561C261C5
:103280004160FEF7EFFB08B1FEF7CCF90226CDE96D
:1032900000640524694614480294FEF7BBFA08B19D
:1032A000FEF7C0F9CDE9004669460F48FEF7B2FACD
:1032B00008B1FEF7B7F90620009003200190694697
:1032C0000948FEF7A7FA08B1FEF7ACF90720CDE9E7
:1032D000000569460448FEF79DFA002801D0FEF774
:1032E000A1F9FEBD002401409C0500203EB500214F
:1032F0001148009101910F4A0291026081600173AF
:10330000017501244FF460220461C2614160FEF73F
:10331000A9FB08B1FEF786F90420CDE900040520D9
:10332000029069460448FEF775FA002801D0FEF7BE
:1033300079F93EBD00280140CC050020094808B5B8
:10334000416941F0010141614069002200F0010042
:10335000009011460B20FEF7F3FFBDE808400B205C
:10336000FEF7E0BF001002402DE9F04186B00024D6
:1033700025480094019402940394816941F010015E
:103380008161816901F010010491816941F020019E
:103390008161816901F020010491816941F004019A
:1033A0008161816901F004010491816941F00801A2
:1033B00081618069154F00F008004FF400550490BA
:1033C000002229463846FEF749FFDFF844804FF4D3
:1033D0004076012231464046FEF740FF0220CDE90B
:1033E000024000950125694601953846FEF746FEE4
:1033F0000320CDE90240CDE9006569464046FEF76D
:103400003DFE06B0BDE8F081001002400010014012
:10341000000C014010B596B000240F941094119444
:10342000129413941C2108A81494FCF7B7FF2021D0
:103430006846FCF7B3FF28482649C0E9001440F667
:103440003F31C0E90241046144618461FFF752FBEE
:1034500008B1FEF7E7F84FF480500F900FA91E480F
:10346000FFF7CAFB08B1FEF7DDF81B48FFF765FD63
:1034700008B1FEF7D7F8139413A917481494FFF76F
:1034800005FB08B1FEF7CEF86020CDE908040A94E8
:103490000B940C940D94002208A90F480E94FFF78A
:1034A000E6FC08B1FEF7BEF800944FF40050CDE9F9
:1034B0000440029401940394694607480794FFF777
:1034C000BBFA08B1FEF7AEF80348FFF79DFC16B053
:1034D00010BD0000002C01404006002010B58EB049
:1034E00000240794089409940A940B941C216846BC
:1034F0000C94FCF753FF1E484FF0804101604721B8
:10350000C0E9011440F2F311C0E903148461FFF72C
:10351000F1FA08B1FEF786F84FF48050079007A93A
:103520001348FFF769FB08B1FEF77CF81048FFF776
:1035300004FD08B1FEF776F80B940BA90C480C9427
:10354000FFF7A4FA08B1FEF76DF86020CDE900049A
:1035500002940022694606480494FFF788FC08B1EB
:10356000FEF760F80248FFF74FFC0EB010BD0000F8
:10357000880600200C4810B50A4901604FF4E1317B
:103580004160002181600C22C160C0E904128161A8
:10359000C161FFF757FD002803D0BDE81040FEF7DA
:1035A00041B810BD00480040D0060020FEE7FEE70D
:1035B00070B5002404F1B000C0B2002100F027F97A
:1035C0000021084600F023F90021102000F01FF927
:1035D00000250121002000F01AF96D1CEDB2802DAC
:1035E000F7D3641CE4B2082CE4D370BD4B4810B58B
:1035F000816986B041F0080181618069484C00F022
:1036000008000490002002904FF4407000900120C8
:1036100001900320039069462046FEF72FFD01220A
:1036200011022046FEF71AFE012251022046FEF743
:1036300015FE3220FEF710FD0021AE2000F0E7F865
:103640000021084600F0E3F80021102000F0DFF828
:103650000021402000F0DBF80021B02000F0D7F876
:103660000021812000F0D3F80021FF2000F0CFF8E6
:103670000021A12000F0CBF80021A62000F0C7F81F
:103680000021A82000F0C3F800213F2000F0BFF87F
:103690000021C82000F0BBF80021D32000F0B7F8CB
:1036A0000021084600F0B3F80021D52000F0AFF863
:1036B0000021802000F0ABF80021D82000F0A7F80E
:1036C0000021052000F0A3F80021D92000F09FF888
:1036D0000021F12000F09BF80021DA2000F097F89B
:1036E0000021122000F093F80021DB2000F08FF879
:1036F0000021302000F08BF800218D2000F087F8A9
:103700000021142000F083F80021AF2000F07FF8A2
:1037100006B0BDE81040FFF74BBF000000100240AC
:10372000000C014010B50446B031C8B2002100F0D1
:103730006EF8102040EA1410002100F068F804F040
:103740000F00BDE81040002100F061B82DE9F04104
:10375000203A0D468046D6B27F2803D900208D1C22
:103760008046EDB2102B294611D0FFF7DBFF184938
:1037700006EB4600002401EB40050121285D00F026
:1037800046F8641CE4B2062CF7D3BDE8F081FFF7DD
:10379000C9FF104F002400BF04EB06100121385C64
:1037A00000F035F8641CE4B2082CF5D36D1CE9B2C6
:1037B0004046FFF7B7FF002404EB06103844012110
:1037C000007A00F024F8641CE4B2082CF4D3DCE79F
:1037D000AA4B0008D24D00082DE9F0419846174643
:1037E0000E46044600250DE0434631462046FFF7CD
:1037F000ADFF0834E4B2782C02D90024B61CF6B22E
:103800006D1CEDB27A5D002AEED1BDE8F08110B5F5
:103810000129044614D0FFF7D1FC782000F096FA75
:10382000FFF706FD002000F091FAFFF701FD2046AA
:1038300000F08CFAFFF7FCFCBDE81040FFF7DEBC9F
:10384000FFF7BCFC782000F081FAFFF7F1FC402084
:10385000E9E708B50020ADF80000BDF80000052834
:1038600004D200BFBDF80000401CF4E708BD10B54D
:10387000029CE0E80212002180E81A0010BD00005E
:103880002DE9F0410B4604461146184601F0A6F812
:103890000646D4E9010100F01BFF054631462068C9
:1038A00000F016FF294600F02DFD07460546E168A9
:1038B00000F0DAFF01D2E56805E02846216900F052
:1038C000D3FE00D22569B6F5000F04DB3846E16867
:1038D00000F0CAFE07D316F1FF4F0CD3384621691A
:1038E00000F0C2FF07D20549304600F0F1FEA168A2
:1038F00000F008FDA0602846BDE8F0816F12033A91
:1039000070477047FEF7B6BC30B593B028216846C3
:10391000FCF744FD14210AA8FCF740FD0025012016
:103920000F9510951195010412958DE823000490D0
:103930004FF4E010CDE90810022407946846FEF722
:10394000D5FE08B172B6FEE70AA90F2081E8310062
:103950004FF48060CDE90D0502210AA8FEF7EAFDCB
:1039600008B172B6FEE74FF4004011900F940FA813
:10397000FEF76AFD002801D072B6FEE713B030BD35
:10398000704700000148FFF7A6B900008806002034
:10399000F0B50268194B1A4C1A4D4FF08047984207
:1039A00005D0B84203D0A04201D0A84203D122F0F2
:1039B00070064A683243984205D0B84203D0A0420C
:1039C00001D0A84203D122F44074CA6822434C6952
:1039D00022F08002224302608A68C2620A68826220
:1039E000984201D109690163012141610169C90757
:1039F00003D0016921F001010161F0BD002C0140FB
:103A0000000400400008004010B501F01F03012130
:103A1000046A99408C430462016A9A40114301622E
:103A200010BD10B5846842EA032224F47F440A439F
:103A30002243826010BD826822F070020A4342F085
:103A4000070181607047000030B5036A026A22F006
:103A5000010202624268846924F073050C682C43F9
:103A600023F002058B682B430A4DA8420BD123F0AB
:103A70000805CB6822F440722B434D6923F0040300
:103A800015438A692A43426084614968416303623D
:103A900030BD0000002C014030B5026A036A23F0FB
:103AA00010030362436884690D6824F4E64444EA21
:103AB00005248D6822F0200242EA05120B4DA8422F
:103AC0000ED1CD6822F0800242EA05124D6923F43E
:103AD000406343EA85038D6922F0400243EA85038F
:103AE0004360846149688163026230BD002C0140FB
:103AF00030B5036A026A22F4807202624268C469C5
:103B000023F4007324F073050C682C438D6843EA9A
:103B100005230C4DA8420ED1CD6823F4006343EA7F
:103B200005234D6922F4405242EA05128D6923F4BF
:103B3000806342EA05124260C4614968C16303625E
:103B400030BD0000002C014030B5046A026A22F446
:103B5000805202624268C3690D6823F4E64343EA77
:103B600005238D6824F4005444EA0534064DA84228
:103B700004D14D6922F4804242EA85124260C36159
:103B800049680164046230BD002C014010B5036A2D
:103B9000046A24F001040462846924F0F00444EA15
:103BA000021423F00A020A438461026210BD10B5B8
:103BB000036A046A24F010040462846923F0A003F9
:103BC00024F4704444EA023243EA01118261016242
:103BD00010BD01680C3151E8002F22F4907241E8C9
:103BE0000023002BF5D10168143151E8002F22F099
:103BF000010241E80023002BF5D1016B012909D115
:103C000001680C3151E8002F22F0100241E8002336
:103C1000002BF5D1202180F842100021016370476C
:103C200070B5044600680169E26821F4405111430F
:103C300001612169A0680843616908432168CA6875
:103C400041F20C639A430243CA6020684169A26949
:103C500021F44071114341611E492068884202D11C
:103C6000FEF70EFD01E0FEF7FBFC00EBC00101EBEF
:103C70000012606864218000B2FBF0F3B3FBF1F343
:103C80006FF018067343B2FBF0F5B2FBF0F605EBEC
:103C90008305322303EB0515B5FBF1F5B6FBF1F611
:103CA00005F0F00505EB0615B2FBF0F6B2FBF0F0FF
:103CB000B0FBF1F06FF01802504306EB800003EB0D
:103CC0000010B0FBF1F0216800F00F00284488607C
:103CD00070BD0000003801402DE9F84398461746B2
:103CE0000D460446089E24E0701C22D0FEF7BCFA64
:103CF000A0EB0800B0421AD8CEB12068C1684907CD
:103D000017D5802D15D0402D13D00168C943090760
:103D10000FD401680025406800902046FFF759FF46
:103D20000820606484F840500120BDE8F883032037
:103D3000FBE72068006835EA000004D00020B842A4
:103D4000D2D00020F1E70120F9E7FEE72DE9F041AC
:103D5000124F002405464FF40078BE15280601D501
:103D6000012200E0002241463846FEF777FA680655
:103D7000050E012231463846FEF770FAFFF769FD5D
:103D8000002231463846FEF769FAFFF762FD641CEF
:103D9000E4B2082CE2D3BDE8F0810000000C014041
:103DA000490050EAC12018BF04204A0D18BF40F056
:103DB000010040F2FF72B2EB515F08BF40F0020019
:103DC000012808BF052070470907090E002804DBF9
:103DD00000F1E02080F80014704700F00F0000F1BF
:103DE000E02080F8141D704700214FF07E5000F055
:103DF000FDBA012100F09BBE0021084600F0F6BA92
:103E000030380A2801D20120704700207047000096
:103E10002DE9F0410026A0F50001B1F1FE4F7DD261
:103E200000F500226FF07E0101EBE251C2F3025473
:103E300077184FF07E52A0EBC15602EB045557EABB
:103E4000040047D02946304600F05CFA80462946F7
:103E5000304600F0C3FD414600F0C8FA0546014671
:103E600000F036FC8046454900F032FC444900F041
:103E700049FA06464146284600F02AFC314600F041
:103E800027FC0646384600F093FB07463D4900F004
:103E90001FFC3D49794451F8241000F033FA3146B3
:103EA00000F030FA06460121284600F040FE314677
:103EB00000F028FA05463846344900F009FC344938
:103EC000794451F8241000F01DFA2946BDE8F0416C
:103ED00000F018BA4FF07E51304600F07FFD0546E5
:103EE0002C4900F0F5FB2C4900F00CFA294600F0B3
:103EF000EFFB2A4900F006FA294600F0E9FB6FF0D3
:103F0000824100F0FFF904462946084600F0E0FB34
:103F1000214600F0DDFB0146284600E003E0BDE855
:103F2000F04100F0EFB94FF07F42B2EB400F03D207
:103F3000BDE8F041FFF75DBFB0F1FF4F08BFBDE83E
:103F4000F081B0F1004F06D90120FCF756FABDE828
:103F5000F041FFF751BF30F0004105D06FF0160679
:103F6000172100F0E4FD5BE70220FCF746FAFFF7BB
:103F70003BFF80F00040BDE8F081000066F1CC3EE0
:103F8000AAAA2A3FF4FD0538181B00000070313F33
:103F9000CC1A000021ED423E0A1180BEC1ABAA3E00
:103FA00092B0FEF76FF9FFF7AFFCFFF7DDF9FFF70F
:103FB000C5F9FFF72FFAFFF751F9FFF78FFAFFF76F
:103FC00095F9FFF7D7FAFFF711FB00244FF07E5168
:103FD0000B467C4A7C480094FFF749FC00217B4853
:103FE000FEF7DAFF00217A48FEF7D6FF7948FDF7A1
:103FF000A3FB042278497748FDF732FE5021774829
:10400000FDF726FB50217648FDF722FB502175482D
:10401000FDF71EFB02217448FDF706FB6C48FEF716
:10402000BFFD6D4CDFF8C491DFF8C4B16FF00B0A2F
:10403000403C2078C00716D0A06BE16B00F0D0FAAE
:104040006C4900F0D3F900F0FFF8494600F040FB5E
:10405000514600F06CFD684900F03AFBA061207801
:1040600020F001002070207880070FD56149E069B9
:1040700000F0BCF900F0E8F86062616A5A48FDF7A8
:1040800013FA2062207820F002002070A06900F06E
:104090000DF9CDE9000159A214210AA8FCF7A0F8F6
:1040A00000210C230AAA0846FFF796FB5946206A0E
:1040B00000F00EFB00F0FAF8CDE9000152A2142145
:1040C0000AA8FCF78DF80C230AAA02210020FFF7AA
:1040D00083FB2089FDF7D0FA4E4900F07FFC804633
:1040E000608900F0ADFA494600F0F2FA514600F05E
:1040F0001EFD344900F0ECFA074600F0D7F80546FB
:104100000E46404600F0D2F88DE8630042A214212A
:104110000AA8FCF765F80C230AAA04210020FFF77F
:104120005BFBA08900F08CFA494600F0D1FA5146B9
:1041300000F0FDFC3D4900F059F93D49884200DAA4
:1041400000203C4900F052F9054600F0AFF8CDE9F7
:10415000000139A214210AA8FCF742F80C230AAA8C
:1041600006210020FFF738FBAA208DF8100055200B
:104170008DF81100A069CDF812005946206A00F0B0
:10418000A7FACDF81600CDF81A80CDF81E70CDF83C
:10419000225000208DF826000DF112019DF82630E6
:1041A0000A5C401C1A448DF826201428F6DB0A23EA
:1041B000172204A92348FEF7AFFF3220FDF74CFF7A
:1041C00037E700000000404188050020400600203D
:1041D000880600209C050020400000205800002098
:1041E00064010020700200207C0300203333534020
:1041F0000000CA430000C84248E1BE40563A252D9F
:10420000352E32665600000041433A252D342E32B9
:10421000665600000000AA42543A252D332E31661E
:1042200020423A252D332E31660000005C8F823EFD
:10423000CDCCCC3D00003041493A252D342E32669C
:1042400041000000D006002070B5054600F03EFB9E
:10425000044620F00040C0F1FF40C00F08D025F018
:104260000040C0F1FF40C00F04BF0120FCF7C5F8BB
:10427000204670BD10B500290AD00878002807D064
:1042800005487844FCF726FC002801D0002010BD2A
:104290000248784410BD000002180000FA17000020
:1042A0000808A0F500114FEA3101704743004FEABA
:1042B000D30C4FEA3C0C43401FBF40070CF1605148
:1042C00013F0FE4F70471CF0006F03D100200CF07C
:1042D000004170470CF0004343EA507010B540EACB
:1042E000CC0000F076FA00BF000000924FEA000117
:1042F000FFF7D6BF4FF000414FF00000A1F50021BD
:104300007047000090EA010F48BF81F0004100F1C2
:104310006C83421A3CBF801A89184FEAD0524FF082
:104320007F4C1CEA410FA2EBD15318BF9CEA026FED
:1043300000F03B804FF0004C4CEA00204CEA012199
:1043400021FA03FC10EB0C0C1ED202F1FF325FEAE3
:104350001C2040EBC25038BF70471CF07F0F4FEA63
:10436000400C18BFBCF17F4F38BF7047C3F120032A
:10437000994008BF20F00100BCF17F4F38BF704763
:10438000A0F1C04000F06BBA4FEA3C00000A40EBDD
:10439000C25028BF1CF0FF0F4FEA400CE6D018BFF8
:1043A000BCF17F4F38BF7047EAE79CEA026F05D047
:1043B00010EA5C0F08BF00F00040704710B500F035
:1043C00008FA00BF64FBBE3E014800F07EBB00BFA0
:1043D0000000C07F401058BFC0F14040491058BF96
:1043E000C1F140418142EFF3008070474FF47F0CF0
:1043F0001CEAD0121EBF1CEAD11392EA0C0F93EAFA
:104400000C0F00F0858090EA010F48BF42F48072E3
:1044100040F4000C41F400002CF07F4120F07F407C
:1044200000B58142A2EB03020FF2081CACEB504E28
:10443000C0F100009EF800E04FEA4E0E00FB0EFCBB
:1044400038BF49004FEA2C1C02F5FA020CFB0EF3B0
:104450004FEACE1E4FEA112C4FEAC1210EEB635EEC
:1044600042EB22420EFB0CFC4FEA1C5300FB0311F3
:104470004FEA112C4FEA01310EFB0CFC4FEADC4CE9
:1044800000FB0C11C14228BF09184CEB03335DF847
:1044900004EB10EB410143EBC250B2F57C0F38BF87
:1044A000704729D512F0F00F1CBF00F1C04000F09A
:1044B00000407047008182838485868788898B8C41
:1044C0008D8E8F919293959697999A9C9D9FA0A27D
:1044D000A3A5A7A8AAACAEB0B2B3B5B7B9BCBEC0CD
:1044E000C2C5C7C9CCCED1D4D7D9DCDFE2E6E9EC6E
:1044F000F0F3F7FAFE0000004FEA400C0CF1807C6C
:10450000BCF17E4F28BF7047B0F1C04000F0A7B9A2
:1045100090EA010F0CEAD11348BF42F48072624561
:1045200038BF634507D213F47F0F16D080EA01002D
:1045300000F00040704710B500F04BF9097EFC3EDA
:1045400000F005B880EA010000F00040704780EA02
:10455000010000F0004000F082B912F47F0F04BFA8
:104560000248704780EA010000F079B90000C07F7E
:10457000C10DD1F19E0206DB4FEA002343F0004358
:1045800023FA02F07047004207D54FEA4001B1F12B
:10459000FE4F02D24FF00000704710B500F019F93D
:1045A00049922480002070476FEA20007047000085
:1045B00010F0004148BF4042B0FA80F310FA03F215
:1045C000C3F19D030BD051EAC35101EB12205306F6
:1045D00038BF704700F1010008BF20F001007047AC
:1045E0004FF07E5209E011F0004204D54042C1F183
:1045F000000138BF491E42F07E520B0002F170628A
:1046000012BF20235FEA00017047B1FA81FCA3EBDF
:104610000C0301FA0CF120FA03FC02EBC352C3F1C4
:10462000200341EA0C0110FA03FC5CEA416C42EB06
:10463000112018BF5FF0806C28BF20F00100704788
:10464000B0FA80F310FA03F2C3F19D030AD0D90542
:1046500001EB1220530638BF704700F1010008BF7C
:1046600020F001007047000050EA010C00F11380B7
:104670001CF5000F58BFBCF5000F01D488427047ED
:1046800007D710F5000F58BF11F5000F15D4884259
:104690007047894270471CF5000F04D5BCF5000F28
:1046A000F7D5814270474FF0807C1CEB400F38BF3C
:1046B0001CEB410F01D28142704710B500F089F820
:1046C000922449004FF000504FF08051FFF782BE16
:1046D0004FF47F0C1CEAD0121EBF1CEAD11392EAE1
:1046E0000C0F93EA0C0F00F0478090EA010F48BFCF
:1046F00042F480724FF0004C4CEA00204CEA012159
:1047000002EB0302A0FB0113A2F50002002918BF6F
:1047100043F001035B0028BF4FEA330342EB224220
:104720005FEA132C4CEBC2502EBFBCEB436FB2F5CB
:104730007C0F70474FEA036CBCF1004F08BF20F0BC
:104740000100B2F57C0F38BF70470BD582F0FF0235
:1047500012F5803FC8BF704700F1C040D8BF00F0DD
:104760000040704700F5000C5FEA4C0C48BF7047F2
:10477000B0F1C04000F073B890EA010F0CEAD11319
:1047800048BF42F48072624538BF634504D280EA74
:10479000010000F00040704710B500F01AF800BFAB
:1047A0008900013E00F007B800F009B85FEA410C4B
:1047B0005FEA1C6C08D080EA010000F050B85FEAA4
:1047C000400C5FEA1C6CF6D14FF00040A0F5800071
:1047D00070470EF1020E2EF0030E5EF8044B2442D9
:1047E00004D44FEA4102B2F17F4F11D84FEA40039F
:1047F000B3F17F4F0CD80ED14FEAD07CB2F17F4F8E
:104800000CEB4C0C0CF1020C08BF4CEBD17C04E01F
:104810004FF0080C01E04FEAD17C0CEB4C0324FA7A
:1048200003F404F00704B4F1040C06D20EEB840C7C
:10483000BDE810404CF0010C6047DFE80CF00708C1
:1048400002024FF00040A0F5800010BD0846420073
:1048500018BFD2F1807288BF00F0004010BDFF2168
:1048600041EAD050C005704751EA000C00F11380B6
:104870001CF5000F58BFBCF5000F01D481427047F2
:1048800007D711F5000F58BF10F5000F15D481425E
:104890007047894270471CF5000F04D5BCF5000F26
:1048A000F7D5884270474FF0807C1CEB410F38BF32
:1048B0001CEB400F01D28842704780EA010081EA78
:1048C000000180EA0100FFF7F8BE00004FEAD05176
:1048D000002988BFD1F1FF0240F2758001F17D010E
:1048E0004FEA002070B5490840F0004038BF40084A
:1048F0000EA2430E040CD25C02FB02F304FB03F392
:10490000C3F14043A3FB0254ED0D45EA442202FBF0
:1049100002F3A0FB03546D42C4F1404438BF641E4F
:10492000A2FB05350023E2FB0453EA0B42EA4342B3
:10493000A0FB023212F14004A2F12103E40903F0CA
:104940007F031F2B32D904EBC15070BDFEFAF7F381
:10495000F0ECE9E6E4E1DEDCD9D7D4D2D0CECCCAA3
:10496000C8C6C4C2C1BFBDBCBAB9B7B6B4B3B2B091
:10497000AFAEACABAAA9A8A7A6A4A3A2A1A09F9ED4
:104980009E9D9C9B9A9998979796959493939291B4
:1049900090908F8E8E8D8C8C8B8A8A898988878760
:1049A00086868584848383828281818004FB04F6E9
:1049B000B6EB004603D5E64248BF641CC3E7A642F7
:1049C00058BF641CBFE711F0FF0F02D100F0004098
:1049D000704710B5FFF7FDFE7FDBFFBE90EA010FC9
:1049E00048BF81F000413FF594AC421A04D882F0F0
:1049F0000042A0EB020011444FEAD0524FF07F4C2E
:104A00001CEA410FA2EBD15318BF9CEA026F4AD0B7
:104A10004FF0004C4CEA00204CEA012121FA03FC43
:104A2000B0EB0C0C0FD412F0FE0F36D05FEA4C0046
:104A30001DD5001240EBC25038BF70471CF03F0F2D
:104A400018BF70470BE0A2F101025FEA1C2040EBA7
:104A5000C25038BF70471CF07F0F18BF7047C3F1BA
:104A60002003994014BF401E20F0010070478008C9
:104A70004FEA122308BF7047B0FA80FCA2EB0C0289
:104A8000CCF1280C60FA0CF093EA122F04BF00EB73
:104A9000C25070474FEAC3707047130A5FEADC10D8
:104AA00008BF7047F6E79CEA026F04D010EA5C0F7B
:104AB00008BF0020704710B5FFF78BFE40DFF63EC1
:104AC00081F000407047FBF777BD0CF00F03092B16
:104AD00008BF082000F051800A2B0BD0082B18BF0C
:104AE000704708BF1CF0400F0AD04FF000004FF095
:104AF000000170471CF0400F18BF4FF00040704796
:104B00001CF0100F08D020F0704300F07F4242EA02
:104B1000D3014FEA4370704700F0604021F07F42BC
:104B200042EA000201F07F4040EA727070474FF0A5
:104B3000FF0212EAD0521CBF92F0FF038B42C2BFA9
:104B4000D14200EBC1507047002A0AD0002B0BD095
:104B5000002900F00040A4BF40F0FE4040F40000F7
:104B6000704700F00040704743024FF00B0C18BF35
:104B70004CF0806C7FF428AC70471CF4801F11D07F
:104B80001CF4E02F03D06FEACC31490070474FF09E
:104B90004050EFF3008222F0704242EA000282F3BA
:104BA000008870474FF000007047000000000000D0
:104BB0000000002F000000000700070000147F1411
:104BC0007F1400242A7F2A1200626408132300360F
:104BD0004955225000000503000000001C2241003E
:104BE000000041221C000014083E08140008083E82
:104BF0000808000000A0600000080808080800007D
:104C000060600000002010080402003E5149453E4B
:104C10000000427F40000042615149460021414569
:104C20004B31001814127F10002745454539003CD0
:104C30004A4949300001710905030036494949369E
:104C400000064949291E000036360000000056368D
:104C50000000000814224100001414141414000071
:104C60004122140800020151090600324959513EFF
:104C7000007C1211127C007F49494936003E4141B7
:104C80004122007F4141221C007F49494941007F68
:104C900009090901003E4149497A007F0808087F57
:104CA0000000417F4100002040413F01007F081487
:104CB0002241007F40404040007F020C027F007F85
:104CC0000408107F003E4141413E007F090909066A
:104CD000003E4151215E007F09192946004649499D
:104CE00049310001017F0101003F4040403F001F6A
:104CF0002040201F003F4038403F006314081463E9
:104D000000070870080700615149454300007F41D2
:104D1000410000552A552A55000041417F000004FA
:104D20000201020400404040404000000102040033
:104D3000002054545478007F484444380038444498
:104D4000442000384444487F003854545418000824
:104D50007E0901020018A4A4A47C007F0804047842
:104D60000000447D4000004080847D00007F1028CA
:104D700044000000417F4000007C04180478007C5F
:104D80000804047800384444443800FC24242418DF
:104D90000018242418FC007C08040408004854541B
:104DA000542000043F444020003C4040207C001C34
:104DB0002040201C003C4030403C00442810284447
:104DC000001CA0A0A07C004464544C44141414148F
:104DD00014140000000000000000000000000000AB
:104DE0000000000000F80000000000000033300068
:104DF000000000100C06100C06000000000000006F
:104E0000000040C07840C0784000043F04043F04E4
:104E10000400007088FC08300000001820FF211EEC
:104E20000000F008F000E018000000211C031E2123
:104E30001E0000F00888700000001E21232419279E
:104E4000211010160E0000000000000000000000FD
:104E50000000000000E01804020000000007182015
:104E6000400000020418E000000000402018070085
:104E70000000404080F0804040000202010F01022B
:104E80000200000000F0000000000101011F01010C
:104E90000100000000000000000080B07000000071
:104EA00000000000000000000000000101010101FD
:104EB0000101000000000000000000303000000090
:104EC0000000000000008060180400601806010067
:104ED000000000E010080810E000000F1020201073
:104EE0000F00001010F8000000000020203F2020DC
:104EF0000000007008080888700000302824222173
:104F00003000003008888848300000182020201128
:104F10000E000000C02010F8000000070424243F09
:104F2000240000F8088888080800001921202011B2
:104F30000E0000E0108888180000000F11202011DA
:104F40000E0000380808C83808000000003F0000C4
:104F500000000070880808887000001C22212122AF
:104F60001C0000E010080810E000000031222211AF
:104F70000F00000000C0C000000000000030300042
:104F800000000000008000000000000080600000C1
:104F900000000000804020100800000102040810FA
:104FA0002000404040404040400004040404040409
:104FB00004000008102040800000002010080402B7
:104FC0000100007048080808F000000000303601B9
:104FD0000000C030C828E810E00007182724231478
:104FE0000B000000C038E0000000203C2302022734
:104FF000382008F8888888700000203F2020201181
:105000000E00C030080808083800071820202010BB
:10501000080008F808080810E000203F20202010B1
:105020000F0008F88888E8081000203F202023207F
:10503000180008F88888E8081000203F20000300C6
:105040000000C03008080838000007182020221E81
:10505000020008F808000008F808203F210101219B
:105060003F20000808F8080800000020203F20200A
:10507000000000000808F8080800C08080807F0059
:10508000000008F888C028180800203F20012638B2
:10509000200008F8080000000000203F2020202009
:1050A000300008F8F800F8F80800203F003F003F03
:1050B000200008F830C00008F808203F200007183A
:1050C0003F00E01008080810E0000F10202020101A
:1050D0000F0008F808080808F000203F210101012E
:1050E0000000E01008080810E0000F1824243850D1
:1050F0004F0008F8888888887000203F2000030C43
:10510000302000708808080838000038202121224B
:105110001C00180808F8080818000000203F2000AC
:10512000000008F808000008F808001F20202020D0
:105130001F000878880000C83808000007380E01F2
:105140000000F80800F80008F800033C0700073CDE
:105150000300081868808068180820302C03032C8E
:1051600030200838C800C83808000000203F200060
:10517000000010080808C838080020382621202020
:105180001800000000FE020202000000007F404004
:105190004000000C30C00000000000000001063894
:1051A000C00000020202FE000000004040407F00FC
:1051B00000000000040202020400000000000000E1
:1051C00000000000000000000000808080808080DF
:1051D00080800002020400000000000000000000C7
:1051E000000000008080808000000019242222221C
:1051F0003F2008F8008080000000003F11202011AF
:105200000E000000008080800000000E1120202091
:105210001100000000808088F800000E112020108E
:105220003F200000808080800000001F2222222278
:105230001300008080F0888888180020203F2020FC
:1052400000000000808080808000006B9494949324
:10525000600008F8008080800000203F21000020CE
:105260003F2000809898000000000020203F202070
:105270000000000000809898000000C08080807FBF
:10528000000008F8000080808000203F24022D30BC
:105290002000000808F8000000000020203F202027
:1052A00000008080808080808000203F20003F20A0
:1052B000003F8080008080800000203F210000208F
:1052C0003F200000808080800000001F20202020E0
:1052D0001F00808000808000000080FFA12020113E
:1052E0000E000000008080808000000E112020A0B1
:1052F000FF80808080008080800020203F2120006F
:105300000100000080808080800000332424242459
:105310001900008080E0808000000000001F202035
:1053200000008080000000808000001F20202010EE
:105330003F20808080000080808000010E300806C1
:10534000010080800080008080800F300C030C30D2
:105350000F0000808000808080000020312E0E3100
:105360002000808080000080808080818E70180600
:10537000010000808080808080000021302C22216C
:105380003000000000FE020202000000007F4040EA
:105390004000000C30C00000000000000001063892
:1053A000C00000020202FE000000004040407F00FA
:1053B00000000000040202020400000000000000DF
:1053C00000000000000000000000808080808080DD
:1053D00080800002020400000000000000000000C5
:1053E000000000008080808000000019242222221A
:1053F0003F2008F8008080000000003F11202011AD
:105400000E000000008080800000000E112020208F
:105410001100000000808088F800000E112020108C
:105420003F200000808080800000001F2222222276
:105430001300008080F0888888180020203F2020FA
:1054400000000000808080808000006B9494949322
:10545000600008F8008080800000203F21000020CC
:105460003F2000809898000000000020203F20206E
:105470000000000000809898000000C08080807FBD
:10548000000008F8000080808000203F24022D30BA
:105490002000000808F8000000000020203F202025
:1054A00000008080808080808000203F20003F209E
:1054B000003F8080008080800000203F210000208D
:1054C0003F200000808080800000001F20202020DE
:1054D0001F00808000808000000080FFA12020113C
:1054E0000E000000008080808000000E112020A0AF
:1054F000FF80808080008080800020203F2120006D
:105500000100000080808080800000332424242457
:105510001900008080E0808000000000001F202033
:1055200000008080000000808000001F20202010EC
:105530003F20808080000080808000010E300806BF
:10554000010080800080008080800F300C030C30D0
:105550000F0000808000808080000020312E0E31FE
:105560002000808080000080808080818E701806FE
:10557000010000808080808080000021302C22216A
:10558000300000000000807C020200000000003FAC
:10559000404000000000FF00000000000000FF008D
:1055A00000000002027C800000000040403F00003C
:1055B00000000006010102020404000000000000D7
:1055C00000000000000000000000808080808080DB
:1055D00080800002020400000000000000000000C3
:1055E0000000000080808080000000192422222218
:1055F0003F2008F8008080000000003F11202011AB
:105600000E000000008080800000000E112020208D
:105610001100000000808088F800000E112020108A
:105620003F200000808080800000001F2222222274
:105630001300008080F0888888180020203F2020F8
:1056400000000000808080808000006B9494949320
:10565000600008F8008080800000203F21000020CA
:105660003F2000809898000000000020203F20206C
:105670000000000000809898000000C08080807FBB
:10568000000008F8000080808000203F24022D30B8
:105690002000000808F8000000000020203F202023
:1056A00000008080808080808000203F20003F209C
:1056B000003F8080008080800000203F210000208B
:1056C0003F200000808080800000001F20202020DC
:1056D0001F00808000808000000080FFA12020113A
:1056E0000E000000008080808000000E112020A0AD
:1056F000FF80808080008080800020203F2120006B
:105700000100000080808080800000332424242455
:105710001900008080E0808000000000001F202031
:1057200000008080000000808000001F20202010EA
:105730003F20808080000080808000010E300806BD
:10574000010080800080008080800F300C030C30CE
:105750000F0000808000808080000020312E0E31FC
:105760002000808080000080808080818E701806FC
:10577000010000808080808080000021302C222168
:10578000300000000000807C020200000000003FAA
:10579000404000000000FF00000000000000FF008B
:1057A00000000002027C800000000040403F00003A
:1057B00000000006010102020404000000000000D5
:1057C00000000000000000000000808080808080D9
:1057D00080800002020400000000000000000000C1
:1057E00000000000F888888888FF88888888F8008A
:1057F000000000001F080808087F888888889F80AC
:10580000F00080828282828282E2A2928A868280F4
:105810008000000000000040807F000000000000C9
:1058200000002424A4FEA3220022CC0000FF0000DC
:105830000000080601FF00010404040404FF020242
:105840000200101010FF109008888888FF88888850
:1058500008000444827F01808040432C1028468148
:1058600080004040484848C8784F48484848484029
:105870004000000000000312122222528A0600009B
:1058800000000010608000FF000000FF0000C0303A
:10589000000040404043407F4040407F4241404004
:1058A0004000101010FF109008888888FF888888B2
:1058B00008000444827F01808040432C10284681E8
:1058C00080000010101010D030FF30D0121C1010CB
:1058D000000010080402010000FF0000010204089B
:1058E00010000000FE222222FE00FE828292A29E72
:1058F000000080601F0242827F00FF402F102C4377
:105900008000000090884C57A42454548C840000DC
:10591000000001018042221A07024282423E010138
:1059200001000004E4242CB4252624B42C24E4042F
:1059300000000000FF02011E1212121E41827F00B1
:105940000000010202030405060708090A0B0C0DFA
:105950000E0F1010010202030405060708090A0BC6
:105960000C0D0E0F101000000000000000000102DE
:1059700003040607080900000000010203040400F4
:1059800000080000000000000002000100001000FC
:10599000000000000030F13D0070643E0000A33EB6
:1059A0000090CF3E0090F83E00400F3F00E0203FC7
:1059B0000000000015B78337CDE37B380EE1C53812
:1059C00060F69138AF5F0F38E1BC3E3823F44739B9
:1059D00002400000000000A00000000005400000A0
:1059E000000000C8000000000C4000000000409CC7
:1059F00000000000194000000020BCBE00000000B4
:105A000034400000BFC91B8E00000004B5400000F8
:105A1000504BCFD06607E2CF010000006C41000080
:105A20003E8251AADFEEA73401000000D9420000F7
:105A3000DCB5A0E23A301F97FFFFFFFFB44500003E
:105A4000FD25A0C8E9A3C14FFFFFFFFFFF3F0000F6
:105A50000000008000000000FF3F00000000008008
:105A600000000000A05A00080000002058000000BC
:105A700028010008F85A000858000020200D0000F6
:105A8000440100081C00000043000000F8FFFFFF75
:105A90000C0000000E0000000F0000002E000000AF
:105AA00000000000000000000000000000000000F6
:105AB0000000404100000000000000000000000065
:105AC00000000000000000000000000000000000D6
:105AD00000000000000000000000000000000000C6
