:020000040800F2
:1000000040080020A1010008FF2F0008AF2C0008C5
:10001000FD2F0008D114000823360008000000005E
:100020000000000000000000000000005333000842
:100030003D1500080000000051330008553300084A
:10004000BB010008BB010008BB010008BB010008A0
:10005000BB010008BB010008BB010008BB01000890
:10006000BB010008BB010008BB010008BB01000880
:10007000BB010008BB010008BB010008BB01000870
:10008000BB010008BB010008F5120008BB01000815
:10009000BB010008BB010008BB010008BB01000850
:1000A000BB010008BB010008BB010008BB01000840
:1000B000D5330008BB010008BB010008BB010008E4
:1000C000BB010008BB010008BB010008BB01000820
:1000D000BB010008BB010008BB010008BB01000810
:1000E000BB010008BB010008BB01000800F002F8DA
:1000F00000F047F80AA090E8000C82448344AAF17B
:100100000107DA4501D100F03CF8AFF2090EBAE878
:100110000F0013F0010F18BFFB1A43F0010318473B
:10012000B45C0000D45C0000103A24BF78C878C1E9
:10013000FAD8520724BF30C830C144BF04680C60ED
:10014000704700000023002400250026103A28BF35
:1001500078C1FBD8520728BF30C148BF0B60704739
:10016000662904F03886002070471FB500F080FB38
:1001700004000020002103F095FDE0601FBD10B5D4
:1001800010BD00F079FC1146FFF7EFFF03F0B4FC5F
:1001900000F097FC03B4FFF7F2FF03BC00F0DAFCB9
:1001A0000948804709480047FEE7FEE7FEE7FEE70B
:1001B000FEE7FEE7FEE7FEE7FEE7FEE70448054947
:1001C000054A064B70470000D1330008ED000008D7
:1001D000400200204008002040040020400400208D
:1001E0000FB41CB50C0007AA009001D02044401E9B
:1001F000074B7B4469460190069800F018FB002CE1
:1002000003D06946002000F025FB1CBC5DF814FB00
:100210006906000070B5044685690068C10601D50D
:10022000302600E02026C00707D070BDD4E90121A8
:1002300030469047206A401C20626D1EF6D570BD86
:1002400070B5044685690078C00707D170BDD4E950
:10025000012120209047206A401C20626D1EF6D5A7
:1002600070BD00002DE9F05F894604464FF0000A9A
:10027000DFF824B1FB44C0F820A02046E16888479D
:1002800000287DD0252806D0D4E901219047206A96
:10029000401C2062F1E700255F462046E168884760
:1002A0002028064607DB312E05D2B81910F8200C9D
:1002B00008B10543F1E7A80701D525F00405C4F806
:1002C0001CA00027C4F818A02A2E09D0304603F03D
:1002D0005EFA38B304EB8708303EC8F8186019E0BE
:1002E00059F8041B204604EB87029161E1688847B6
:1002F000012F064618D1E069002820DA25F02005F4
:100300001DE0D8F8180000EB800006EB4000303804
:10031000C8F818002046E1688847064603F037FA17
:100320000028EED1012F0AD02E2E08D12046E168F8
:1003300088477F1C0646022F45F02005C4DBA069D4
:10034000002803DA404245F00105A061E80701D02A
:1003500025F01005A6B1A6F14100192802D82036D3
:1003600045F400654A463146204625604D46FFF774
:10037000F7FE60B1012807D0ED1D25F0070000E071
:1003800007E000F1080978E705F1040975E7304650
:100390007AE7206ABDE8F09F725A00004FF0000231
:1003A00000B5134694469646203922BFA0E80C506B
:1003B000A0E80C50B1F12001BFF4F7AF090728BF46
:1003C000A0E80C5048BF0CC05DF804EB890028BFC2
:1003D00040F8042B08BF704748BF20F8022B11F0EB
:1003E000804F18BF00F8012B704770477047704767
:1003F00010B500F041FA006810BD10B5044600F0D9
:100400003BFA046010BD70472DE9FF4F0C461E46B5
:100410004FF0FF378BB0D2E90001DDF860800A9021
:100420008A46C1F30A5505B93D46002108464FF0FA
:100430000000BAF1000F00F4400005DA00EB800084
:100440004FF4400101EA50004FEA9059B9F1010F11
:1004500000DDB9460A9850EA4A000ED044F6105022
:10046000A5F2FF3545432F14B8F1000F1ED0754299
:10047000291E1EDDC9F100021CE0B8F1010F4FF08A
:10048000000001D0302103E0F24305E02154401C7C
:10049000B042FBDB30460022002121540B99C1F809
:1004A0000880C1E900200FB0BDE8F08FBD1B6D1CB6
:1004B000DEE74A4600DA694206A800F067FA06ABB2
:1004C00093E8070003AB83E8070050460A9900F061
:1004D00048FB8DE80700A0F500501F3800900398F6
:1004E000002D0ADD42F21F014A460844002303A9F9
:1004F0000390684600F0B1FD09E0A0F500504A46BF
:100500001F38002303A90390684600F0BBFD8DE867
:1005100007000004000C03D04FF0FF30410800E05A
:100520001046B8F1000F03D00022009215461EE0DD
:10053000751E05D400F0A4F9303262556D1EF9D550
:10054000B3460122084302D000227F1C04E0207839
:10055000302801D100227F1E002A099784D01DE097
:10056000112D07DA00F08CF9303262556D1C50EA1B
:100570000102F5D1084302D00098C8B10EE0002175
:10058000681E05E0235C625C63542254401E491CD3
:100590008142F7DBAB46A81B401E0990002004F8FF
:1005A0000B000B98099AC0F80880C0E9002B7AE785
:1005B00011264FF0000857E72DE9F04F8846044612
:1005C000D21D22F0070191B0D1E90001CDE90A0165
:1005D00003F052F802460B98C00F01D02D2007E01F
:1005E0002068810701D52B2002E0202101EAC0000C
:1005F000032A099001D0072A05DB0346414620461D
:1006000000F084F90BE12078800601D5E06900E074
:100610000620B8F1650F814606D0B8F1660F18D0F4
:10062000B8F1670F70D131E00020B9F1110F0090DF
:1006300001DB112301E009F101030AAA01A90CA8B9
:10064000FFF7E2FEDDE90C70002609F101058346A3
:1006500047E001204B4600904FF000470AAA01A94D
:100660000CA8FFF7D1FEDDE90DB00C995D46002620
:1006700010B909F101000D18B9EB050003D4C0F160
:10068000FF3609F10105A5EB09002BE0B9F1010FD7
:1006900001DA4FF001090020B9F1110F009048462E
:1006A00001DD112300E003460AAA01A90CA8FFF707
:1006B000ABFEDDE90C704D4600268346207800072E
:1006C0000AD4AB4500DA5D4601A8012D04DD4119CD
:1006D00011F8011C302907D04F4502DA17F1040F39
:1006E00004DA012082460FE06D1EEEE7002F02DCE7
:1006F000ED1B3E4403E0781CA84200DD7D1CB81BC6
:1007000000F1010A4FF000472078000703D4AA4502
:1007100001DB4FF0FF3A0021B7F1004F0DF1430824
:100720008DF8431024D002202B23002F01DA7F42C2
:100730002D230A21021EA0F1010000DC5FB197FB0E
:10074000F1FC97FBF1F201FB1C7C17460CF1300C1D
:1007500008F801CDEEE7A8F1010003702188090532
:1007600001D5452100E06521A0F1010800F8011C38
:1007700009980FA9A1EB0807FF1D00B1012041193D
:1007800001EBEA70A1693844081A401EA061207884
:10079000C00602D42046FFF73DFD099828B1D4E9F0
:1007A00001219047206A401C20622078C00622D593
:1007B0002046FFF72FFD1EE0002E04DBB34502DDCF
:1007C00001A8805D00E03020D4E901219047206A33
:1007D000401C2062761CAAF101005FEA000A0AD1DF
:1007E00000F046F8C0680168405CD4E901219047F8
:1007F000206A401C2062281EA5F10105DCDC07E010
:10080000D4E9012118F8010B9047206A401C2062AE
:10081000381EA7F10107F3DC2046FFF711FD032086
:1008200011B041E601694A1C02610878704700B5C1
:100830008FB0CDE901310021059105497944CDE919
:10084000031011466846FFF70DFD0FB000BD000014
:10085000E5FFFFFF0A6802F8010B0A607047D1E963
:1008600000239A4202D2531C0B60107070470000A4
:10087000004870470002002000487047E001002057
:1008800030B5B0F10A024FEA900E71F100034EEA62
:10089000817EB0EB0E0061EB91014FEA101E4EEA33
:1008A000017E10EB0E0041EB11114FEA102E4EEAC3
:1008B000016E10EB0E0041EB11214FEA104E4EEA93
:1008C000014E10EB0E0041EB1141401841F10001C7
:1008D0004FEAD00040EA41704FEAD10110EB8005A9
:1008E0004FEA810444EA907444EB01046D1944EB2F
:1008F0000404521BA3414FF0000348BF0A3200D545
:1009000030BD401C41F1000130BD00002DE9F04137
:100910001F46044603260168072A01F4006004DB31
:1009200008B116A505E016A503E008B115A500E07D
:1009300015A521F010002060A069C01EA0610FB1B4
:10094000401EA0612046FFF765FC4FB1D4E90121AC
:1009500038469047206A401C2062C01C206206E096
:10096000206AFAE7D4E9012115F8010B9047761EB9
:10097000F8D22046FFF764FCBDE8F0814E414E00FE
:100980006E616E00494E4600696E66002DE9F047C3
:10099000814616468AB0354878440DC88DE80D006A
:1009A00032487844801C03AC0DC884E80D0041F641
:1009B0009B300844372190FBF1F290FBF1F5A5F153
:1009C000800501FB12041B3C02D56442012000E0BB
:1009D0000020DFF898A080460027FA44AAF1BE0A5A
:1009E0000EE0E0070AD03246684607EB47010123D4
:1009F0000AEB810100F046FB8DE8070064107F1CC4
:100A0000002CEED1194F7F44AE3F19E0E80715D016
:100A100007EB04100DF1180A90E80E008AE80E00AA
:100A2000C068F04201D1981908903246012306A906
:100A300003A800F027FB03AB83E807006D10641CDC
:100A4000002DE3D14FF0010332466946B8F1000FA3
:100A500003A802D000F001FB01E000F013FBC9E99C
:100A60000001C9F808200AB0BDE8F0872054000052
:100A700000487047E00100207546FFF7F9FFAE46D9
:100A800005006946534620F00700854618B020B59A
:100A9000FFF794FBBDE820404FF000064FF0000741
:100AA0004FF000084FF0000B21F00701AC46ACE816
:100AB000C009ACE8C009ACE8C009ACE8C0098D4683
:100AC000704710B50446AFF300802046BDE81040E3
:100AD000FFF760BB4FF0013C50F8042B51F8043B8A
:100AE0009A4221D1A2EB0C03934313EACC1317D102
:100AF00050F8042B51F8043B9A4215D1A2EB0C0399
:100B0000934313EACC130BD150F8042B51F8043B58
:100B10009A4209D1A2EB0C03934313EACC13DBD026
:100B20004FF00000704700BFD01A01BAB1FA81F14E
:100B300001F0180122FA01F0CB40C1F12001DBB233
:100B4000C0B2C01A2CFA01F3D11A914311EAC311B1
:100B5000E6D1704701491820ABBEFEE7260002002F
:100B600070475FEA400C08BF91F0000F4FEA8C23FA
:100B70004FEAC12243EA51514FEA1C5018BF00F519
:100B8000F0404FEA300018BF41F000415FEA6C5C72
:100B900000F02980BCF1FF3F08BF40F08040704763
:100BA000130C06BF12044FF0100C4FF0000C130E84
:100BB00004BF12020CF1080C130F04BF12010CF158
:100BC000040C930F04BF92000CF1020CD30F04BF6E
:100BD00052000CF1010C11464FF00002A0F11F0071
:100BE000A0EB0C00704711F0004F08BF704731F0C8
:100BF00000413FF4D5AF0B0C06BF09044FF0100CB9
:100C00004FF0000C0B0E04BF09020CF1080C0B0F87
:100C100004BF09010CF1040C8B0F04BF89000CF117
:100C2000020CCB0F04BF49000CF1010CCCF12003E6
:100C3000A0EB0C0022FA03F302FA0CF241EA0301E2
:100C400000F10100704720F07F4C80EA030023F0A0
:100C50007F47ACEB070303F57C5300F0004003F142
:100C6000FF032DE980494FEA154B09B44FEA1443BD
:100C700025EA0B4E24EA03480FF2042606EB13275D
:100C800049083E785FEA320203FB0667C7F50007B2
:100C900007FB06F64FEA54374FEAD64606F102063E
:100CA00007FB066CCCF1005C4FEA1C472CEA074CB2
:100CB00007FB06F40CFB06F504EB15464FEA961607
:100CC00034BF00204FF000404FEAD13706FB07FC4D
:100CD0004FEA1C4C0CFB0BF7D21B03FB0CF761EB30
:100CE00007010CFB0EF7B0EB074072EB17420CFB51
:100CF00008F734BFA2EB0742B2EB074261EB1741A2
:100D00004FEA0C444FEA910706FB07FC4FEA1C4CE4
:100D10000CFB0BF7B0EBC74072EB573203FB0CF741
:100D200034BFA2EBC742B2EBC74261EB57310CFBB9
:100D30000EF7B0EBC70072EB57720CFB08F734BF2D
:100D4000A2EBC702B2EBC70261EB5771039F4FEAF8
:100D5000816141EA921104EBCC044FEAD1374FEAAA
:100D6000826206FB07FC42EA90124FEA80604FEA7B
:100D70001C4C0CFB0BF7D21B03FB0CF761EB0701C0
:100D80000CFB0EF7B0EB074072EB17420CFB08F7B9
:100D900034BFA2EB0742B2EB074261EB17414FEAC7
:100DA0008C554FEA910704EB9C2406FB07FC4FEAA5
:100DB0001C4C0CFB0BF7B0EBC74072EB573203FB3C
:100DC0000CF734BFA2EBC742B2EBC74261EB57311D
:100DD0000CFB0EF7B0EBC70072EB57720CFB08F779
:100DE00034BFA2EBC702B2EBC70261EB577115EB40
:100DF0004C254FEA816141EA92114FEA82624FEA43
:100E0000D13742EA901206FB07FC44F100044FEA96
:100E100080604FEA1C4C0CFB0BF7D21B03FB0CF75A
:100E200061EB07010CFB0EF7B0EB074072EB1742CA
:100E30000CFB08F734BFA2EB0742B2EB074261EBB1
:100E4000174115EB1C154FEA813141EA92414FEAF7
:100E5000823242EA90424FEA80304FEA0C7644F107
:100E6000000448EA03434EEA0B484FF0000EB2EB91
:100E7000080C71EB030724BF624639464EEB0E0E99
:100E80004FF0000B0018524149414BEB0B0BB2EBFA
:100E9000080C71EB03077BF1000B24BF6246394657
:100EA0004EEB0E0E4FF0000B0018524149414BEB38
:100EB0000B0BB2EB080C71EB03077BF1000B24BFAB
:100EC000624639464EEB0E0E51EA020718BF46F055
:100ED000010616EB0E7655F1000254F1000103D520
:100EE000BDE88901BDE80088BDE88901BDE800488A
:100EF000B619524141EB0101A3F101037047808013
:100F00007F7E7D7C7B7A7978777676757473727163
:100F100071706F6E6E6D6C6C6B6A6A69686867661B
:100F200066656464636362616160605F5F5E5E5DAD
:100F30005D5C5C5B5B5A5A59595858575756565521
:100F400055555454535352525251515050504F4F83
:100F50004F4E4E4D4D4D4C4C4C4B4B4B4A4A4A49D3
:100F60004949484848474747474646464545454416
:100F70004444444343434342424242414141002BA3
:100F80009C4630D477002BD01CB54FEA370703B40A
:100F90004FF010004FF01001BAF1000F06D0BCF175
:100FA000000FDCBF40F0080040F008014FF00000E7
:100FB0000FBCBDE810400BF1010BBBF1010F08BFE6
:100FC0005FEA170722BF12F1010211F101014FF090
:100FD000004143F1000300F0004043EA0000704785
:100FE000F9D35708D0E746EA064613F1400F4FEA17
:100FF00016461FDD13F1200FDFBF16430A460021FE
:1010000020335B42BED0C3F1200746EA064602FA0F
:1010100007F74FEA164646EA0706C3F1200722FA09
:1010200003F201FA07F721FA03F14FF0000342EA55
:101030000702A7E746EA020646EA06464FEA1646D0
:1010400046EA0106BCBF46EA0646360C4FF00003EE
:101050004FF000024FF0000194E72DE9804C9A46D2
:10106000934670B491E8380007C831EA400C48BF95
:1010700034EA430C03D5FFF7E6FDFFF780FFF0BC31
:10108000BDE8008C2DE9804C9A46934670B491E8F7
:10109000380007C810F0804F08BF13F0804F03D10D
:1010A00000F005F8FFF76BFFF0BCBDE8008C20F006
:1010B0007F4780EA030023F07F4C07EB0C03A3F586
:1010C0007C5300F00040A3F1FE0392F0000F00F00B
:1010D000B38095F0000F00F077802DE901494FEAC9
:1010E00011404FEA144621EA004800FB06FC24EABE
:1010F000064708FB06F607FB08F800FB07F718EBA6
:1011000006484CEB164C4FEA124B18EB07484FEAD7
:1011100015464CEB174022EA0B4E0BFB06FC25EA6A
:1011200006470EFB06F607FB0EFE0BFB07F71EEB52
:10113000064E4CEB164C4FF000061EEB074E4CEBE8
:10114000174B18EB0B0840F1000018EB0E0B58EB97
:10115000000840F100008F1A4FF000013CBFC94366
:10116000661B14BFB5EB040C00213CBFC943F61B42
:101170004FEA17444EEA8E0E27EA04454FEA1C4711
:1011800004FB07622CEA074C05FB07F70CFB05F68E
:1011900004FB0CFC16EB074642EB174216EB0C4621
:1011A00042EB1C421BEB060658EB0202414146EAA9
:1011B0009E0601D5BDE80189B619524141EB0101F6
:1011C000A3F10103BDE801894FEA14454FEA114735
:1011D00024EA054621EA074C05FB07F406FB07F75E
:1011E0000CFB06F105FB0CFC11EB074144EB17442B
:1011F0004FEA124711EB0C4144EB1C4422EA074C26
:1012000005FB07F206FB07F70CFB06F605FB0CFCDB
:1012100016EB074642EB174216EB0C4642EB1C4519
:101220006A1854F1000148BF7047B619524141EBAA
:101230000101A3F10103704795F0000F37D04FEA89
:1012400011424FEA144721EA024624EA074C02FB06
:1012500007F106FB07F70CFB06F402FB0CFC14EB92
:10126000074441EB17414FEA154714EB0C4441EB9F
:101270001C4125EA074C02FB07F506FB07F70CFBB0
:1012800006F602FB0CFC16EB074645EB174516EB82
:101290000C4645EB1C42121951F1000148BF704742
:1012A000B619524141EB0101A3F1010370474FEA26
:1012B00014454FEA114724EA054621EA074C05FB8D
:1012C00007F106FB07F70CFB06F24FF0000605FBE3
:1012D0000CFC12EB074241EB174112EB0C4251EBB5
:1012E0001C4148BF7047921841EB0101A3F1010373
:1012F0007047000010B5044800F023FBBDE8104023
:10130000024800F01EBB0000F00000202001002079
:101310000EB5694600900120019002200290044819
:1013200000F0D6F9002801D072B6FEE70EBD00002D
:10133000F000002070B5044600688168C943C90701
:1013400017D1816821F00101816000F0C7FD0546D9
:101350000AE000BF00F0C2FD401B022804D920684B
:101360008068C043C00706D020688068C043C007BB
:10137000F0D0002070BDA06A40F01000A062E06ACA
:1013800040F00100E062012070BD0000F8B50026C9
:101390000446009600688168C943C9072DD081685A
:1013A00041F001018160164816490068B0FBF1F078
:1013B00000E0401E00900028FBD100F08FFD0546A4
:1013C00016E000BF00F08AFD401B022810D92068FB
:1013D0008068C043C0070BD0A06A40F01000A06234
:1013E000E06A40F00100E06284F824600120F8BD6A
:1013F00020688068C043C007E4D10020F8BD000029
:101400004400002040420F00084810B5808803F0D7
:101410009FFA074903F0E4FA6FF00B0103F03DFD7A
:10142000BDE81040034903F0DBBA000000000020D3
:101430003333534048E1BE4010B5027D836930F834
:1014400012401B1B836120F8121082690A448261DA
:10145000017D491CC9B201750A2901D3002101751A
:10146000017F0A2901D2491C0177C8B2B2FBF0F012
:1014700080B210BD70B590F828500E46044650F862
:101480002510C06A03F032FCE06244F82560314662
:10149000E06A03F0D7F80546E06294F82800401CA3
:1014A000C0B284F828000A2802D3002084F828005B
:1014B00094F830000A2802D2401C84F83000C0B2F0
:1014C00003F046FA01462846BDE8704003F02EB905
:1014D000FEE7000070B5FFF797FF114C114E314643
:1014E000E06103F023F905463146A06903F01EF9D7
:1014F00001462A460C4801F0EBFE0C4903F070FA55
:1015000003F0D6F90A4980B2608009684863094847
:1015100000F06EFBBDE87040074800F069BB0000BA
:10152000000000200000A041DC0000200000344545
:101530005001002020010020F0000020704772B60A
:10154000FEE7000070B503F003FA214903F048FA02
:101550006FF00B0103F0A1FC04461E4884421DDA23
:101560001D498C421ADD214603F0C0FB05461B498C
:10157000204603F035FA294603F0D8F801464FF02B
:101580007E54204603F0D2F8154903F0AFFB014624
:10159000204603F0CBF8B0F5000F01DA002070BD53
:1015A000104903F0C3F803F021F802F0F7F802F055
:1015B0008FFB0D4903F0BAF80C4903F043F80146DC
:1015C000204603F0B3F8BDE87040094903F08EBB34
:1015D000333353400000A040CDCCCC3D0080BB460F
:1015E00017B7513900401C4600E076450FCF5B3BF2
:1015F00033938843F8B500250446009590F82400FD
:1016000001280BD0012084F824002046FFF792FE29
:101610002046FFF7BBFE060002D050E00220F8BDD6
:10162000A06A20F4885040F00200A062022000F07E
:10163000F3FC25490968B1FBF0F0400000E0401ED2
:1016400000900028FBD12068816841F0080181608A
:1016500000F044FC074608E000F040FCC01B0A28EC
:1016600003D920688068000715D4206880680007C7
:10167000F2D42068816841F00401816000F02EFC02
:10168000074612E000F02AFCC01B0A280DD920688A
:101690008068400709D5A06A20F0020040F01000E1
:1016A000A06284F824500120F8BD206880684007BB
:1016B000E8D4A06A20F0020040F00100A06284F8A3
:1016C00024503046F8BD0000440000207047000060
:1016D000F8B50024009490F824202546012A12D061
:1016E000012280F824204A681F23072A0DD20668A9
:1016F000776B521E02EB820293409F430B6893402C
:101700001F43776319E00220F8BD06680D2A0AD24C
:10171000376BD21F02EB820293409F430B689340CA
:101720001F43376309E0F76A0D3A02EB82029340E8
:101730009F430B6893401F43F7620A6807230668BC
:101740000A2A0AD3F7680A3A02EB420293409F43FF
:101750008B6893401F43F76008E0376902EB420251
:1017600093409F438B6893401F4337610A68102A58
:1017700001D0112A20D1124B02689A4217D19368E6
:101780001B0219D4936843F400039360096810297D
:1017900012D10C490C4A0968B1FBF2F101EB81014D
:1017A000490000E0491E00910029FBD104E0816A54
:1017B00041F020018162012480F824502046F8BDC8
:1017C000002401404400002040420F002DE9F05F5A
:1017D000006852490025DFF848A1524C6FF00B0B0E
:1017E000884263D1504800F0A9F881B2607880B196
:1017F000012841D0022849D003287DD1E1814B48FE
:10180000FFF71AFEA0826570BDE8F05F0220FFF7C7
:101810007FBDA1804FF0010884F80080A088A188D6
:10182000A0FB0126D4E90C0117184E41C4E90C763F
:10183000E088401C80B2E080642819D303F088F867
:1018400081463846314603F052F8494602F06EFFB1
:1018500002F012FA514603F0C3F8594603F01DFB9B
:10186000334903F0BDF820620020C4E90C00E58094
:1018700084F80180052012E061812C484038FFF790
:10188000DBFD208202206070062008E0A18127484D
:101890002038FFF7D1FD6082032060700720FFF73A
:1018A00037FDBDE8F05F204800F0A2B92149884229
:1018B00031D1214800F042F82081208903F048F816
:1018C000514603F08DF8594603F0E7FA4FF07F5187
:1018D00003F00CFA014603F083F8E16A02F0B2FE6D
:1018E0000646E062E08A401C80B2E082642812D39F
:1018F00003F02EF8014600E00DE0304602F016FF3E
:1019000002F0BAF9A062A16A08482030FFF7B2FDE0
:101910006062E562E582BDE8F09F000000240140BE
:101920003333534000000020F000002088000020E6
:1019300048E1BE4000280140200100200068C06C42
:10194000704770B50446006806684568A90625D545
:10195000B10723D5A16AC90603D4A16A41F4007175
:10196000A1628168C1F34241072910D1217B71B97D
:10197000416821F020014160A06A20F48070A062DB
:10198000A06AC00403D4A06A40F00100A06220460F
:10199000FFF71CFF21686FF01200086028062ED5A3
:1019A00070072CD5A06AC00603D4A06A40F400508A
:1019B000A06220688168C1F30231072909D041681B
:1019C000490515D48168C1F34241072910D1217B13
:1019D00071B9416821F080014160A06A20F4805013
:1019E000A062A06AC00503D4A06A40F00100A06212
:1019F0002046FFF76BFE21686FF00C000860680658
:101A00000CD5F0070AD0A06A40F48030A0622046CE
:101A100000F094F821686FF00100086070BD0000CC
:101A20002DE9F0414FF0000704003D467ED0A06A4A
:101A3000002628B9E66284F82460204600F080F889
:101A40002046FFF777FCA16AC90600D420B1A06A3E
:101A500040F01000A06269E0A16A21F4885141F0D1
:101A60000201A1626268E169237B0A4347EA4301FC
:101A70000A43A1684FF48077B94209D0012907D001
:101A80005FF0000194F814C0BCF1010F02D00AE02D
:101A90003946F7E7F3B1A36A43F02003A362E36A90
:101AA00043F00103E3622368D3F804C02CF4694CCB
:101AB0004CEA010CC3F804C021688B68DFF870C0E1
:101AC00003EA0C0313438B60A168B9420BD00129D0
:101AD00009D00CE0DFF85CC0A3690CEB43330B4387
:101AE00043F40061DFE7218A0D05A5F58015216823
:101AF000CB6A23F470032B43CB62216889680E4BB9
:101B00001940914208D1E662A16A21F0020141F038
:101B10000101A162BDE8F081A06A20F0020040F05E
:101B20001000A062E06A40F00100E0620120F1E7ED
:101B3000FDF7E1FF00E0FFFFFE0E1FFF7047000012
:101B400010B586B000210091019102910391244CBF
:101B50000368244903222448A3421ED18B6943F41D
:101B600000738B618B6903F4007304938B6943F0FA
:101B700004038B61896901F004010491E421CDE93A
:101B80000012694600F0ACF800220121122000F09A
:101B900011FA122000F000FA18E0144CA3421DD1F3
:101BA0008B6943F480638B618B6903F480630493D6
:101BB0008B6943F004038B61896901F0040104918E
:101BC0001021CDE90012694600F08AF800220121B7
:101BD000122000F0EFF9122000F0DEF906B010BD7F
:101BE000002401400010024000080140002801408C
:101BF00070B5044690F8240001280DD0012084F827
:101C000024002046FFF7C2FB02004FF0000005D081
:101C100084F82400104670BD022070BDA16A40F611
:101C20000163994341F48071A162224D23682249E6
:101C3000AB4218D10E6816F4702F14D0A66A46F481
:101C40008016A6620E68760505D5A66A26F40056AB
:101C500046F48056A662A66AF6040AD5E66A26F01D
:101C60000606E66206E0A66A26F48016A6625E68AC
:101C7000E9E7E06284F824006FF002001860206851
:101C8000436843F02003436020688368C3F3424302
:101C9000072B05D1A84208D1096811F4702F04D090
:101CA000816841F480118160B4E7816841F4A0014A
:101CB000F9E70000002801400424014070B5044603
:101CC00000F00CF90546601C02D00448007804447A
:101CD00000F004F9401BA042FAD370BD3800002088
:101CE0002DE9F84FDFF8B8910024A9F1040B234641
:101CF0000F2709F1040AABF1040EC9E00125A54044
:101D00002A40AA427DD1674ED1F804C0ACEB060848
:101D1000B44532D014DCBCF1030F3AD009DCBCF17D
:101D2000000F2AD0BCF1010F1CD0BCF1020F31D141
:101D30001DE0BCF1110F17D0BCF1120F2AD119E030
:101D4000B8F5881F19D006DCB8F5803F15D0B8F576
:101D5000801F1FD111E0B8F5001F0ED0B8F5041F89
:101D600018D10AE0CB6815E0CB681B1D12E0CB68E8
:101D700008330FE0CB680C330CE08B682BB1012BE0
:101D80004FF0080303D0456104E0042302E005613D
:101D900000E00023FF2A01D8064601E000F1040616
:101DA0004FEA840501D9A5F12005D6F8008007FA8D
:101DB00005FC28EA0C0803FA05F548EA0508C6F808
:101DC00000804D68ED0062D5374DAE6946F00106E2
:101DD000AE61AD6924F0030605F001050095334DB1
:101DE00006EB050CDCF80850A607360F07FA06F8D4
:101DF00025EA0805DFF8B880404503D14FF0000818
:101E000017E044E0DFF8AC80404502D14FF0010814
:101E10000FE0DFF8A480404502D14FF0020808E04F
:101E2000DFF89880404502D14FF0030801E04FF001
:101E3000040808FA06F848EA0508CCF808804D6856
:101E4000D9F80060ED024D4601D5164300E09643F7
:101E50002E604D68DAF80060AD02554601D5164394
:101E600000E096432E604D68DBF80060AD035D46F0
:101E700001D5164300E096432E604D68DEF8006001
:101E8000ED03754601D5164300E096432E60641CB1
:101E90000D682A46E5407FF431AFBDE8F88F0000B9
:101EA0000804014000001110001002400000014031
:101EB00000080140000C01400010014000140140E6
:101EC000C26821EA02030A4043EA02410161704705
:101ED0000AB1016170470904FBE70000014880680E
:101EE00070470000380000200248816802781144E1
:101EF0008160704738000020074810B5016841F044
:101F000010010160032000F075F80F2000F006F8C2
:101F100000F024F8002010BD0020024070B50D4DE7
:101F200004464FF47A712878B1FBF0F00A49096849
:101F3000B1FBF0F000F094FB48B9102C07D200225E
:101F40002146501E00F036F800206C6070BD012064
:101F500070BD000038000020440000200C4808B587
:101F6000816941F001018161816901F00101009104
:101F7000C16941F08051C161C06900F0805000909A
:101F80000448416821F0E06141F00071416008BD02
:101F90000010024000000140002809DB00F01F0291
:101FA000012191404009800000F1E020C0F80011BB
:101FB00070470000F0B40E4B1B680C46C3F30223BD
:101FC000C3F10705042D00D90425191D072901D2E5
:101FD000002300E0DB1E012606FA05F1491E214020
:101FE00099409E40761E16403143F0BC01F058BB2C
:101FF0000CED00E0064900F0070208684FF6FF0309
:10200000184040EA0220034A10430860704700006D
:102010000CED00E00000FA0510B501460020234C4D
:10202000012922D0022939D010291DD161682268E6
:10203000D20119D51E48C1F38342C903805C0AD579
:1020400061681B4AC1F34041921E515C194AB2FBC0
:10205000F1F1484301E0184948436168490203D45B
:1020600040000321B0FBF1F010BD226AC2F3012150
:10207000012903D1920701D5C80310BD022905D15A
:10208000626A920702D549F6404010BD0329FCD18F
:1020900021688903F9D54FF2244010BD00F01AF9E8
:1020A0006168C1F38131491C4900DBE7001002403F
:1020B000C25C000800127A0000093D002DE9F843D7
:1020C00005460078354CC00754D0E0690026C000B2
:1020D00008D4E06940F08050E061E069012600F03A
:1020E000805000902E480168C90512D401688046CE
:1020F00041F480710160FFF7F1FE074605E000BF83
:10210000FFF7ECFEC01B642823D8D8F80000C005F8
:10211000F6D5206A10F4407021D0A98801F44071EE
:1021200081421CD0206A1F49012220F440700A60BD
:1021300000220A602062C00711D0FFF7CFFE0746D9
:1021400041F2883808E000BFFFF7C8FEC11B4145D7
:1021500002D90320BDE8F883206A8007F4D5206AFD
:10216000696820F44070084320621EB1E06920F0E5
:102170008050E0612878800705D56068A96820F460
:102180004040084360602878C00605D56068E9686B
:1021900020F48000084360600020DBE7001002406C
:1021A00000700040400442422DE9F0470F46050010
:1021B00061D0434E306800F00700B84209D2306861
:1021C00020F0070038433060306800F00700B84264
:1021D00051D128683B4C810712D5400703D5606870
:1021E00040F4E06060602878000703D5606840F440
:1021F000605060606068A96820F0F000084360608B
:102200002878C00728D06868012810D021680228E3
:1022100010D0890700292EDA616821F003010143FB
:102220006160FFF75BFE804641F288390DE021686E
:102230008903EFE78901EDE7FFF750FEA0EB080106
:10224000494502D90320BDE8F0876068696800F05D
:102250000C00B0EB810FEFD1306800F00700B842FE
:102260000BD9306820F0070038433060306800F048
:102270000700B84201D00120E5E72878400705D5DE
:102280006068E96820F4E06008436060287800072F
:1022900006D56068296920F4605040EAC10060609A
:1022A00000F028F86168084AC1F30311515CC84086
:1022B0000649086006480068FFF730FE0020C2E7C4
:1022C0000020024000100240D25C000844000020C0
:1022D0003C0000200448054900684968044AC1F3ED
:1022E000C221515CC84070474400002000100240E9
:1022F000E25C00080E4A51680E4801F00C03042B02
:1023000011D0082B0FD10C48C1F38343C903C05C23
:102310000AD55168084AC1F34041921E515C054AF2
:102320005043B0FBF1F07047044948437047000048
:102330000010024000127A00B05C000800093D0065
:102340002DE9F84F040070D02078C04DC00749D067
:102350006868C0F38100012807D06868C0F3810075
:10236000022809D16868C00306D52868800339D5DA
:1023700060680028E7D035E06068B0F5803F0BD09A
:1023800010B1B0F5A02F11D0286820F4803028605B
:10239000286820F4802002E0286840F4803028601B
:1023A000606890B1FFF79AFD06460AE0286840F49D
:1023B00080202860F0E700BFFFF790FD801B6428B5
:1023C00073D828688003F7D50CE0FFF787FD064631
:1023D00005E000BFFFF782FD801B6428F0D8286865
:1023E0008003F7D420789A4E80074FF001094FF010
:1023F000000839D5686810F00C0F07D06868C0F382
:102400008100022809D16868C00306D428688007C3
:1024100014D52069012808D110E02069B0B1C6F8B0
:102420000090FFF75BFD074605E00AE1FFF756FD68
:10243000C01B0228C4D828688007F7D528686169BE
:1024400020F0F80040EAC10028600DE0C6F80080E6
:10245000FFF744FD074604E0FFF740FDC01B0228DC
:1024600023D828688007F7D4207800072CD579482E
:10247000A169D9B1C0F80090FFF730FD074604E02C
:10248000FFF72CFDC01B02280FD8686A8007F7D51C
:1024900071484FF4FA510068B0FBF1F0009000BFB2
:1024A0000098411E0091FAD20EE080E0C0F8008052
:1024B000FFF714FD074604E0FFF710FDC01B0228DC
:1024C00075D8686A8007F7D42078400760D5E86936
:1024D0000027C00008D4E86940F08050E861E8694E
:1024E000012700F0805000905C480168C90513D4B2
:1024F0000168834641F480710160FFF7EFFC82467A
:1025000006E000BFFFF7EAFCA0EB0A0064284ED803
:10251000DBF80000C005F5D5E06801280AD008B155
:10252000052813D0286A20F001002862286A20F0CC
:10253000040002E0286A40F001002862E06841F2ED
:10254000883B98B1FFF7CAFC82460BE0286A40F04E
:1025500004002862EEE700BFFFF7C0FCA0EB0A0111
:1025600059455AD8286A8007F6D50CE0FFF7B6FC23
:10257000824605E0FFF7B2FCA0EB0A0159454CD8B2
:10258000286A8007F6D41FB1E86920F08050E8611E
:10259000E06988B36968C1F38101022944D0022847
:1025A000C6F8608004D0FFF799FC044638E034E0B8
:1025B000FFF794FC074604E0FFF790FCC01B0228DD
:1025C0002BD828688001F7D4206AB0F5803F05D168
:1025D0006868A16820F4003008436860D4E9080105
:1025E0000843696821F4741108436860C6F8609074
:1025F000FFF774FC044606E025E000BFFFF76EFC21
:10260000001B022809D828688001F7D51BE000BF0D
:10261000FFF764FC001B022802D90320BDE8F88FF5
:1026200028688001F4D40EE00128F7D06868226A97
:1026300000F48031914204D1616A00F47010884244
:1026400001D00120EAE70020E8E700000010024086
:1026500000004242800442424400002000700040DA
:1026600010B5401EB0F1807F01D3012010BD4FF0A6
:10267000E02460610F21601701F012F80020A061D2
:1026800007202061002010BD7047704710B590F8FA
:102690003C20012A22D0012280F83C20CA688C68A4
:1026A00022F4407222434C6822F4806222430C6878
:1026B00022F4006222430C6922F4805222434C69C6
:1026C00022F400522243C969002322F480420A43C3
:1026D00001684A6480F83C30002010BD022010BD23
:1026E00070B590F83C20012A26D0012480F83C40A7
:1026F000022280F83D2003685A689D6822F0700627
:102700000A6832435A600D4B02689A4208D0B2F10F
:10271000804F05D00A4B9A4202D00A4B9A4204D10C
:10272000496825F080031943916080F83D400021FD
:1027300080F83C10084670BD022070BD002C01409E
:10274000000400400008004010B5040003D094F8D5
:102750003D0010B107E0012010BD002084F83C00CE
:10276000204600F01FF8022084F83D00211D20685B
:1027700000F036FE012084F8460084F83E0084F81C
:102780003F0084F8400084F8410084F8420084F857
:10279000430084F8440084F8450084F83D0000209C
:1027A00010BD000008B5114A01681148914208D1D6
:1027B000816941F400618161806900F400600090EA
:1027C00008BDB1F1804FFBD1C16941F00101C16188
:1027D000C069002200F00100009011461C20FFF7A4
:1027E000E9FBBDE808401C20FFF7D6BB002C0140E8
:1027F0000010024090F83D10012901D001207047DF
:10280000022180F83D100168CA6842F00102CA60E6
:1028100000680B49884208D0B0F1804F05D00949C3
:10282000884202D00849884204D1816801F007013A
:10283000062903D0016841F00101016000207047C2
:10284000002C0140000400400008004070B5044620
:1028500090F83C000025012817D0012684F83C6040
:10286000022084F83D002068826822F0770222F47A
:102870007F4282600868502838D00DDC20284FD075
:1028800005DC90B3102811D14AE0022070BD302839
:1028900046D040280AD13BE060282FD070280DD0C8
:1028A000B0F5805F03D0B0F5005F12D0012584F849
:1028B0003D60002084F83C00284670BDCB68D1E91B
:1028C0000121206800F0D5FD2068816841F0770182
:1028D00009E0CB68D1E90121206800F0CAFD206839
:1028E000816841F480418160E1E719E0CA68496884
:1028F000206800F073FE5021206806E0CA6849682D
:10290000206800F07CFE6021206800F0BCFDCEE76E
:10291000CA684968206800F061FE40212068F4E739
:10292000226801461046F0E770472DE9F041044661
:102930000068C66805694FF00007A90713D5B107FD
:1029400011D5F91E01610120207720688069800778
:10295000204602D0FFF7E8FF04E000F0B1F820467F
:1029600000F043F92777680716D5700714D521685A
:102970006FF004000861022020772068806910F45D
:10298000407F204602D0FFF7CFFF04E000F098F828
:10299000204600F02AF92777280715D5300713D5E8
:1029A00021686FF008000861042020772068C06962
:1029B0008007204602D0FFF7B7FF04E000F080F860
:1029C000204600F012F92777E80616D5F00614D550
:1029D00021686FF010000861082020772068C06926
:1029E00010F4407F204602D0FFF79EFF04E000F085
:1029F00067F8204600F0F9F82777E80708D0F007D5
:102A000006D021686FF001000861204600F03CF913
:102A1000280608D5300606D521686FF080000861C9
:102A20002046FFF731FE680608D5700606D52168F6
:102A30006FF040000861204600F038F9A8060AD57A
:102A4000B00608D521686FF0200008612046BDE877
:102A5000F041FFF71ABEBDE8F081000010B586B066
:102A600000210091019102910391124C03681249D7
:102A700002221248A34209D18B6943F004038B61FF
:102A8000896901F00401049181150BE0B3F1804FD5
:102A90000ED18B6943F004038B61896901F0040155
:102AA00004910121CDE9001269460392FFF718F95C
:102AB00006B010BD002C014000100240000801408B
:102AC000704770B5044690F83C0000260D4601287A
:102AD0000FD0012084F83C006AB1042A1DD0082AD6
:102AE0002FD00C2A3FD00126002084F83C0030462D
:102AF00070BD022070BD206800F0CEFC20688169A6
:102B000041F0080181612068816921F0040181613F
:102B1000206881692A69114311E0206800F0E4FC13
:102B20002068816941F4006181612068816921F434
:102B300080618161206881692A6941EA022181619D
:102B4000D2E7206800F0FCFC2068C16941F0080170
:102B5000C1612068C16921F00401C1612068C169B7
:102B60002A69114311E0206800F016FD2068C16950
:102B700041F40061C1612068C16921F48061C161D3
:102B80002068C1692A6941EA0221C161ACE710B538
:102B9000040003D094F83D0010B107E0012010BDFF
:102BA000002084F83C00204600F01EF8022084F843
:102BB0003D00211D206800F013FC012084F8460030
:102BC00084F83E0084F83F0084F8400084F8410017
:102BD00084F8420084F8430084F8440084F84500F7
:102BE00084F83D00002010BD7047704710B50446C2
:102BF000022249B104290ED0082913D094F84100CB
:102C0000012816D0012010BD94F83E000128F9D10A
:102C100084F83E200FE094F83F000128F2D184F8B8
:102C20003F2008E094F840000128EBD184F84020D0
:102C300001E084F841200122206800F00DFC0F49DA
:102C40002068884203D1426C42F40042426420680A
:102C5000884208D0B0F1804F05D00949884202D09F
:102C60000849884204D1816801F00701062903D090
:102C7000016841F001010160002010BD002C0140FD
:102C8000000400400008004010B50068B0F1804F1B
:102C900008D1FEF71FFCBDE810404FF40051024878
:102CA000FFF70EB910BD0000001001407047FEE7AD
:102CB00070B501220D4D540221462846FFF708F950
:102CC0000122160231462846FFF702F900F0E9FA20
:102CD000002221462846FFF7FBF800F0E2FA3146D1
:102CE0002846BDE870400022FFF7F2B8000C014012
:102CF00070B50B4C012211022046FFF7E9F800F0F5
:102D0000D0FA6515002229462046FFF7E1F800F0C9
:102D1000C8FA29462046BDE870400122FFF7D8B81E
:102D2000000C014070B50122084D140221462846CE
:102D3000FFF7CEF800F0B5FA002221462846FFF74B
:102D4000C7F8BDE8704000F0ACBA0000000C0140CC
:102D50003EB500211148009101910F4A0291026095
:102D600081600173017501244FF460220461C26126
:102D70004160FEF755FE08B1FEF7E1FB0220CDE908
:102D800000040520029069460448FEF7A1FC0028D3
:102D900001D0FEF7D4FB3EBD00240140F00000202E
:102DA0003EB500211148009101910F4A0291026045
:102DB00081600173017501244FF460220461C261D6
:102DC0004160FEF72DFE08B1FEF7B9FB0420CDE906
:102DD00000040520029069460448FEF779FC0028AB
:102DE00001D0FEF7ACFB3EBD0028014020010020D1
:102DF0002DE9F04186B00024254800940194029406
:102E00000394816941F010018161816901F0100131
:102E10000491816941F020018161816901F0200103
:102E20000491816941F004018161816901F004012B
:102E30000491816941F0080181618069154F00F0BA
:102E400008004FF400550490002229463846FFF749
:102E50003FF8DFF844804FF4407601223146404687
:102E6000FFF736F80220CDE90240009501256946BA
:102E700001953846FEF734FF0320CDE90240CDE945
:102E8000006569464046FEF72BFF06B0BDE8F081BD
:102E90000010024000100140000C014010B596B037
:102EA00000240F9410941194129413941C2108A8D8
:102EB0001494FDF773FA20216846FDF76FFA28484D
:102EC0002649C0E9001440F63F31C0E902410461DF
:102ED00044618461FFF738FC08B1FEF730FB4FF422
:102EE00080500F900FA91E48FFF7B0FC08B1FEF705
:102EF00026FB1B48FFF74BFE08B1FEF720FB13949F
:102F000013A917481494FFF7EBFB08B1FEF717FB62
:102F10006020CDE908040A940B940C940D940022CF
:102F200008A90F480E94FFF7CCFD08B1FEF707FB88
:102F300000944FF40050CDE90440029401940394AE
:102F4000694607480794FFF7A1FB08B1FEF7F7FAB7
:102F50000348FFF783FD16B010BD0000002C0140B0
:102F60005001002010B58EB00024079408940994F5
:102F70000A940B941C2168460C94FDF70FFA1E4826
:102F80004FF0804101604721C0E9011440F2F31184
:102F9000C0E903148461FFF7D7FB08B1FEF7CFFA4D
:102FA0004FF48050079007A91348FFF74FFC08B172
:102FB000FEF7C5FA1048FFF7EAFD08B1FEF7BFFAC1
:102FC0000B940BA90C480C94FFF78AFB08B1FEF791
:102FD000B6FA6020CDE90004029400226946064852
:102FE0000494FFF76EFD08B1FEF7A9FA0248FFF757
:102FF00035FD0EB010BD000098010020FEE7FEE791
:1030000070B5002404F1B000C0B2002100F027F92F
:103010000021084600F023F90021102000F01FF9DC
:1030200000250121002000F01AF96D1CEDB2802D61
:10303000F7D3641CE4B2082CE4D370BD4B4810B540
:10304000816986B041F0080181618069484C00F0D7
:1030500008000490002002904FF44070009001207E
:1030600001900320039069462046FEF739FE0122B5
:1030700011022046FEF72CFF012251022046FEF7E6
:1030800027FF3220FEF71AFE0021AE2000F0E7F8FD
:103090000021084600F0E3F80021102000F0DFF8DE
:1030A0000021402000F0DBF80021B02000F0D7F82C
:1030B0000021812000F0D3F80021FF2000F0CFF89C
:1030C0000021A12000F0CBF80021A62000F0C7F8D5
:1030D0000021A82000F0C3F800213F2000F0BFF835
:1030E0000021C82000F0BBF80021D32000F0B7F881
:1030F0000021084600F0B3F80021D52000F0AFF819
:103100000021802000F0ABF80021D82000F0A7F8C3
:103110000021052000F0A3F80021D92000F09FF83D
:103120000021F12000F09BF80021DA2000F097F850
:103130000021122000F093F80021DB2000F08FF82E
:103140000021302000F08BF800218D2000F087F85E
:103150000021142000F083F80021AF2000F07FF858
:1031600006B0BDE81040FFF74BBF00000010024062
:10317000000C014010B50446B031C8B2002100F087
:103180006EF8102040EA1410002100F068F804F0F6
:103190000F00BDE81040002100F061B82DE9F041BA
:1031A000203A0D468046D6B27F2803D900208D1CD8
:1031B0008046EDB2102B294611D0FFF7DBFF1849EE
:1031C00006EB4600002401EB40050121285D00F0DC
:1031D00046F8641CE4B2062CF7D3BDE8F081FFF793
:1031E000C9FF104F002400BF04EB06100121385C1A
:1031F00000F035F8641CE4B2082CF5D36D1CE9B27C
:103200004046FFF7B7FF002404EB061038440121C5
:10321000007A00F024F8641CE4B2082CF4D3DCE754
:10322000164F00083E5100082DE9F0419846174618
:103230000E46044600250DE0434631462046FFF782
:10324000ADFF0834E4B2782C02D90024B61CF6B2E3
:103250006D1CEDB27A5D002AEED1BDE8F08110B5AB
:103260000129044614D0FFF723FD782000F0DAF995
:10327000FFF758FD002000F0D5F9FFF753FD204679
:1032800000F0D0F9FFF74EFDBDE81040FFF730BD6C
:10329000FFF70EFD782000F0C5F9FFF743FD402051
:1032A000E9E708B50020ADF80000BDF800000528EA
:1032B00004D200BFBDF80000401CF4E708BD10B503
:1032C000029CE0E80212002180E81A0010BD000014
:1032D0002DE9F0410B4604461146184601F006FD63
:1032E0000646D4E9010101F07BFB05463146206822
:1032F00001F076FB294601F0A5F907460546E1688D
:1033000001F03AFC01D2E56805E02846216901F0A8
:1033100033FB00D22569B6F5000F04DB3846E168BF
:1033200001F02AFB07D316F1FF4F0CD33846216971
:1033300001F022FC07D20549304601F051FBA1689B
:1033400001F080F9A0602846BDE8F0816F12033AD1
:1033500070477047FEF7C8BD30B593B02821684666
:10336000FDF71CF814210AA8FDF718F80025012024
:103370000F9510951195010412958DE82300049086
:103380004FF4E010CDE90810022407946846FEF7D8
:10339000D7FF08B172B6FEE70AA90F2081E8310015
:1033A0004FF48060CDE90D0502210AA8FEF7FCFE6E
:1033B00008B172B6FEE74FF4004011900F940FA8C9
:1033C000FEF77CFE002801D072B6FEE713B030BDD8
:1033D000704700000148FFF7A8BA000098010020DC
:1033E000F0B50268194B1A4C1A4D4FF080479842BD
:1033F00005D0B84203D0A04201D0A84203D122F0A8
:1034000070064A683243984205D0B84203D0A042C1
:1034100001D0A84203D122F44074CA6822434C6907
:1034200022F08002224302608A68C2620A688262D5
:10343000984201D109690163012141610169C9070C
:1034400003D0016921F001010161F0BD002C0140B0
:10345000000400400008004010B501F01F030121E6
:10346000046A99408C430462016A9A4011430162E4
:1034700010BD10B5846842EA032224F47F440A4355
:103480002243826010BD826822F070020A4342F03B
:10349000070181607047000030B5036A026A22F0BC
:1034A000010202624268846924F073050C682C43AF
:1034B00023F002058B682B430A4DA8420BD123F061
:1034C0000805CB6822F440722B434D6923F00403B6
:1034D00015438A692A4342608461496841630362F3
:1034E00030BD0000002C014030B5026A036A23F0B1
:1034F00010030362436884690D6824F4E64444EAD7
:1035000005248D6822F0200242EA05120B4DA842E4
:103510000ED1CD6822F0800242EA05124D6923F4F3
:10352000406343EA85038D6922F0400243EA850344
:103530004360846149688163026230BD002C0140B0
:1035400030B5036A026A22F4807202624268C4697A
:1035500023F4007324F073050C682C438D6843EA50
:1035600005230C4DA8420ED1CD6823F4006343EA35
:1035700005234D6922F4405242EA05128D6923F475
:10358000806342EA05124260C4614968C163036214
:1035900030BD0000002C014030B5046A026A22F4FC
:1035A000805202624268C3690D6823F4E64343EA2D
:1035B00005238D6824F4005444EA0534064DA842DE
:1035C00004D14D6922F4804242EA85124260C3610F
:1035D00049680164046230BD002C014010B5036AE3
:1035E000046A24F001040462846924F0F00444EACB
:1035F000021423F00A020A438461026210BD10B56E
:10360000036A046A24F010040462846923F0A003AE
:1036100024F4704444EA023243EA011182610162F7
:1036200010BDFEE72DE9F041124F002405464FF48E
:103630000078BE15280601D5012200E0002241468F
:103640003846FEF745FC6806050E0122314638462D
:10365000FEF73EFCFFF725FE002231463846FEF716
:1036600037FCFFF71EFE641CE4B2082CE2D3BDE871
:10367000F0810000000C0140490050EAC12018BF51
:1036800004204A0D18BF40F0010040F2FF72B2EB77
:10369000515F08BF40F00200012808BF05207047B5
:1036A0000907090E002804DB00F1E02080F800146F
:1036B000704700F00F0000F1E02080F8141D704703
:1036C0002DE9F0414F1E00EBC7010446D1E900018E
:1036D00015461E4637F006020DD02A46334600F046
:1036E00091FD7F1E04EBC703D3E9002300F022FB0A
:1036F00037F00602F1D1022F25D0042F13D0062F68
:1037000018BFBDE8F0812A46334600F07BFDD4E9BE
:103710000A2300F00FFB2A46334600F073FDD4E97C
:10372000082300F007FB2A46334600F06BFDD4E97E
:10373000062300F0FFFA2A46334600F063FDD4E981
:10374000042300F0F7FA2A46334600F05BFDD4E983
:10375000022300F0EFFA2A46334600F053FDD4E985
:103760000023BDE8F04100F0E5BA00000022134656
:103770001046014900F09ABB0000F03F012201F021
:103780005EBB002213461046114600F08FBB303856
:103790000A2801D201207047002070472DE9F04D22
:1037A000C84A002490B0914205DA21F000439342C8
:1037B00001D805D120B110B0BDE8F04DFFF7DEBF54
:1037C000B1F5801F1BDA53EA000209D0002911DA93
:1037D0000120FCF712FE10B0BDE8F04DFFF7D1BF9D
:1037E0000220FCF70AFEFFF7C1FF10B081F0004194
:1037F000BDE8F08D6FF03504362201F020FB04EBBC
:103800002152C1F31308B049A2F2FF33414401F43D
:10381000801282F07F6103EB225281F040510092CE
:1038200041EA08010022A94B00F0F6FD044608F128
:103830000200A74EC0F313000D467E44032867D252
:10384000D6E90023204600F089FC1ED1009800280C
:1038500002BFD6E9000110B0BDE8F08D00F0BAFC5F
:1038600007460C469B4A9C4B00F0CCFC06460D4696
:103870009A4A9B4B3846214600F0C4FC10B03246B1
:103880002B46BDE8F04D00F055BA4FF05532954B40
:103890002046294600F0B6FC0022934B00F0B0FD14
:1038A00006460F4622462B461046194600F0AAFC53
:1038B00032463B4600F0A6FC064600980F46F0B1A3
:1038C00000F088FC80468A46824A834B00F09AFCCE
:1038D00032463B4600F094FD22462B4600F09CFD0C
:1038E00005460C467D4A7E4B4046514600F08AFC18
:1038F00010B02A462346BDE8F04D00F08DBD0B46C2
:1039000010B0324620462946BDE8F04D00F084BD97
:1039100000224FF08043204600F00CFA02460B468E
:103920002046294600F0C2FA06460F46009800F0ED
:1039300051FCCDE9040132463B461046394600F0C1
:1039400061FC0C9069480C9A4044019009910B4627
:10395000104600F057FC8246024665488B46C8F187
:1039600051080B4608F5D72803217844FFF7A8FE35
:1039700052465B4600F046FC0A905E480D91524666
:103980005B4604217844FFF79BFE099B0C9A00F0EC
:1039900039FC844601980D9B40EA080860460A9A63
:1039A00000F0C8F983460891B8F1000F4EDD4FF0E2
:1039B000FF322046294601F042FA22462B4600F00B
:1039C00021FC804600988A4660B3DDE90401414A43
:1039D000414B00F017FC099100905A464046514671
:1039E000089B00F0A7F932463B4600F00BFC099B10
:1039F000009A00F09FF94246534600F001FD22462E
:103A00002B4600F009FD04460D46DDE90401334A6A
:103A1000334B00F0F7FB10B022462B46BDE8F04DCB
:103A200000F0FABC5A464046089B00F083F9324643
:103A30003B4600F0E7FB4246534600F0E1FC10B085
:103A400022462B46BDE8F04D00F0DABC009840B3AA
:103A5000DDE904011F4A204B00F0D4FB80468A4672
:103A60005A4620462946089B00F0D6FC32463B4683
:103A700000F0C8FB4246534600F0CEFC22462B46DF
:103A800000F0CAFC04460D46DDE90401134A144B5C
:103A900000F0B8FB10B022462B46BDE8F04D00F018
:103AA000BBBC0B465A462046294600F0B5FC3246C0
:103AB0003B4600F0A7FB10B022462B46BDE8F04D78
:103AC00000F09EBC0000F07F645F09000000F03F42
:103AD000FA240000763C7935EF39EA3D0000E0FE3B
:103AE000422EE63F5555D53F0000E03F86EBF9FFFB
:103AF00092230000902300008AB0FEF7FDF9FFF743
:103B00002BFCFFF775F9FFF7C9F9FFF721F9FFF76C
:103B100029FAFFF745F9FFF791FA0020404C4FF0E2
:103B20007E5100900B4622463E48FFF7C8FB00211D
:103B30003D48FFF75BF800213C48FFF757F83C4849
:103B4000FDF758FD3948FEF755FEA246394CDFF81F
:103B5000E8B03A4F6FF00B08206A00F047FDCDE95E
:103B6000000137A2142104A8FCF73AFB00210C2322
:103B700004AA0846FFF758FB5946606A00F030FF78
:103B800000F034FDCDE9000130A2142104A8FCF7B7
:103B900027FB0C2304AA02210020FFF745FB208A03
:103BA000FDF7D0FC8146608A00F0D2FE394600F075
:103BB00017FF414601F071F9514600F011FF00F086
:103BC00015FD05460E46484600F010FD8DE86300E1
:103BD00021A2142104A8FCF703FB0C2304AA04214E
:103BE0000020FFF721FBA08A00F0B2FE394600F06A
:103BF000F7FE414601F051F900F0F8FCCDE9000173
:103C00001AA2142104A8FCF7EBFA0C2304AA06213B
:103C10000020FFF709FB3220FEF750F89CE7000078
:103C200000004041DC0000205001002098010020ED
:103C3000F0000020000000200000CA43333353404E
:103C4000563A252D352E32665600000041433A255E
:103C50002D342E3266560000543A252D332E31660F
:103C600020423A252D332E3166000000493A252D99
:103C7000342E32664100000070B5054600F0AEFFFC
:103C8000044620F00040C0F1FF40C00F08D025F0EE
:103C90000040C0F1FF40C00F04BF0120FCF7ADFBA6
:103CA000204670BD10B500290AD00878002807D03A
:103CB00005487844FCF70EFF002801D0002010BD15
:103CC0000248784410BD0000422100003A21000063
:103CD00021F00042A2F16052B2F5801F01F00043D2
:103CE00028BFD2F17F6C0BD95FEA001C43EAC20205
:103CF00042EB507018BF704728BF20F0010070479A
:103D0000B2F5801FBCBF184670474FEA410C1CF546
:103D1000001F02D2084600F02ABF70B500F01CFB5D
:103D200000000089FFF7F6BF4FF00040A0F58000CB
:103D30007047000010B591EA030F48BF83F00043BD
:103D400000F17283841A71EB030C05D2121943EB54
:103D50000C03001B61EB0C01DFF824E14FEA115466
:103D6000A4EB135C1EEA430F18BF9EEA445F73D0B6
:103D700023EA0E03DCF1200E21EA045143F4801300
:103D800032D322FA0CFE10EB0E0023FA0CFE41EBAC
:103D90000E01CCF1200E03FA0EFE10EB0E0051F1D5
:103DA0000001B1F5801FCCF1200E32D201EB04519D
:103DB00012FA0EF2BDE8104058BF7047401C38BFE1
:103DC0005FEA420218BF7047002814BF20F00100CC
:103DD00041F100014FEA410313F5001F38BF70475E
:103DE000A1F1C04100F006BB012A43EB0302ACF194
:103DF000200CDCF11F0E32BF4FF0000E23FA0CF343
:103E000010EB030041EB0451B4EB115FD0D0A1EBF8
:103E1000045101F5801149085FEA300001EB0451BB
:103E20000ED350F1000038BF12FA0EFE08D1BDE8E3
:103E30001040C9E7401C38BF5FEA4202CAD1C3E75D
:103E4000BDE810404FEA410313F5001F38BF70472B
:103E5000A1F1C04100F0CEBA9EEA445F08D011EA59
:103E60005E0FBDE8104004BF01F000410020704724
:103E7000BDE8104070B500F06FFA00BF64FBBE3EB5
:103E80000000E0FF02494FF0000000F0A6BF00BFB5
:103E90000000F87F491058BFC1F140415B1058BF86
:103EA000C3F140438B42EFF3008070472DE9C041DE
:103EB00030B4DFF8A0C23CEA111418BF3CEA131476
:103EC00000F0EC8081EA03051CEA111444EAD57481
:103ED00018BF1CEA131500F0C780A4EB05044FF0CF
:103EE000004545EAC12145EAC32341EA505143EA6E
:103EF000525304F17F74994204F500344FEAC02014
:103F00004FEAC22208BF904200F09C804FEA13653E
:103F10000FF24016765D4FEA134506FB05F7C7F131
:103F2000807706FB07F74FEAD737A7FB036876428F
:103F3000C8F58038A7FB06CE38BFA8F1010807FBFB
:103F400008E64FF0000EA6FB028CE6FB03CEDCF188
:103F5000000CCEF1004E38BFAEF1010EA6FB0C589E
:103F60004FF000074FF00005E6FB0E87A1FB08C6E7
:103F7000A0FB07CE16EB0E0645F10005E1FB076539
:103F800015F1E04E7EBFA4F580345FEA46066D4130
:103F900016F1800745F100054FEA17274FEA06663C
:103FA00047EA0567A6F1DE46B6F1805F4FEA1525C0
:103FB0001FD9384624F0010C05EBC471BCF1FE6F2B
:103FC00001EB0C1102D8F0BCBDE8008124425CBFBB
:103FD00001F5801E9EEAC47F02D4F0BCBDE80081DA
:103FE000244238D4F0BCA1F1C041BDE8004100F04A
:103FF00001BA4FEAD22242EA43524FEAD323A7FB47
:1040000002864FEAD02040EA415007FB03661EEAD1
:104010000E0F4FEAD12105FB026658BFA6EB0056F2
:10402000B6EB00564FEA520E4EEAC37E18EB0E0E68
:1040300056EB530EBDD518EB02085E417F1C55F1BF
:104040000005B6E74FF480154FF000074FF000066B
:104050004FF00008ADE7F0BC4FF0000001F1C041A7
:1040600001F00041BDE8008111EA0C1F0CEA1315B4
:1040700000D00CE013EA0C1F00F025804FF0000088
:10408000F0BC81EA030101F00041BDE80081F0BC11
:10409000BDE8004181EA030100F0ACB9F0BCBDE825
:1040A000004170B500F058F9097EFC3E00F007B8F9
:1040B00081EA03014FF0000001F00041704781EAFE
:1040C000030100F097B9F0BCBDE800414FF00000DB
:1040D00021497047FFFDFBF9F7F5F4F2F0EEEDEB47
:1040E000E9E8E6E4E3E1E0DEDDDBDAD8D7D5D4D3F6
:1040F000D1D0CFCDCCCBCAC8C7C6C5C4C2C1C0BF42
:10410000BEBDBCBBBAB9B8B7B6B5B4B3B2B1B0AF47
:10411000AEADACABAAA9A8A8A7A6A5A4A3A3A2A12B
:10412000A09F9F9E9D9C9C9B9A99999897979695E6
:1041300095949393929191908F8F8E8E8D8C8C8B82
:104140008B8A89898888878786858584848383820A
:10415000828181800000FF070000F87F51EA030C94
:1041600017D41CF5801F58BFBCF5801F00F10680D6
:10417000994218BF704708BF9042704707D711F5A2
:10418000801F58BF13F5801F19D499427047894288
:1041900070471CF5801F08D5BCF5801FF7D58B42F2
:1041A00018BF704708BF824270474FF4001C1CEBD9
:1041B000410F38BF1CEB430F01D28B42704770B5E3
:1041C00000F0CAF8922449004FF000514FF080539C
:1041D000FFF760BE10F0004248BF4042B0FA80F3E3
:1041E00010FA03F10AD0C3F11D0303F580634FEA0F
:1041F000415002EB035202EBD12170474FF0000017
:1042000070470000DFF848C170B51CEA111E1EBFE0
:104210001CEA13159EEA0C0F95EA0C0F00F06F8054
:1042200081EA030423EA4C134EEAD47E21EA4C11BE
:1042300041F4801143F48013AE44A1FB024CA0FB77
:104240000365AEF17F7E361955EB0C05A1FB034CDF
:104250004CF10003A0FB021C16EB0C06654153F168
:104260000003094218BF46F0010613F4007F0BD18A
:104270004FEA03314FEA0530340341EA155140EA71
:1042800016506FF003020AE04FEAC3214FEAC5203F
:10429000F40241EA555140EA56506FF0020202EB37
:1042A0002E4201EB025585EACE710AD05FEA440C3A
:1042B00018BF24F0004450F1000041F1000120EA51
:1042C000D47040F2FE7C624500D270BDA84214BF9B
:1042D0004FF080444FF04044002E08BF0024BEF150
:1042E000806FA8BFA1F1C041BDE8704080F282801C
:1042F0004FF0000001F1C04101F0004170479EEA1B
:104300000C0F0CEA131518BF95EA0C0F06D04FF0EE
:10431000000081EA030E0EF0004170BD00F01CF8B1
:104320008900013E00F007B800F009B84FEA430CDD
:104330005FEA5C5C08D081EA030100F05BB84FEAF9
:10434000410C5FEA5C5CF6D14FF000000149704718
:104350000000FF070000F87F0EF1020E2EF0030EA2
:104360005EF8046B364205D4012A43EB030515F5CC
:10437000001F12D8012841EB010C1CF5001F0CD8BE
:104380000ED14FEAD17C15F5001F0CEB4C0C0CF153
:10439000020C08BF4CEBD37C04E04FF0080C01E0AA
:1043A0004FEAD37C0CEB4C0526FA05F606F007061F
:1043B000B6F1040C06D20EEB860CBDE870404CF052
:1043C000010C6047DFE80CF0090B02024FF00041DE
:1043D0004FF00000A1F5002170BD194610460128DC
:1043E00051EB010418BFD4F5001484BF002001F084
:1043F000004170BD0808A0F500114FEA3101704777
:1044000091EA030F10B581F000413FF59BAC83F0BA
:10441000004300F009B8000010B591EA030F48BF4F
:1044200083F000433FF58EAC841A71EB030C07D286
:1044300012198CF0004C43EB0C03001B61EB0C01D8
:10444000DFF8A4E14FEA1154A4EB135C1EEA430F1A
:1044500018BF9EEA445F00F0B08023EA6E03524228
:1044600021EA0451C3EB6E0338BF5B1EDCF1200E62
:1044700025D322FA0CFE10EB0E0043FA0CFE41EBA2
:104480000E01CCF1200E03FA0EFE10EB0E0051F1DE
:104490000001CCF1200E29D412FA0EF201EB0451E6
:1044A000BDE8104058BF7047401C1CBFB2F1004F20
:1044B000704700280CBF491C20F00100704712EB28
:1044C000020E43EB030218BF4FF0010E4EEA420208
:1044D000ACF1200CDCF11E0E54D943FA0CFE10EBAB
:1044E0000E0051F1FF31CCF11E0ED5D50EF1010EAB
:1044F00012FA0EFE404141EB010101EB445C5FEA20
:104500005C5C10D910EBDE7001EB045138BFBEF1DA
:10451000004FBDE8104018BF704700280CBF491C71
:1045200020F00100704730D24FEAD42C11F5001171
:1045300024F400641BD0B1FA81F20B3AA41AA41E31
:10454000D2F12003914030FA03F31943904001EB7C
:10455000CC71002C01EB0451BDE81040A8BF70479E
:1045600001F1C0414FF0000001F000417047B0FA86
:1045700080F310FA03F100D110BDE41A173C48058E
:10458000C90AE4E701EB045110BD491001EB0451E5
:10459000BDE810404FEA300002E04FF000017047E4
:1045A0004A0008BF0042F8D0B2F5001F28BF70478C
:1045B00001F000414FF0000070479EEA445F07D0D1
:1045C00011EA5E0FBDE8104004BF002100207047D3
:1045D000BDE8104070B5FFF7BFFE00BF40DFF63EFC
:1045E00083F00041104670470000E0FF43004FEAAF
:1045F000D30C4FEA3C0C43401FBF40070CF1605105
:1046000013F0FE4F70471CF0006F03D100200CF038
:10461000004170470CF0004343EA507010B540EA87
:10462000CC0000F05EFA00BF000000924FEA0001EB
:10463000FFF7E0BE4FF000414FF00000A1F5002170
:104640007047000090EA010F48BF81F0004100F17F
:104650005483421A3CBF801A89184FEAD0524FF057
:104660007F4C1CEA410FA2EBD15318BF9CEA026FAA
:1046700000F03B804FF0004C4CEA00204CEA012156
:1046800021FA03FC10EB0C0C1ED202F1FF325FEAA0
:104690001C2040EBC25038BF70471CF07F0F4FEA20
:1046A000400C18BFBCF17F4F38BF7047C3F12003E7
:1046B000994008BF20F00100BCF17F4F38BF704720
:1046C000A0F1C04000F053BA4FEA3C00000A40EBB2
:1046D000C25028BF1CF0FF0F4FEA400CE6D018BFB5
:1046E000BCF17F4F38BF7047EAE79CEA026F05D004
:1046F00010EA5C0F08BF00F00040704710B500F0F2
:10470000F0F900BF64FBBE3E014800F066BB00BF8D
:104710000000C07F401058BFC0F14040491058BF52
:10472000C1F140418142EFF3008070474FF47F0CAC
:104730001CEAD0121EBF1CEAD11392EA0C0F93EAB6
:104740000C0F00F0858090EA010F48BF42F48072A0
:1047500040F4000C41F400002CF07F4120F07F4039
:1047600000B58142A2EB03020FF2081CACEB504EE5
:10477000C0F100009EF800E04FEA4E0E00FB0EFC78
:1047800038BF49004FEA2C1C02F5FA020CFB0EF36D
:104790004FEACE1E4FEA112C4FEAC1210EEB635EA9
:1047A00042EB22420EFB0CFC4FEA1C5300FB0311B0
:1047B0004FEA112C4FEA01310EFB0CFC4FEADC4CA6
:1047C00000FB0C11C14228BF09184CEB03335DF804
:1047D00004EB10EB410143EBC250B2F57C0F38BF44
:1047E000704729D512F0F00F1CBF00F1C04000F057
:1047F00000407047008182838485868788898B8CFE
:104800008D8E8F919293959697999A9C9D9FA0A239
:10481000A3A5A7A8AAACAEB0B2B3B5B7B9BCBEC089
:10482000C2C5C7C9CCCED1D4D7D9DCDFE2E6E9EC2A
:10483000F0F3F7FAFE0000004FEA400C0CF1807C28
:10484000BCF17E4F28BF7047B0F1C04000F08FB977
:1048500090EA010F0CEAD11348BF42F4807262451E
:1048600038BF634507D213F47F0F16D080EA0100EA
:1048700000F00040704710B500F033F9097EFC3EAF
:1048800000F005B880EA010000F00040704780EABF
:10489000010000F0004000F06AB912F47F0F04BF7D
:1048A0000248704780EA010000F061B90000C07F53
:1048B000C10DD1F19E0206DB4FEA002343F0004315
:1048C00023FA02F07047004207D54FEA4001B1F1E8
:1048D000FE4F02D24FF00000704710B500F001F912
:1048E00049922480002070476FEA200070474FF003
:1048F0007E5209E011F0004204D54042C1F10001AE
:1049000038BF491E42F07E520B0002F1706212BFA6
:1049100020235FEA00017047B1FA81FCA3EB0C038E
:1049200001FA0CF120FA03FC02EBC352C3F120039D
:1049300041EA0C0110FA03FC5CEA416C42EB1120E5
:1049400018BF5FF0806C28BF20F0010070470000A6
:10495000B0FA80F310FA03F2C3F19D030AD0D9052F
:1049600001EB1220530638BF704700F1010008BF69
:1049700020F001007047000050EA010C00F11380A4
:104980001CF5000F58BFBCF5000F01D488427047DA
:1049900007D710F5000F58BF11F5000F15D4884246
:1049A0007047894270471CF5000F04D5BCF5000F15
:1049B000F7D5814270474FF0807C1CEB400F38BF29
:1049C0001CEB410F01D28142704710B500F089F80D
:1049D000922449004FF000504FF08051FFF79ABEEB
:1049E0004FF47F0C1CEAD0121EBF1CEAD11392EACE
:1049F0000C0F93EA0C0F00F0478090EA010F48BFBC
:104A000042F480724FF0004C4CEA00204CEA012145
:104A100002EB0302A0FB0113A2F50002002918BF5C
:104A200043F001035B0028BF4FEA330342EB22420D
:104A30005FEA132C4CEBC2502EBFBCEB436FB2F5B8
:104A40007C0F70474FEA036CBCF1004F08BF20F0A9
:104A50000100B2F57C0F38BF70470BD582F0FF0222
:104A600012F5803FC8BF704700F1C040D8BF00F0CA
:104A70000040704700F5000C5FEA4C0C48BF7047DF
:104A8000B0F1C04000F073B890EA010F0CEAD11306
:104A900048BF42F48072624538BF634504D280EA61
:104AA000010000F00040704710B500F01AF800BF98
:104AB0008900013E00F007B800F009B85FEA410C38
:104AC0005FEA1C6C08D080EA010000F050B85FEA91
:104AD000400C5FEA1C6CF6D14FF00040A0F580005E
:104AE00070470EF1020E2EF0030E5EF8044B2442C6
:104AF00004D44FEA4102B2F17F4F11D84FEA40038C
:104B0000B3F17F4F0CD80ED14FEAD07CB2F17F4F7A
:104B10000CEB4C0C0CF1020C08BF4CEBD17C04E00C
:104B20004FF0080C01E04FEAD17C0CEB4C0324FA67
:104B300003F404F00704B4F1040C06D20EEB840C69
:104B4000BDE810404CF0010C6047DFE80CF00708AE
:104B500002024FF00040A0F5800010BD0846420060
:104B600018BFD2F1807288BF00F0004010BDFF2155
:104B700041EAD050C005704751EA000C00F11380A3
:104B80001CF5000F58BFBCF5000F01D481427047DF
:104B900007D711F5000F58BF10F5000F15D481424B
:104BA0007047894270471CF5000F04D5BCF5000F13
:104BB000F7D5884270474FF0807C1CEB410F38BF1F
:104BC0001CEB400F01D28842704780EA010081EA65
:104BD000000180EA0100FFF7F8BE00004FEAD05163
:104BE000002988BFD1F1FF0240F2758001F17D01FB
:104BF0004FEA002070B5490840F0004038BF400837
:104C00000EA2430E040CD25C02FB02F304FB03F37E
:104C1000C3F14043A3FB0254ED0D45EA442202FBDD
:104C200002F3A0FB03546D42C4F1404438BF641E3C
:104C3000A2FB05350023E2FB0453EA0B42EA4342A0
:104C4000A0FB023212F14004A2F12103E40903F0B7
:104C50007F031F2B32D904EBC15070BDFEFAF7F36E
:104C6000F0ECE9E6E4E1DEDCD9D7D4D2D0CECCCA90
:104C7000C8C6C4C2C1BFBDBCBAB9B7B6B4B3B2B07E
:104C8000AFAEACABAAA9A8A7A6A4A3A2A1A09F9EC1
:104C90009E9D9C9B9A9998979796959493939291A1
:104CA00090908F8E8E8D8C8C8B8A8A89898887874D
:104CB00086868584848383828281818004FB04F6D6
:104CC000B6EB004603D5E64248BF641CC3E7A642E4
:104CD00058BF641CBFE711F0FF0F02D100F0004085
:104CE000704710B5FFF7FDFE7FDBFFBE90EA010FB6
:104CF00048BF81F000413FF5ACAC421A04D882F0C5
:104D00000042A0EB020011444FEAD0524FF07F4C1A
:104D10001CEA410FA2EBD15318BF9CEA026F4AD0A4
:104D20004FF0004C4CEA00204CEA012121FA03FC30
:104D3000B0EB0C0C0FD412F0FE0F36D05FEA4C0033
:104D40001DD5001240EBC25038BF70471CF03F0F1A
:104D500018BF70470BE0A2F101025FEA1C2040EB94
:104D6000C25038BF70471CF07F0F18BF7047C3F1A7
:104D70002003994014BF401E20F0010070478008B6
:104D80004FEA122308BF7047B0FA80FCA2EB0C0276
:104D9000CCF1280C60FA0CF093EA122F04BF00EB60
:104DA000C25070474FEAC3707047130A5FEADC10C5
:104DB00008BF7047F6E79CEA026F04D010EA5C0F68
:104DC00008BF0020704710B5FFF78BFE40DFF63EAE
:104DD00081F000407047FBF7EFBB0CF00F03092B8D
:104DE00008BF082000F07F800A2B0BD0082B18BFCB
:104DF000704708BF1CF0400F0AD04FF000004FF082
:104E0000000170471CF0400F18BF4FF00040704782
:104E10001CF0100F08D020F0704300F07F4242EAEF
:104E2000D3014FEA4370704700F0604021F07F42A9
:104E300042EA000201F07F4040EA727070474FF092
:104E4000FF0C4CF4E06C1CEA11531CBF9CEA030CF1
:104E50009445C2BFDA4201EB02517047002B0DD0DE
:104E6000BCF1000F0FD0002A01F00041A4BF41F0B7
:104E7000E04141F07F614FF00000704701F00041D8
:104E80004FF00000704750EA01334FF09B0C18BF01
:104E90004CF0806C7EF4F6AF70474FF0FF0212EAE0
:104EA000D0521CBF92F0FF038B42C2BFD14200EB35
:104EB000C1507047002A0AD0002B0BD0002900F007
:104EC0000040A4BF40F0FE4040F40000704700F0F6
:104ED0000040704743024FF00B0C18BF4CF0806C41
:104EE0007FF412AC70471CF4801F11D01CF4E02F2B
:104EF00003D06FEACC31490070474FF04050EFF3D8
:104F0000008222F0704242EA000282F30088704779
:104F10004FF0000070470000000000000000002F6C
:104F2000000000000700070000147F147F14002415
:104F30002A7F2A1200626408132300364955225042
:104F400000000503000000001C2241000000412277
:104F50001C000014083E08140008083E0808000061
:104F600000A0600000080808080800006060000059
:104F7000002010080402003E5149453E0000427FD7
:104F80004000004261514946002141454B31001823
:104F900014127F10002745454539003C4A494930E5
:104FA000000171090503003649494936000649499F
:104FB000291E0000363600000000563600000008AA
:104FC0001422410000141414141400004122140887
:104FD00000020151090600324959513E007C12116C
:104FE000127C007F49494936003E41414122007F01
:104FF0004141221C007F49494941007F09090901BB
:10500000003E4149497A007F0808087F0000417F3F
:105010004100002040413F01007F08142241007FF1
:1050200040404040007F020C027F007F0408107F58
:10503000003E4141413E007F09090906003E4151C1
:10504000215E007F0919294600464949493100017E
:10505000017F0101003F4040403F001F2040201FD2
:10506000003F4038403F0063140814630007087095
:10507000080700615149454300007F414100005548
:105080002A552A55000041417F0000040201020414
:105090000040404040400000010204000020545401
:1050A0005478007F48444438003844444420003851
:1050B0004444487F00385454541800087E090102C3
:1050C0000018A4A4A47C007F080404780000447D98
:1050D0004000004080847D00007F102844000000D4
:1050E000417F4000007C04180478007C08040478A8
:1050F00000384444443800FC242424180018242494
:1051000018FC007C0804040800485454542000048F
:105110003F444020003C4040207C001C2040201C9C
:10512000003C4030403C004428102844001CA0A013
:10513000A07C004464544C4414141414141400004F
:10514000000000000000000000000000000000005F
:1051500000F80000000000000033300000000010E4
:105160000C06100C0600000000000000000040C00B
:105170007840C0784000043F04043F0404000070FD
:1051800088FC08300000001820FF211E0000F008F5
:10519000F000E018000000211C031E211E0000F09A
:1051A0000888700000001E212324192721101016E2
:1051B0000E000000000000000000000000000000E1
:1051C00000E0180402000000000718204000000260
:1051D0000418E000000000402018070000004040D4
:1051E00080F0804040000202010F01020200000036
:1051F00000F0000000000101011F0101010000009A
:1052000000000000000080B07000000000000000FE
:105210000000000000000001010101010101000087
:10522000000000000000003030000000000000001E
:10523000000080601804006018060100000000E013
:1052400010080810E000000F102020100F000010C0
:1052500010F8000000000020203F20200000007017
:10526000080808887000003028242221300000300F
:105270000888884830000018202020110E00000007
:10528000C02010F8000000070424243F240000F888
:105290000888880808000019212020110E0000E06D
:1052A000108888180000000F112020110E0000380F
:1052B0000808C83808000000003F00000000007027
:1052C000880808887000001C222121221C0000E0B0
:1052D00010080810E0000000312222110F00000029
:1052E00000C0C000000000000030300000000000DE
:1052F000008000000000000080600000000000004E
:1053000080402010080000010204081020004040E6
:105310004040404040000404040404040400000829
:1053200010204080000000201008040201000070DE
:1053300048080808F0000000003036010000C030C6
:10534000C828E810E0000718272423140B000000E9
:10535000C038E0000000203C23020227382008F873
:10536000888888700000203F202020110E00C03067
:10537000080808083800071820202010080008F83E
:1053800008080810E000203F202020100F0008F837
:105390008888E8081000203F20202320180008F803
:1053A0008888E8081000203F200003000000C0307B
:1053B00008080838000007182020221E020008F8FC
:1053C00008000008F808203F210101213F200008C3
:1053D00008F8080800000020203F202000000000FE
:1053E0000808F8080800C08080807F00000008F8E6
:1053F00088C028180800203F20012638200008F81F
:10540000080000000000203F20202020300008F885
:10541000F800F8F80800203F003F003F200008F89F
:1054200030C00008F808203F200007183F00E010B7
:1054300008080810E0000F10202020100F0008F8C6
:1054400008080808F000203F210101010000E010D9
:1054500008080810E0000F18242438504F0008F8FE
:10546000888888887000203F2000030C302000705E
:105470008808080838000038202121221C0018085C
:1054800008F8080818000000203F2000000008F875
:1054900008000008F808001F202020201F000878BE
:1054A000880000C83808000007380E010000F8081E
:1054B00000F80008F800033C0700073C0300081848
:1054C00068808068180820302C03032C30200838AE
:1054D000C800C83808000000203F20000000100865
:1054E0000808C838080020382621202018000000AD
:1054F00000FE020202000000007F40404000000C5D
:1055000030C000000000000000010638C0000002AA
:105510000202FE000000004040407F00000000004A
:10552000040202020400000000000000000000006D
:105530000000000000008080808080808080000269
:105540000204000000000000000000000000000055
:105550008080808000000019242222223F2008F849
:10556000008080000000003F112020110E0000008C
:10557000008080800000000E11202020110000001B
:1055800000808088F800000E112020103F200000CD
:10559000808080800000001F2222222213000080D1
:1055A00080F0888888180020203F2020000000001C
:1055B000808080808000006B94949493600008F851
:1055C000008080800000203F210000203F200080DC
:1055D0009898000000000020203F202000000000DC
:1055E00000809898000000C08080807F000008F84C
:1055F000000080808000203F24022D302000000821
:1056000008F8000000000020203F202000008080DB
:10561000808080808000203F20003F20003F8080ED
:10562000008080800000203F210000203F200000FB
:10563000808080800000001F202020201F008080AC
:1056400000808000000080FFA12020110E000000DB
:10565000008080808000000E112020A0FF808080CC
:1056600080008080800020203F2120000100000079
:10567000808080808000003324242424190000804E
:1056800080E0808000000000001F2020000080805B
:10569000000000808000001F202020103F2080801C
:1056A00080000080808000010E30080601008080AC
:1056B0000080008080800F300C030C300F000080D1
:1056C0008000808080000020312E0E3120008080FC
:1056D00080000080808080818E701806010000802C
:1056E0008080808080000021302C2221300000004A
:1056F00000FE020202000000007F40404000000C5B
:1057000030C000000000000000010638C0000002A8
:105710000202FE000000004040407F000000000048
:10572000040202020400000000000000000000006B
:105730000000000000008080808080808080000267
:105740000204000000000000000000000000000053
:105750008080808000000019242222223F2008F847
:10576000008080000000003F112020110E0000008A
:10577000008080800000000E112020201100000019
:1057800000808088F800000E112020103F200000CB
:10579000808080800000001F2222222213000080CF
:1057A00080F0888888180020203F2020000000001A
:1057B000808080808000006B94949493600008F84F
:1057C000008080800000203F210000203F200080DA
:1057D0009898000000000020203F202000000000DA
:1057E00000809898000000C08080807F000008F84A
:1057F000000080808000203F24022D30200000081F
:1058000008F8000000000020203F202000008080D9
:10581000808080808000203F20003F20003F8080EB
:10582000008080800000203F210000203F200000F9
:10583000808080800000001F202020201F008080AA
:1058400000808000000080FFA12020110E000000D9
:10585000008080808000000E112020A0FF808080CA
:1058600080008080800020203F2120000100000077
:10587000808080808000003324242424190000804C
:1058800080E0808000000000001F20200000808059
:10589000000000808000001F202020103F2080801A
:1058A00080000080808000010E30080601008080AA
:1058B0000080008080800F300C030C300F000080CF
:1058C0008000808080000020312E0E3120008080FA
:1058D00080000080808080818E701806010000802A
:1058E0008080808080000021302C22213000000048
:1058F0000000807C020200000000003F40400000E9
:105900000000FF00000000000000FF000000000297
:10591000027C800000000040403F000000000006C4
:105920000101020204040000000000000000000069
:105930000000000000008080808080808080000265
:105940000204000000000000000000000000000051
:105950008080808000000019242222223F2008F845
:10596000008080000000003F112020110E00000088
:10597000008080800000000E112020201100000017
:1059800000808088F800000E112020103F200000C9
:10599000808080800000001F2222222213000080CD
:1059A00080F0888888180020203F20200000000018
:1059B000808080808000006B94949493600008F84D
:1059C000008080800000203F210000203F200080D8
:1059D0009898000000000020203F202000000000D8
:1059E00000809898000000C08080807F000008F848
:1059F000000080808000203F24022D30200000081D
:105A000008F8000000000020203F202000008080D7
:105A1000808080808000203F20003F20003F8080E9
:105A2000008080800000203F210000203F200000F7
:105A3000808080800000001F202020201F008080A8
:105A400000808000000080FFA12020110E000000D7
:105A5000008080808000000E112020A0FF808080C8
:105A600080008080800020203F2120000100000075
:105A7000808080808000003324242424190000804A
:105A800080E0808000000000001F20200000808057
:105A9000000000808000001F202020103F20808018
:105AA00080000080808000010E30080601008080A8
:105AB0000080008080800F300C030C300F000080CD
:105AC0008000808080000020312E0E3120008080F8
:105AD00080000080808080818E7018060100008028
